{
  "_format": "hh-sol-artifact-1",
  "contractName": "IPFSStorage",
  "sourceName": "contracts/IPFSStorage.sol",
  "abi": [
    {
      "inputs": [],
      "stateMutability": "nonpayable",
      "type": "constructor"
    },
    {
      "inputs": [
        {
          "internalType": "address",
          "name": "owner",
          "type": "address"
        }
      ],
      "name": "OwnableInvalidOwner",
      "type": "error"
    },
    {
      "inputs": [
        {
          "internalType": "address",
          "name": "account",
          "type": "address"
        }
      ],
      "name": "OwnableUnauthorizedAccount",
      "type": "error"
    },
    {
      "anonymous": false,
      "inputs": [
        {
          "indexed": true,
          "internalType": "uint256",
          "name": "documentId",
          "type": "uint256"
        },
        {
          "indexed": true,
          "internalType": "address",
          "name": "owner",
          "type": "address"
        }
      ],
      "name": "DocumentDeactivated",
      "type": "event"
    },
    {
      "anonymous": false,
      "inputs": [
        {
          "indexed": true,
          "internalType": "string",
          "name": "documentType",
          "type": "string"
        },
        {
          "indexed": false,
          "internalType": "string",
          "name": "description",
          "type": "string"
        }
      ],
      "name": "DocumentTypeAdded",
      "type": "event"
    },
    {
      "anonymous": false,
      "inputs": [
        {
          "indexed": true,
          "internalType": "string",
          "name": "documentType",
          "type": "string"
        }
      ],
      "name": "DocumentTypeDeactivated",
      "type": "event"
    },
    {
      "anonymous": false,
      "inputs": [
        {
          "indexed": true,
          "internalType": "uint256",
          "name": "documentId",
          "type": "uint256"
        },
        {
          "indexed": true,
          "internalType": "address",
          "name": "owner",
          "type": "address"
        },
        {
          "indexed": false,
          "internalType": "string",
          "name": "ipfsHash",
          "type": "string"
        },
        {
          "indexed": false,
          "internalType": "string",
          "name": "documentType",
          "type": "string"
        }
      ],
      "name": "DocumentUploaded",
      "type": "event"
    },
    {
      "anonymous": false,
      "inputs": [
        {
          "indexed": true,
          "internalType": "uint256",
          "name": "documentId",
          "type": "uint256"
        },
        {
          "indexed": true,
          "internalType": "address",
          "name": "owner",
          "type": "address"
        }
      ],
      "name": "DocumentVerified",
      "type": "event"
    },
    {
      "anonymous": false,
      "inputs": [
        {
          "indexed": true,
          "internalType": "address",
          "name": "previousOwner",
          "type": "address"
        },
        {
          "indexed": true,
          "internalType": "address",
          "name": "newOwner",
          "type": "address"
        }
      ],
      "name": "OwnershipTransferred",
      "type": "event"
    },
    {
      "inputs": [
        {
          "internalType": "string",
          "name": "_name",
          "type": "string"
        },
        {
          "internalType": "string",
          "name": "_description",
          "type": "string"
        },
        {
          "internalType": "uint256",
          "name": "_maxSize",
          "type": "uint256"
        }
      ],
      "name": "addDocumentType",
      "outputs": [],
      "stateMutability": "nonpayable",
      "type": "function"
    },
    {
      "inputs": [
        {
          "internalType": "uint256",
          "name": "_documentId",
          "type": "uint256"
        }
      ],
      "name": "deactivateDocument",
      "outputs": [],
      "stateMutability": "nonpayable",
      "type": "function"
    },
    {
      "inputs": [
        {
          "internalType": "string",
          "name": "_name",
          "type": "string"
        }
      ],
      "name": "deactivateDocumentType",
      "outputs": [],
      "stateMutability": "nonpayable",
      "type": "function"
    },
    {
      "inputs": [
        {
          "internalType": "string",
          "name": "",
          "type": "string"
        }
      ],
      "name": "documentTypes",
      "outputs": [
        {
          "internalType": "string",
          "name": "name",
          "type": "string"
        },
        {
          "internalType": "string",
          "name": "description",
          "type": "string"
        },
        {
          "internalType": "bool",
          "name": "isActive",
          "type": "bool"
        },
        {
          "internalType": "uint256",
          "name": "maxSize",
          "type": "uint256"
        }
      ],
      "stateMutability": "view",
      "type": "function"
    },
    {
      "inputs": [
        {
          "internalType": "uint256",
          "name": "",
          "type": "uint256"
        }
      ],
      "name": "documents",
      "outputs": [
        {
          "internalType": "uint256",
          "name": "documentId",
          "type": "uint256"
        },
        {
          "internalType": "address",
          "name": "owner",
          "type": "address"
        },
        {
          "internalType": "string",
          "name": "ipfsHash",
          "type": "string"
        },
        {
          "internalType": "string",
          "name": "documentType",
          "type": "string"
        },
        {
          "internalType": "string",
          "name": "description",
          "type": "string"
        },
        {
          "internalType": "uint256",
          "name": "uploadDate",
          "type": "uint256"
        },
        {
          "internalType": "bool",
          "name": "isVerified",
          "type": "bool"
        },
        {
          "internalType": "bool",
          "name": "isActive",
          "type": "bool"
        }
      ],
      "stateMutability": "view",
      "type": "function"
    },
    {
      "inputs": [
        {
          "internalType": "uint256",
          "name": "_documentId",
          "type": "uint256"
        }
      ],
      "name": "getDocument",
      "outputs": [
        {
          "internalType": "uint256",
          "name": "documentId",
          "type": "uint256"
        },
        {
          "internalType": "address",
          "name": "owner",
          "type": "address"
        },
        {
          "internalType": "string",
          "name": "ipfsHash",
          "type": "string"
        },
        {
          "internalType": "string",
          "name": "documentType",
          "type": "string"
        },
        {
          "internalType": "string",
          "name": "description",
          "type": "string"
        },
        {
          "internalType": "uint256",
          "name": "uploadDate",
          "type": "uint256"
        },
        {
          "internalType": "bool",
          "name": "isVerified",
          "type": "bool"
        },
        {
          "internalType": "bool",
          "name": "isActive",
          "type": "bool"
        }
      ],
      "stateMutability": "view",
      "type": "function"
    },
    {
      "inputs": [],
      "name": "getDocumentCount",
      "outputs": [
        {
          "internalType": "uint256",
          "name": "",
          "type": "uint256"
        }
      ],
      "stateMutability": "view",
      "type": "function"
    },
    {
      "inputs": [
        {
          "internalType": "string",
          "name": "_name",
          "type": "string"
        }
      ],
      "name": "getDocumentType",
      "outputs": [
        {
          "internalType": "string",
          "name": "name",
          "type": "string"
        },
        {
          "internalType": "string",
          "name": "description",
          "type": "string"
        },
        {
          "internalType": "bool",
          "name": "isActive",
          "type": "bool"
        },
        {
          "internalType": "uint256",
          "name": "maxSize",
          "type": "uint256"
        }
      ],
      "stateMutability": "view",
      "type": "function"
    },
    {
      "inputs": [
        {
          "internalType": "string",
          "name": "_documentType",
          "type": "string"
        }
      ],
      "name": "getDocumentsByType",
      "outputs": [
        {
          "internalType": "uint256[]",
          "name": "",
          "type": "uint256[]"
        }
      ],
      "stateMutability": "view",
      "type": "function"
    },
    {
      "inputs": [],
      "name": "getSupportedDocumentTypes",
      "outputs": [
        {
          "internalType": "string[]",
          "name": "",
          "type": "string[]"
        }
      ],
      "stateMutability": "view",
      "type": "function"
    },
    {
      "inputs": [
        {
          "internalType": "address",
          "name": "_user",
          "type": "address"
        }
      ],
      "name": "getUserDocuments",
      "outputs": [
        {
          "internalType": "uint256[]",
          "name": "",
          "type": "uint256[]"
        }
      ],
      "stateMutability": "view",
      "type": "function"
    },
    {
      "inputs": [],
      "name": "getVerifiedDocuments",
      "outputs": [
        {
          "internalType": "uint256[]",
          "name": "",
          "type": "uint256[]"
        }
      ],
      "stateMutability": "view",
      "type": "function"
    },
    {
      "inputs": [
        {
          "internalType": "string",
          "name": "_ipfsHash",
          "type": "string"
        }
      ],
      "name": "isHashVerified",
      "outputs": [
        {
          "internalType": "bool",
          "name": "",
          "type": "bool"
        }
      ],
      "stateMutability": "view",
      "type": "function"
    },
    {
      "inputs": [],
      "name": "owner",
      "outputs": [
        {
          "internalType": "address",
          "name": "",
          "type": "address"
        }
      ],
      "stateMutability": "view",
      "type": "function"
    },
    {
      "inputs": [
        {
          "internalType": "uint256",
          "name": "_documentId",
          "type": "uint256"
        }
      ],
      "name": "reactivateDocument",
      "outputs": [],
      "stateMutability": "nonpayable",
      "type": "function"
    },
    {
      "inputs": [],
      "name": "renounceOwnership",
      "outputs": [],
      "stateMutability": "nonpayable",
      "type": "function"
    },
    {
      "inputs": [
        {
          "internalType": "uint256",
          "name": "",
          "type": "uint256"
        }
      ],
      "name": "supportedDocumentTypes",
      "outputs": [
        {
          "internalType": "string",
          "name": "",
          "type": "string"
        }
      ],
      "stateMutability": "view",
      "type": "function"
    },
    {
      "inputs": [
        {
          "internalType": "address",
          "name": "newOwner",
          "type": "address"
        }
      ],
      "name": "transferOwnership",
      "outputs": [],
      "stateMutability": "nonpayable",
      "type": "function"
    },
    {
      "inputs": [
        {
          "internalType": "string",
          "name": "_ipfsHash",
          "type": "string"
        },
        {
          "internalType": "string",
          "name": "_documentType",
          "type": "string"
        },
        {
          "internalType": "string",
          "name": "_description",
          "type": "string"
        }
      ],
      "name": "uploadDocument",
      "outputs": [
        {
          "internalType": "uint256",
          "name": "",
          "type": "uint256"
        }
      ],
      "stateMutability": "nonpayable",
      "type": "function"
    },
    {
      "inputs": [
        {
          "internalType": "string[]",
          "name": "_ipfsHashes",
          "type": "string[]"
        },
        {
          "internalType": "string[]",
          "name": "_documentTypes",
          "type": "string[]"
        },
        {
          "internalType": "string[]",
          "name": "_descriptions",
          "type": "string[]"
        }
      ],
      "name": "uploadMultipleDocuments",
      "outputs": [
        {
          "internalType": "uint256[]",
          "name": "",
          "type": "uint256[]"
        }
      ],
      "stateMutability": "nonpayable",
      "type": "function"
    },
    {
      "inputs": [
        {
          "internalType": "address",
          "name": "",
          "type": "address"
        },
        {
          "internalType": "uint256",
          "name": "",
          "type": "uint256"
        }
      ],
      "name": "userDocuments",
      "outputs": [
        {
          "internalType": "uint256",
          "name": "",
          "type": "uint256"
        }
      ],
      "stateMutability": "view",
      "type": "function"
    },
    {
      "inputs": [
        {
          "internalType": "string",
          "name": "",
          "type": "string"
        }
      ],
      "name": "verifiedHashes",
      "outputs": [
        {
          "internalType": "bool",
          "name": "",
          "type": "bool"
        }
      ],
      "stateMutability": "view",
      "type": "function"
    },
    {
      "inputs": [
        {
          "internalType": "uint256",
          "name": "_documentId",
          "type": "uint256"
        }
      ],
      "name": "verifyDocument",
      "outputs": [],
      "stateMutability": "nonpayable",
      "type": "function"
    }
  ],
  "bytecode": "0x60806040523480156200001157600080fd5b5033806200003957604051631e4fbdf760e01b81526000600482015260240160405180910390fd5b6200004481620002fe565b50620000b26040518060400160405280600a8152602001691cdd1d59195b9d17da5960b21b8152506040518060400160405280601381526020017f53747564656e7420494420446f63756d656e7400000000000000000000000000815250621000006200034e60201b60201c565b620001326040518060400160405280601581526020017f756e69766572736974795f7472616e73637269707400000000000000000000008152506040518060400160405280601581526020017f556e6976657273697479205472616e7363726970740000000000000000000000815250625000006200034e60201b60201c565b620001946040518060400160405280600e81526020016d1b1bd85b97d859dc99595b595b9d60921b8152506040518060400160405280600e81526020016d131bd85b881059dc99595b595b9d60921b815250622000006200034e60201b60201c565b620001f86040518060400160405280600f81526020016e195e1c195b9cd957dc9958d95a5c1d608a1b8152506040518060400160405280600f81526020016e115e1c195b9cd948149958d95a5c1d608a1b815250621000006200034e60201b60201c565b620002786040518060400160405280601781526020017f7363686f6c6172736869705f6170706c69636174696f6e0000000000000000008152506040518060400160405280601781526020017f5363686f6c617273686970204170706c69636174696f6e000000000000000000815250623000006200034e60201b60201c565b620002f86040518060400160405280601581526020017f6964656e746974795f766572696669636174696f6e00000000000000000000008152506040518060400160405280601581526020017f4964656e7469747920566572696669636174696f6e0000000000000000000000815250622000006200034e60201b60201c565b62000627565b600080546001600160a01b038381166001600160a01b0319831681178455604051919092169283917f8be0079c531659141344cd1fd0a4f28419497f9722a3daafe3b4186f6b6457e09190a35050565b600060048460405162000362919062000463565b90815260405190819003602001902090508062000380858262000526565b506001810162000391848262000526565b5060028101805460ff19166001908117909155600382018390556006805491820181556000527ff652222313e28459528d920b65115c16c04f3efc82aaedc97be59f3f377c0d3f01620003e5858262000526565b5083604051620003f6919062000463565b60405180910390207f73903b186f572db44d486d4827957d565add734304fdd0771e04d22094fa5e87846040516200042f9190620005f2565b60405180910390a250505050565b60005b838110156200045a57818101518382015260200162000440565b50506000910152565b60008251620004778184602087016200043d565b9190910192915050565b634e487b7160e01b600052604160045260246000fd5b600181811c90821680620004ac57607f821691505b602082108103620004cd57634e487b7160e01b600052602260045260246000fd5b50919050565b601f8211156200052157600081815260208120601f850160051c81016020861015620004fc5750805b601f850160051c820191505b818110156200051d5782815560010162000508565b5050505b505050565b81516001600160401b0381111562000542576200054262000481565b6200055a8162000553845462000497565b84620004d3565b602080601f831160018114620005925760008415620005795750858301515b600019600386901b1c1916600185901b1785556200051d565b600085815260208120601f198616915b82811015620005c357888601518255948401946001909101908401620005a2565b5085821015620005e25787850151600019600388901b60f8161c191681555b5050505050600190811b01905550565b6020815260008251806020840152620006138160408501602087016200043d565b601f01601f19169190910160400192915050565b6120e280620006376000396000f3fe608060405234801561001057600080fd5b506004361061014d5760003560e01c80638897b932116100c3578063a403fe081161007c578063a403fe0814610303578063a91f947d14610316578063bee7809f14610329578063c2ed2b0514610331578063c6dc7e5d14610344578063f2fde38b1461035757600080fd5b80638897b9321461026f5780638da5cb5b1461028f57806390a4b162146102aa578063969d13b0146102bd5780639e987f95146102dd578063a11868fc146102f057600080fd5b80633f9b250a116101155780633f9b250a146101e4578063577a1b921461020b5780635d5449011461021e578063661d6ca9146102415780636dda61d914610254578063715018a61461026757600080fd5b80630da7d835146101525780630dacc18114610195578063389c1d66146101aa5780633cd6b9cd146101bd5780633d1c2273146101d2575b600080fd5b6101806101603660046119e4565b805160208183018101805160058252928201919093012091525460ff1681565b60405190151581526020015b60405180910390f35b6101a86101a3366004611a18565b61036a565b005b6101a86101b8366004611a84565b61043b565b6101c5610531565b60405161018c9190611aed565b6001545b60405190815260200161018c565b6101f76101f2366004611a84565b61060a565b60405161018c989796959493929190611b4f565b6101d6610219366004611be1565b610829565b61023161022c3660046119e4565b61085a565b60405161018c9493929190611c0b565b61023161024f3660046119e4565b6109a1565b6101a8610262366004611a84565b610b0a565b6101a8610c45565b61028261027d3660046119e4565b610c59565b60405161018c9190611c44565b6000546040516001600160a01b03909116815260200161018c565b6102826102b8366004611c88565b610dee565b6102d06102cb366004611a84565b610e5a565b60405161018c9190611caa565b6101d66102eb366004611cbd565b610f06565b6102826102fe366004611de2565b610f1b565b6101a86103113660046119e4565b611053565b6101806103243660046119e4565b611141565b61028261116c565b6101f761033f366004611a84565b6112e1565b6101a8610352366004611a84565b6114cc565b6101a8610365366004611c88565b6115a3565b6103726115e1565b60008351116103b85760405162461bcd60e51b815260206004820152600d60248201526c13985b59481c995c5d5a5c9959609a1b60448201526064015b60405180910390fd5b6004836040516103c89190611e5f565b9081526040519081900360200190206002015460ff161561042b5760405162461bcd60e51b815260206004820152601c60248201527f446f63756d656e74207479706520616c7265616479206578697374730000000060448201526064016103af565b61043683838361160e565b505050565b600081815260026020526040902060018101546001600160a01b0316331461049a5760405162461bcd60e51b81526020600482015260126024820152712737ba103237b1bab6b2b73a1037bbb732b960711b60448201526064016103af565b6006810154610100900460ff166104f35760405162461bcd60e51b815260206004820152601c60248201527f446f63756d656e7420616c72656164792064656163746976617465640000000060448201526064016103af565b60068101805461ff0019169055604051339083907f4966a2290137d66887b5573d56bc34d4851569bfb197812fe2e73b59ebd2e5a790600090a35050565b60606006805480602002602001604051908101604052809291908181526020016000905b8282101561060157838290600052602060002001805461057490611e7b565b80601f01602080910402602001604051908101604052809291908181526020018280546105a090611e7b565b80156105ed5780601f106105c2576101008083540402835291602001916105ed565b820191906000526020600020905b8154815290600101906020018083116105d057829003601f168201915b505050505081526020019060010190610555565b50505050905090565b60008181526002602081905260408220805460018201546005830154600684015494840180548796606096879687968a9687968796949593946001600160a01b0390931693909260038701926004880192909160ff8083169261010090041690869061067590611e7b565b80601f01602080910402602001604051908101604052809291908181526020018280546106a190611e7b565b80156106ee5780601f106106c3576101008083540402835291602001916106ee565b820191906000526020600020905b8154815290600101906020018083116106d157829003601f168201915b5050505050955084805461070190611e7b565b80601f016020809104026020016040519081016040528092919081815260200182805461072d90611e7b565b801561077a5780601f1061074f5761010080835404028352916020019161077a565b820191906000526020600020905b81548152906001019060200180831161075d57829003601f168201915b5050505050945083805461078d90611e7b565b80601f01602080910402602001604051908101604052809291908181526020018280546107b990611e7b565b80156108065780601f106107db57610100808354040283529160200191610806565b820191906000526020600020905b8154815290600101906020018083116107e957829003601f168201915b505050505093509850985098509850985098509850985050919395975091939597565b6003602052816000526040600020818154811061084557600080fd5b90600052602060002001600091509150505481565b805160208183018101805160048252928201919093012091528054819061088090611e7b565b80601f01602080910402602001604051908101604052809291908181526020018280546108ac90611e7b565b80156108f95780601f106108ce576101008083540402835291602001916108f9565b820191906000526020600020905b8154815290600101906020018083116108dc57829003601f168201915b50505050509080600101805461090e90611e7b565b80601f016020809104026020016040519081016040528092919081815260200182805461093a90611e7b565b80156109875780601f1061095c57610100808354040283529160200191610987565b820191906000526020600020905b81548152906001019060200180831161096a57829003601f168201915b505050506002830154600390930154919260ff1691905084565b60608060008060006004866040516109b99190611e5f565b9081526040519081900360200190206002810154600382015482549293508392600184019260ff16919084906109ee90611e7b565b80601f0160208091040260200160405190810160405280929190818152602001828054610a1a90611e7b565b8015610a675780601f10610a3c57610100808354040283529160200191610a67565b820191906000526020600020905b815481529060010190602001808311610a4a57829003601f168201915b50505050509350828054610a7a90611e7b565b80601f0160208091040260200160405190810160405280929190818152602001828054610aa690611e7b565b8015610af35780601f10610ac857610100808354040283529160200191610af3565b820191906000526020600020905b815481529060010190602001808311610ad657829003601f168201915b505050505092509450945094509450509193509193565b610b126115e1565b600081815260026020526040902060018101546001600160a01b0316610b745760405162461bcd60e51b8152602060048201526017602482015276111bd8dd5b595b9d08191bd95cc81b9bdd08195e1a5cdd604a1b60448201526064016103af565b6006810154610100900460ff16610bc35760405162461bcd60e51b8152602060048201526013602482015272446f63756d656e74206e6f742061637469766560681b60448201526064016103af565b60068101805460ff19166001908117909155604051600590610be9906002850190611f28565b908152604051908190036020018120805492151560ff199093169290921790915560018201546001600160a01b03169083907f6966a20715f4337f34fd08d8aa190a3c343cf21ad67677b447632194d8d6030890600090a35050565b610c4d6115e1565b610c5760006116f1565b565b606060006001546001600160401b03811115610c7757610c7761192f565b604051908082528060200260200182016040528015610ca0578160200160208202803683370190505b509050600060015b6001548111610d4a57848051906020012060026000838152602001908152602001600020600301604051610cdc9190611f28565b6040518091039020148015610d075750600081815260026020526040902060060154610100900460ff165b15610d385780838381518110610d1f57610d1f611f34565b602090810291909101015281610d3481611f4a565b9250505b80610d4281611f4a565b915050610ca8565b506000816001600160401b03811115610d6557610d6561192f565b604051908082528060200260200182016040528015610d8e578160200160208202803683370190505b50905060005b82811015610de557838181518110610dae57610dae611f34565b6020026020010151828281518110610dc857610dc8611f34565b602090810291909101015280610ddd81611f4a565b915050610d94565b50949350505050565b6001600160a01b038116600090815260036020908152604091829020805483518184028101840190945280845260609392830182828015610e4e57602002820191906000526020600020905b815481526020019060010190808311610e3a575b50505050509050919050565b60068181548110610e6a57600080fd5b906000526020600020016000915090508054610e8590611e7b565b80601f0160208091040260200160405190810160405280929190818152602001828054610eb190611e7b565b8015610efe5780601f10610ed357610100808354040283529160200191610efe565b820191906000526020600020905b815481529060010190602001808311610ee157829003601f168201915b505050505081565b6000610f13848484611741565b949350505050565b606082518451148015610f2f575081518351145b610f7b5760405162461bcd60e51b815260206004820152601c60248201527f417272617973206d75737420686176652073616d65206c656e6774680000000060448201526064016103af565b600084516001600160401b03811115610f9657610f9661192f565b604051908082528060200260200182016040528015610fbf578160200160208202803683370190505b50905060005b8551811015610de557611024868281518110610fe357610fe3611f34565b6020026020010151868381518110610ffd57610ffd611f34565b602002602001015186848151811061101757611017611f34565b6020026020010151611741565b82828151811061103657611036611f34565b60209081029190910101528061104b81611f4a565b915050610fc5565b61105b6115e1565b60048160405161106b9190611e5f565b9081526040519081900360200190206002015460ff166110cd5760405162461bcd60e51b815260206004820152601860248201527f446f63756d656e742074797065206e6f7420616374697665000000000000000060448201526064016103af565b60006004826040516110df9190611e5f565b908152604051908190036020018120600201805492151560ff199093169290921790915561110e908290611e5f565b604051908190038120907f15a74ac3a5f7d299b4e424bad2ec2bf9e1fe1316fb6f75a3eaab795184ab757990600090a250565b60006005826040516111539190611e5f565b9081526040519081900360200190205460ff1692915050565b606060006001546001600160401b0381111561118a5761118a61192f565b6040519080825280602002602001820160405280156111b3578160200160208202803683370190505b509050600060015b600154811161123e5760008181526002602052604090206006015460ff1680156111fb5750600081815260026020526040902060060154610100900460ff165b1561122c578083838151811061121357611213611f34565b60209081029190910101528161122881611f4a565b9250505b8061123681611f4a565b9150506111bb565b506000816001600160401b038111156112595761125961192f565b604051908082528060200260200182016040528015611282578160200160208202803683370190505b50905060005b828110156112d9578381815181106112a2576112a2611f34565b60200260200101518282815181106112bc576112bc611f34565b6020908102919091010152806112d181611f4a565b915050611288565b509392505050565b600260208190526000918252604090912080546001820154928201805491936001600160a01b0316929161131490611e7b565b80601f016020809104026020016040519081016040528092919081815260200182805461134090611e7b565b801561138d5780601f106113625761010080835404028352916020019161138d565b820191906000526020600020905b81548152906001019060200180831161137057829003601f168201915b5050505050908060030180546113a290611e7b565b80601f01602080910402602001604051908101604052809291908181526020018280546113ce90611e7b565b801561141b5780601f106113f05761010080835404028352916020019161141b565b820191906000526020600020905b8154815290600101906020018083116113fe57829003601f168201915b50505050509080600401805461143090611e7b565b80601f016020809104026020016040519081016040528092919081815260200182805461145c90611e7b565b80156114a95780601f1061147e576101008083540402835291602001916114a9565b820191906000526020600020905b81548152906001019060200180831161148c57829003601f168201915b50505050600583015460069093015491929160ff80821692506101009091041688565b6114d46115e1565b600081815260026020526040902060018101546001600160a01b03166115365760405162461bcd60e51b8152602060048201526017602482015276111bd8dd5b595b9d08191bd95cc81b9bdd08195e1a5cdd604a1b60448201526064016103af565b6006810154610100900460ff16156115905760405162461bcd60e51b815260206004820152601760248201527f446f63756d656e7420616c72656164792061637469766500000000000000000060448201526064016103af565b600601805461ff00191661010017905550565b6115ab6115e1565b6001600160a01b0381166115d557604051631e4fbdf760e01b8152600060048201526024016103af565b6115de816116f1565b50565b6000546001600160a01b03163314610c575760405163118cdaa760e01b81523360048201526024016103af565b60006004846040516116209190611e5f565b90815260405190819003602001902090508061163c8582611fbf565b506001810161164b8482611fbf565b5060028101805460ff19166001908117909155600382018390556006805491820181556000527ff652222313e28459528d920b65115c16c04f3efc82aaedc97be59f3f377c0d3f0161169d8582611fbf565b50836040516116ac9190611e5f565b60405180910390207f73903b186f572db44d486d4827957d565add734304fdd0771e04d22094fa5e87846040516116e39190611caa565b60405180910390a250505050565b600080546001600160a01b038381166001600160a01b0319831681178455604051919092169283917f8be0079c531659141344cd1fd0a4f28419497f9722a3daafe3b4186f6b6457e09190a35050565b6000808451116117885760405162461bcd60e51b815260206004820152601260248201527112541194c81a185cda081c995c5d5a5c995960721b60448201526064016103af565b6004836040516117989190611e5f565b9081526040519081900360200190206002015460ff166117fa5760405162461bcd60e51b815260206004820152601b60248201527f446f63756d656e742074797065206e6f7420737570706f72746564000000000060448201526064016103af565b60008251116118425760405162461bcd60e51b815260206004820152601460248201527311195cd8dc9a5c1d1a5bdb881c995c5d5a5c995960621b60448201526064016103af565b6001805490600061185283611f4a565b909155505060018054600081815260026020819052604090912082815592830180546001600160a01b0319163317905590919081016118918782611fbf565b50600381016118a08682611fbf565b50600481016118af8582611fbf565b5042600582015560068101805461ff001916610100179055336000818152600360209081526040808320805460018101825590845291909220018490555183907fbc1a1ccf8342004af7abc5b367be5beb32916a886fa6a400ae874b3e5ebbc2729061191e908a908a9061207e565b60405180910390a350949350505050565b634e487b7160e01b600052604160045260246000fd5b604051601f8201601f191681016001600160401b038111828210171561196d5761196d61192f565b604052919050565b600082601f83011261198657600080fd5b81356001600160401b0381111561199f5761199f61192f565b6119b2601f8201601f1916602001611945565b8181528460208386010111156119c757600080fd5b816020850160208301376000918101602001919091529392505050565b6000602082840312156119f657600080fd5b81356001600160401b03811115611a0c57600080fd5b610f1384828501611975565b600080600060608486031215611a2d57600080fd5b83356001600160401b0380821115611a4457600080fd5b611a5087838801611975565b94506020860135915080821115611a6657600080fd5b50611a7386828701611975565b925050604084013590509250925092565b600060208284031215611a9657600080fd5b5035919050565b60005b83811015611ab8578181015183820152602001611aa0565b50506000910152565b60008151808452611ad9816020860160208601611a9d565b601f01601f19169290920160200192915050565b6000602080830181845280855180835260408601915060408160051b870101925083870160005b82811015611b4257603f19888603018452611b30858351611ac1565b94509285019290850190600101611b14565b5092979650505050505050565b8881526001600160a01b038816602082015261010060408201819052600090611b7a8382018a611ac1565b90508281036060840152611b8e8189611ac1565b90508281036080840152611ba28188611ac1565b60a0840196909652505091151560c0830152151560e09091015295945050505050565b80356001600160a01b0381168114611bdc57600080fd5b919050565b60008060408385031215611bf457600080fd5b611bfd83611bc5565b946020939093013593505050565b608081526000611c1e6080830187611ac1565b8281036020840152611c308187611ac1565b941515604084015250506060015292915050565b6020808252825182820181905260009190848201906040850190845b81811015611c7c57835183529284019291840191600101611c60565b50909695505050505050565b600060208284031215611c9a57600080fd5b611ca382611bc5565b9392505050565b602081526000611ca36020830184611ac1565b600080600060608486031215611cd257600080fd5b83356001600160401b0380821115611ce957600080fd5b611cf587838801611975565b94506020860135915080821115611d0b57600080fd5b611d1787838801611975565b93506040860135915080821115611d2d57600080fd5b50611d3a86828701611975565b9150509250925092565b600082601f830112611d5557600080fd5b813560206001600160401b0380831115611d7157611d7161192f565b8260051b611d80838201611945565b9384528581018301938381019088861115611d9a57600080fd5b84880192505b85831015611dd657823584811115611db85760008081fd5b611dc68a87838c0101611975565b8352509184019190840190611da0565b98975050505050505050565b600080600060608486031215611df757600080fd5b83356001600160401b0380821115611e0e57600080fd5b611e1a87838801611d44565b94506020860135915080821115611e3057600080fd5b611e3c87838801611d44565b93506040860135915080821115611e5257600080fd5b50611d3a86828701611d44565b60008251611e71818460208701611a9d565b9190910192915050565b600181811c90821680611e8f57607f821691505b602082108103611eaf57634e487b7160e01b600052602260045260246000fd5b50919050565b60008154611ec281611e7b565b60018281168015611eda5760018114611eef57611f1e565b60ff1984168752821515830287019450611f1e565b8560005260208060002060005b85811015611f155781548a820152908401908201611efc565b50505082870194505b5050505092915050565b6000611ca38284611eb5565b634e487b7160e01b600052603260045260246000fd5b600060018201611f6a57634e487b7160e01b600052601160045260246000fd5b5060010190565b601f82111561043657600081815260208120601f850160051c81016020861015611f985750805b601f850160051c820191505b81811015611fb757828155600101611fa4565b505050505050565b81516001600160401b03811115611fd857611fd861192f565b611fec81611fe68454611e7b565b84611f71565b602080601f83116001811461202157600084156120095750858301515b600019600386901b1c1916600185901b178555611fb7565b600085815260208120601f198616915b8281101561205057888601518255948401946001909101908401612031565b508582101561206e5787850151600019600388901b60f8161c191681555b5050505050600190811b01905550565b6040815260006120916040830185611ac1565b82810360208401526120a38185611ac1565b9594505050505056fea26469706673582212202a578b663dbb71ebe2f3b62452c1fc0db79334d82d721a695f9d20f3dfc3d2dd64736f6c63430008140033",
  "linkReferences": {},
  "deployedLinkReferences": {}
}