{"contracts/UniFiCore.sol":{"UniFiCore":{"abi":[{"inputs":[{"internalType":"address","name":"_usdtToken","type":"address"},{"internalType":"address","name":"_usdcToken","type":"address"},{"internalType":"address","name":"_daiToken","type":"address"},{"internalType":"address","name":"_ethUsdPriceFeed","type":"address"},{"internalType":"address","name":"_usdtUsdPriceFeed","type":"address"}],"stateMutability":"nonpayable","type":"constructor"},{"inputs":[{"internalType":"address","name":"owner","type":"address"}],"name":"OwnableInvalidOwner","type":"error"},{"inputs":[{"internalType":"address","name":"account","type":"address"}],"name":"OwnableUnauthorizedAccount","type":"error"},{"inputs":[],"name":"ReentrancyGuardReentrantCall","type":"error"},{"inputs":[{"internalType":"address","name":"token","type":"address"}],"name":"SafeERC20FailedOperation","type":"error"},{"anonymous":false,"inputs":[{"indexed":true,"internalType":"uint256","name":"poolId","type":"uint256"},{"indexed":true,"internalType":"address","name":"contributor","type":"address"},{"indexed":false,"internalType":"uint256","name":"amount","type":"uint256"}],"name":"ContributionMade","type":"event"},{"anonymous":false,"inputs":[{"indexed":true,"internalType":"address","name":"user","type":"address"},{"indexed":false,"internalType":"uint256","name":"newScore","type":"uint256"}],"name":"CreditScoreUpdated","type":"event"},{"anonymous":false,"inputs":[{"indexed":true,"internalType":"uint256","name":"poolId","type":"uint256"},{"indexed":true,"internalType":"address","name":"creator","type":"address"},{"indexed":false,"internalType":"string","name":"name","type":"string"},{"indexed":false,"internalType":"uint256","name":"targetAmount","type":"uint256"}],"name":"ExpensePoolCreated","type":"event"},{"anonymous":false,"inputs":[{"indexed":true,"internalType":"uint256","name":"loanId","type":"uint256"},{"indexed":true,"internalType":"address","name":"borrower","type":"address"}],"name":"LoanDefaulted","type":"event"},{"anonymous":false,"inputs":[{"indexed":true,"internalType":"uint256","name":"loanId","type":"uint256"},{"indexed":true,"internalType":"address","name":"lender","type":"address"},{"indexed":false,"internalType":"uint256","name":"amount","type":"uint256"}],"name":"LoanFunded","type":"event"},{"anonymous":false,"inputs":[{"indexed":true,"internalType":"uint256","name":"loanId","type":"uint256"},{"indexed":true,"internalType":"address","name":"borrower","type":"address"},{"indexed":false,"internalType":"uint256","name":"amount","type":"uint256"}],"name":"LoanRepaid","type":"event"},{"anonymous":false,"inputs":[{"indexed":true,"internalType":"uint256","name":"loanId","type":"uint256"},{"indexed":true,"internalType":"address","name":"borrower","type":"address"},{"indexed":false,"internalType":"uint256","name":"amount","type":"uint256"},{"indexed":false,"internalType":"string","name":"purpose","type":"string"}],"name":"LoanRequested","type":"event"},{"anonymous":false,"inputs":[{"indexed":true,"internalType":"address","name":"previousOwner","type":"address"},{"indexed":true,"internalType":"address","name":"newOwner","type":"address"}],"name":"OwnershipTransferred","type":"event"},{"anonymous":false,"inputs":[{"indexed":true,"internalType":"uint256","name":"poolId","type":"uint256"},{"indexed":false,"internalType":"uint256","name":"totalAmount","type":"uint256"}],"name":"PoolFunded","type":"event"},{"anonymous":false,"inputs":[{"indexed":true,"internalType":"uint256","name":"remittanceId","type":"uint256"},{"indexed":true,"internalType":"address","name":"sender","type":"address"},{"indexed":true,"internalType":"address","name":"recipient","type":"address"},{"indexed":false,"internalType":"uint256","name":"amount","type":"uint256"}],"name":"RemittanceSent","type":"event"},{"inputs":[],"name":"CREDIT_SCORE_DECREMENT","outputs":[{"internalType":"uint256","name":"","type":"uint256"}],"stateMutability":"view","type":"function"},{"inputs":[],"name":"CREDIT_SCORE_INCREMENT","outputs":[{"internalType":"uint256","name":"","type":"uint256"}],"stateMutability":"view","type":"function"},{"inputs":[],"name":"MAX_INTEREST_RATE","outputs":[{"internalType":"uint256","name":"","type":"uint256"}],"stateMutability":"view","type":"function"},{"inputs":[],"name":"MAX_LOAN_AMOUNT","outputs":[{"internalType":"uint256","name":"","type":"uint256"}],"stateMutability":"view","type":"function"},{"inputs":[],"name":"MIN_LOAN_AMOUNT","outputs":[{"internalType":"uint256","name":"","type":"uint256"}],"stateMutability":"view","type":"function"},{"inputs":[],"name":"checkLoanDefaults","outputs":[],"stateMutability":"nonpayable","type":"function"},{"inputs":[{"internalType":"uint256","name":"_poolId","type":"uint256"},{"internalType":"uint256","name":"_amount","type":"uint256"}],"name":"contributeToPool","outputs":[],"stateMutability":"nonpayable","type":"function"},{"inputs":[{"internalType":"string","name":"_name","type":"string"},{"internalType":"string","name":"_description","type":"string"},{"internalType":"uint256","name":"_targetAmount","type":"uint256"},{"internalType":"uint256","name":"_deadline","type":"uint256"}],"name":"createExpensePool","outputs":[{"internalType":"uint256","name":"","type":"uint256"}],"stateMutability":"nonpayable","type":"function"},{"inputs":[{"internalType":"address","name":"","type":"address"}],"name":"creditProfiles","outputs":[{"internalType":"uint256","name":"creditScore","type":"uint256"},{"internalType":"uint256","name":"totalBorrowed","type":"uint256"},{"internalType":"uint256","name":"totalRepaid","type":"uint256"},{"internalType":"uint256","name":"activeLoans","type":"uint256"},{"internalType":"uint256","name":"completedLoans","type":"uint256"},{"internalType":"uint256","name":"defaultedLoans","type":"uint256"},{"internalType":"uint256","name":"lastActivity","type":"uint256"}],"stateMutability":"view","type":"function"},{"inputs":[],"name":"daiToken","outputs":[{"internalType":"contract IERC20","name":"","type":"address"}],"stateMutability":"view","type":"function"},{"inputs":[],"name":"emergencyWithdraw","outputs":[],"stateMutability":"nonpayable","type":"function"},{"inputs":[],"name":"ethUsdPriceFeed","outputs":[{"internalType":"contract AggregatorV3Interface","name":"","type":"address"}],"stateMutability":"view","type":"function"},{"inputs":[{"internalType":"uint256","name":"","type":"uint256"}],"name":"expensePools","outputs":[{"internalType":"uint256","name":"poolId","type":"uint256"},{"internalType":"string","name":"name","type":"string"},{"internalType":"string","name":"description","type":"string"},{"internalType":"address","name":"creator","type":"address"},{"internalType":"uint256","name":"totalAmount","type":"uint256"},{"internalType":"uint256","name":"targetAmount","type":"uint256"},{"internalType":"uint256","name":"deadline","type":"uint256"},{"internalType":"bool","name":"isActive","type":"bool"}],"stateMutability":"view","type":"function"},{"inputs":[{"internalType":"uint256","name":"_loanId","type":"uint256"}],"name":"fundLoan","outputs":[],"stateMutability":"nonpayable","type":"function"},{"inputs":[{"internalType":"address","name":"_user","type":"address"}],"name":"getCreditProfile","outputs":[{"internalType":"uint256","name":"creditScore","type":"uint256"},{"internalType":"uint256","name":"totalBorrowed","type":"uint256"},{"internalType":"uint256","name":"totalRepaid","type":"uint256"},{"internalType":"uint256","name":"activeLoans","type":"uint256"},{"internalType":"uint256","name":"completedLoans","type":"uint256"},{"internalType":"uint256","name":"defaultedLoans","type":"uint256"},{"internalType":"uint256","name":"lastActivity","type":"uint256"}],"stateMutability":"view","type":"function"},{"inputs":[{"internalType":"uint256","name":"_poolId","type":"uint256"}],"name":"getExpensePool","outputs":[{"internalType":"uint256","name":"poolId","type":"uint256"},{"internalType":"string","name":"name","type":"string"},{"internalType":"string","name":"description","type":"string"},{"internalType":"address","name":"creator","type":"address"},{"internalType":"uint256","name":"totalAmount","type":"uint256"},{"internalType":"uint256","name":"targetAmount","type":"uint256"},{"internalType":"uint256","name":"deadline","type":"uint256"},{"internalType":"bool","name":"isActive","type":"bool"},{"internalType":"address[]","name":"contributors","type":"address[]"}],"stateMutability":"view","type":"function"},{"inputs":[{"internalType":"uint256","name":"_loanId","type":"uint256"}],"name":"getLoan","outputs":[{"internalType":"uint256","name":"loanId","type":"uint256"},{"internalType":"address","name":"borrower","type":"address"},{"internalType":"address","name":"lender","type":"address"},{"internalType":"uint256","name":"amount","type":"uint256"},{"internalType":"uint256","name":"interestRate","type":"uint256"},{"internalType":"uint256","name":"repaymentDate","type":"uint256"},{"internalType":"uint256","name":"borrowedAt","type":"uint256"},{"internalType":"bool","name":"isRepaid","type":"bool"},{"internalType":"bool","name":"isDefaulted","type":"bool"},{"internalType":"string","name":"purpose","type":"string"}],"stateMutability":"view","type":"function"},{"inputs":[{"internalType":"address","name":"_user","type":"address"}],"name":"getUserLoans","outputs":[{"internalType":"uint256[]","name":"","type":"uint256[]"}],"stateMutability":"view","type":"function"},{"inputs":[{"internalType":"address","name":"_user","type":"address"}],"name":"getUserPools","outputs":[{"internalType":"uint256[]","name":"","type":"uint256[]"}],"stateMutability":"view","type":"function"},{"inputs":[{"internalType":"address","name":"_user","type":"address"}],"name":"getUserRemittances","outputs":[{"internalType":"uint256[]","name":"","type":"uint256[]"}],"stateMutability":"view","type":"function"},{"inputs":[{"internalType":"uint256","name":"","type":"uint256"}],"name":"loans","outputs":[{"internalType":"uint256","name":"loanId","type":"uint256"},{"internalType":"address","name":"borrower","type":"address"},{"internalType":"address","name":"lender","type":"address"},{"internalType":"uint256","name":"amount","type":"uint256"},{"internalType":"uint256","name":"interestRate","type":"uint256"},{"internalType":"uint256","name":"repaymentDate","type":"uint256"},{"internalType":"uint256","name":"borrowedAt","type":"uint256"},{"internalType":"bool","name":"isRepaid","type":"bool"},{"internalType":"bool","name":"isDefaulted","type":"bool"},{"internalType":"string","name":"purpose","type":"string"}],"stateMutability":"view","type":"function"},{"inputs":[],"name":"owner","outputs":[{"internalType":"address","name":"","type":"address"}],"stateMutability":"view","type":"function"},{"inputs":[{"internalType":"uint256","name":"_remittanceId","type":"uint256"}],"name":"processRemittance","outputs":[],"stateMutability":"nonpayable","type":"function"},{"inputs":[{"internalType":"uint256","name":"","type":"uint256"}],"name":"remittances","outputs":[{"internalType":"uint256","name":"remittanceId","type":"uint256"},{"internalType":"address","name":"sender","type":"address"},{"internalType":"address","name":"recipient","type":"address"},{"internalType":"uint256","name":"amount","type":"uint256"},{"internalType":"uint256","name":"timestamp","type":"uint256"},{"internalType":"string","name":"currency","type":"string"},{"internalType":"bool","name":"isProcessed","type":"bool"}],"stateMutability":"view","type":"function"},{"inputs":[],"name":"renounceOwnership","outputs":[],"stateMutability":"nonpayable","type":"function"},{"inputs":[{"internalType":"uint256","name":"_loanId","type":"uint256"}],"name":"repayLoan","outputs":[],"stateMutability":"nonpayable","type":"function"},{"inputs":[{"internalType":"uint256","name":"_amount","type":"uint256"},{"internalType":"uint256","name":"_interestRate","type":"uint256"},{"internalType":"uint256","name":"_repaymentDate","type":"uint256"},{"internalType":"string","name":"_purpose","type":"string"}],"name":"requestLoan","outputs":[{"internalType":"uint256","name":"","type":"uint256"}],"stateMutability":"nonpayable","type":"function"},{"inputs":[{"internalType":"address","name":"_recipient","type":"address"},{"internalType":"uint256","name":"_amount","type":"uint256"},{"internalType":"string","name":"_currency","type":"string"}],"name":"sendRemittance","outputs":[{"internalType":"uint256","name":"","type":"uint256"}],"stateMutability":"nonpayable","type":"function"},{"inputs":[{"internalType":"address","name":"newOwner","type":"address"}],"name":"transferOwnership","outputs":[],"stateMutability":"nonpayable","type":"function"},{"inputs":[],"name":"usdcToken","outputs":[{"internalType":"contract IERC20","name":"","type":"address"}],"stateMutability":"view","type":"function"},{"inputs":[],"name":"usdtToken","outputs":[{"internalType":"contract IERC20","name":"","type":"address"}],"stateMutability":"view","type":"function"},{"inputs":[],"name":"usdtUsdPriceFeed","outputs":[{"internalType":"contract AggregatorV3Interface","name":"","type":"address"}],"stateMutability":"view","type":"function"},{"inputs":[{"internalType":"address","name":"","type":"address"},{"internalType":"uint256","name":"","type":"uint256"}],"name":"userLoans","outputs":[{"internalType":"uint256","name":"","type":"uint256"}],"stateMutability":"view","type":"function"},{"inputs":[{"internalType":"address","name":"","type":"address"},{"internalType":"uint256","name":"","type":"uint256"}],"name":"userPools","outputs":[{"internalType":"uint256","name":"","type":"uint256"}],"stateMutability":"view","type":"function"},{"inputs":[{"internalType":"address","name":"","type":"address"},{"internalType":"uint256","name":"","type":"uint256"}],"name":"userRemittances","outputs":[{"internalType":"uint256","name":"","type":"uint256"}],"stateMutability":"view","type":"function"},{"inputs":[{"internalType":"uint256","name":"_poolId","type":"uint256"}],"name":"withdrawFromPool","outputs":[],"stateMutability":"nonpayable","type":"function"}],"devdoc":{"details":"Main contract for UniFi DeFi platform - Student Financial Ecosystem","errors":{"OwnableInvalidOwner(address)":[{"details":"The owner is not a valid owner account. (eg. `address(0)`)"}],"OwnableUnauthorizedAccount(address)":[{"details":"The caller account is not authorized to perform an operation."}],"ReentrancyGuardReentrantCall()":[{"details":"Unauthorized reentrant call."}],"SafeERC20FailedOperation(address)":[{"details":"An operation with an ERC-20 token failed."}]},"kind":"dev","methods":{"owner()":{"details":"Returns the address of the current owner."},"renounceOwnership()":{"details":"Leaves the contract without owner. It will not be possible to call `onlyOwner` functions. Can only be called by the current owner. NOTE: Renouncing ownership will leave the contract without an owner, thereby disabling any functionality that is only available to the owner."},"transferOwnership(address)":{"details":"Transfers ownership of the contract to a new account (`newOwner`). Can only be called by the current owner."}},"title":"UniFiCore","version":1},"evm":{"bytecode":{"linkReferences":{},"object":"60806040523480156200001157600080fd5b50604051620029403803806200294083398101604081905262000034916200013e565b600160005533806200006057604051631e4fbdf760e01b81526000600482015260240160405180910390fd5b6200006b81620000cf565b50600c80546001600160a01b03199081166001600160a01b0397881617909155600d8054821695871695909517909455600e8054851693861693909317909255600f80548416918516919091179055601080549092169216919091179055620001ae565b600180546001600160a01b038381166001600160a01b0319831681179093556040519116919082907f8be0079c531659141344cd1fd0a4f28419497f9722a3daafe3b4186f6b6457e090600090a35050565b80516001600160a01b03811681146200013957600080fd5b919050565b600080600080600060a086880312156200015757600080fd5b620001628662000121565b9450620001726020870162000121565b9350620001826040870162000121565b9250620001926060870162000121565b9150620001a26080870162000121565b90509295509295909350565b61278280620001be6000396000f3fe608060405234801561001057600080fd5b506004361061021c5760003560e01c806396a0486611610125578063b828f1ba116100ad578063d8bad5bd1161007c578063d8bad5bd1461056f578063db2e21bc14610582578063e1ec3c681461058a578063e5b1ea581461059d578063f2fde38b146105a557600080fd5b8063b828f1ba14610520578063bdeab9f114610528578063be22f54614610550578063ceba17941461056357600080fd5b80639a3ed70b116100f45780639a3ed70b146104ae578063a3c6aba2146104c1578063a98ad46c146104d4578063ab7b1c89146104e7578063b4ea0d5f146104fa57600080fd5b806396a048661461046a57806396fa212f1461047d5780639816af581461048857806399cf7c921461049b57600080fd5b806345171f26116101a857806373e437e21161017757806373e437e2146104185780637ac8f5a014610420578063846b909a1461043357806384733294146104465780638da5cb5b1461045957600080fd5b806345171f2614610389578063504006ca146103d45780635e219d86146103fd578063715018a61461041057600080fd5b80631f46aa86116101ef5780631f46aa861461031f57806330fc43ed1461034657806334855d141461035b5780633ad0d08f1461036357806342f6fb291461037657600080fd5b806302bf321f14610221578063079bafe31461024a5780631064aa55146102d357806311eac855146102f4575b600080fd5b61023461022f366004612059565b6105b8565b6040516102419190612074565b60405180910390f35b61029e610258366004612059565b6001600160a01b03166000908152600860205260409020805460018201546002830154600384015460048501546005860154600690960154949693959294919390929190565b604080519788526020880196909652948601939093526060850191909152608084015260a083015260c082015260e001610241565b6102e66102e13660046120b8565b610624565b604051908152602001610241565b600d54610307906001600160a01b031681565b6040516001600160a01b039091168152602001610241565b61033261032d3660046120e2565b610655565b604051610241989796959493929190612141565b6103596103543660046120e2565b6107b4565b005b6102e6600f81565b6103596103713660046121a6565b6108d4565b600f54610307906001600160a01b031681565b61029e610397366004612059565b6008602052600090815260409020805460018201546002830154600384015460048501546005860154600690960154949593949293919290919087565b6103e76103e23660046120e2565b610b1e565b6040516102419a999897969594939291906121c8565b61035961040b3660046120e2565b610c41565b610359610d35565b6102e6600a81565b6102e661042e3660046122d8565b610d49565b6103596104413660046120e2565b610f09565b6102e661045436600461232f565b6110e1565b6001546001600160a01b0316610307565b6102e6610478366004612389565b61134c565b6102e66302faf08081565b610234610496366004612059565b6114dc565b6102346104a9366004612059565b611546565b601054610307906001600160a01b031681565b6102e66104cf3660046120b8565b6115b0565b600c54610307906001600160a01b031681565b6103596104f53660046120e2565b6115cc565b61050d6105083660046120e2565b611841565b60405161024197969594939291906123fd565b6102e6601481565b61053b6105363660046120e2565b611917565b60405161024199989796959493929190612453565b600e54610307906001600160a01b031681565b6102e664012a05f20081565b6102e661057d3660046120b8565b611b1b565b610359611b37565b6103e76105983660046120e2565b611bdc565b610359611cce565b6103596105b3366004612059565b611e45565b6001600160a01b0381166000908152600a602090815260409182902080548351818402810184019094528084526060939283018282801561061857602002820191906000526020600020905b815481526020019060010190808311610604575b50505050509050919050565b6009602052816000526040600020818154811061064057600080fd5b90600052602060002001600091509150505481565b60056020526000908152604090208054600182018054919291610677906124fd565b80601f01602080910402602001604051908101604052809291908181526020018280546106a3906124fd565b80156106f05780601f106106c5576101008083540402835291602001916106f0565b820191906000526020600020905b8154815290600101906020018083116106d357829003601f168201915b505050505090806002018054610705906124fd565b80601f0160208091040260200160405190810160405280929190818152602001828054610731906124fd565b801561077e5780601f106107535761010080835404028352916020019161077e565b820191906000526020600020905b81548152906001019060200180831161076157829003601f168201915b505050600384015460048501546005860154600687015460079097015495966001600160a01b0390931695919450925060ff1688565b6107bc611e80565b6000818152600560205260409020600781015460ff161561081b5760405162461bcd60e51b8152602060048201526014602482015273506f6f6c206973207374696c6c2061637469766560601b60448201526064015b60405180910390fd5b3360009081526008820160205260409020546108725760405162461bcd60e51b8152602060048201526016602482015275139bc818dbdb9d1c9a589d5d1a5bdb9cc8199bdd5b9960521b6044820152606401610812565b3360009081526008820160205260408120805490829055600583015460048401549192916108a0908461254d565b6108aa919061256a565b600c549091506108c4906001600160a01b03163383611eaa565b5050506108d16001600055565b50565b6108dc611e80565b6000828152600560205260409020600781015460ff166109335760405162461bcd60e51b8152602060048201526012602482015271506f6f6c206973206e6f742061637469766560701b6044820152606401610812565b806006015442106109865760405162461bcd60e51b815260206004820152601860248201527f506f6f6c20646561646c696e65206861732070617373656400000000000000006044820152606401610812565b600082116109e95760405162461bcd60e51b815260206004820152602a60248201527f436f6e747269627574696f6e20616d6f756e74206d75737420626520677265616044820152690746572207468616e20360b41b6064820152608401610812565b600c54610a01906001600160a01b0316333085611f0e565b3360009081526008820160205260408120549003610a4157600981018054600181018255600091825260209091200180546001600160a01b031916331790555b33600090815260088201602052604081208054849290610a6290849061258c565b9250508190555081816004016000828254610a7d919061258c565b9091555050604051828152339084907f0a4a91237423e0a1766a761c7cb029311d8b95d6b1b81db1b949a70c98b4e08e9060200160405180910390a38060050154816004015410610b0f5760078101805460ff19169055600481015460405190815283907f2bd52f9253398b8aef7698b9fe3bb703e471a3440c149637f7ccd8e962b4569c9060200160405180910390a25b50610b1a6001600055565b5050565b600081815260066020819052604082208054600182015460028301546003840154600485015460058601549686015460078701546008880180548b9a8b9a8b9a8b9a8b9a8b9a8b9a8b9a60609a969995986001600160a01b0395861698949095169692959194909260ff8082169361010090920416918190610b9f906124fd565b80601f0160208091040260200160405190810160405280929190818152602001828054610bcb906124fd565b8015610c185780601f10610bed57610100808354040283529160200191610c18565b820191906000526020600020905b815481529060010190602001808311610bfb57829003601f168201915b505050505090509a509a509a509a509a509a509a509a509a509a50509193959799509193959799565b610c49611e80565b600081815260076020526040902060028101546001600160a01b03163314610cb35760405162461bcd60e51b815260206004820152601a60248201527f4f6e6c7920726563697069656e742063616e2070726f636573730000000000006044820152606401610812565b600681015460ff1615610cfc5760405162461bcd60e51b8152602060048201526011602482015270105b1c9958591e481c1c9bd8d95cdcd959607a1b6044820152606401610812565b60068101805460ff191660011790556003810154600c54610d2a916001600160a01b03909116903390611eaa565b506108d16001600055565b610d3d611f4d565b610d476000611f7a565b565b6000610d53611e80565b60008311610da35760405162461bcd60e51b815260206004820152601d60248201527f416d6f756e74206d7573742062652067726561746572207468616e20300000006044820152606401610812565b6001600160a01b038416610ded5760405162461bcd60e51b8152602060048201526011602482015270125b9d985b1a59081c9958da5c1a595b9d607a1b6044820152606401610812565b600c54610e05906001600160a01b0316333086611f0e565b60048054906000610e158361259f565b9091555050600480546000818152600760205260409020818155600181018054336001600160a01b0319918216179091556002820180549091166001600160a01b0389161790556003810186905542928101929092559060058101610e7a8582612606565b50336000818152600b60209081526040808320805460018082018355918552838520018790556001600160a01b038b1680855282852080549283018155855293839020018690555188815291929185917fb105d8d25c7dd2595194c53df5df94784c462fe243d474607bd28f51f0a34ee3910160405180910390a4509050610f026001600055565b9392505050565b610f11611e80565b600081815260066020526040902060028101546001600160a01b031615610f705760405162461bcd60e51b8152602060048201526013602482015272131bd85b88185b1c9958591e48199d5b991959606a1b6044820152606401610812565b6001810154336001600160a01b0390911603610fce5760405162461bcd60e51b815260206004820152601960248201527f43616e6e6f742066756e6420796f7572206f776e206c6f616e000000000000006044820152606401610812565b6000606482600401548360030154610fe6919061254d565b610ff0919061256a565b8260030154610fff919061258c565b6003830154600c54919250611021916001600160a01b03169033903090611f0e565b60018201546003830154600c54611046926001600160a01b0391821692911690611eaa565b6002820180546001600160a01b0319163317905542600683015560018201546001600160a01b03166000908152600860205260408120600381018054919261108d8361259f565b90915550504260068201556003830154604051908152339085907fbd7ef6c6281278f6c8ac4ae9ef2f205b52425813c288dd47c377cb6b59c5076e9060200160405180910390a35050506108d16001600055565b60006302faf08085101561112e5760405162461bcd60e51b8152602060048201526014602482015273416d6f756e742062656c6f77206d696e696d756d60601b6044820152606401610812565b64012a05f20085111561117a5760405162461bcd60e51b8152602060048201526014602482015273416d6f756e742061626f7665206d6178696d756d60601b6044820152606401610812565b600f8411156111c45760405162461bcd60e51b8152602060048201526016602482015275092dce8cae4cae6e840e4c2e8ca40e8dede40d0d2ced60531b6044820152606401610812565b42831161121f5760405162461bcd60e51b8152602060048201526024808201527f52657061796d656e742064617465206d75737420626520696e207468652066756044820152637475726560e01b6064820152608401610812565b336000908152600860205260409020805461012c11156112785760405162461bcd60e51b81526020600482015260146024820152734372656469742073636f726520746f6f206c6f7760601b6044820152606401610812565b600380549060006112888361259f565b90915550506003805460008181526006602081905260409091208281556001810180546001600160a01b031916331790559283018990556004830188905560058301879055429083015590600881016112e18682612606565b50336000818152600a60209081526040808320805460018101825590845291909220018490555183907ffbba0893dd1f941cb4a7bb791aed3ce1ad2a008c20ef3254b2a2cf7752b199f190611339908c908a906126c6565b60405180910390a3509695505050505050565b60008083116113a95760405162461bcd60e51b8152602060048201526024808201527f54617267657420616d6f756e74206d75737420626520677265617465722074686044820152630616e20360e41b6064820152608401610812565b4282116113f85760405162461bcd60e51b815260206004820152601e60248201527f446561646c696e65206d75737420626520696e207468652066757475726500006044820152606401610812565b600280549060006114088361259f565b909155505060025460008181526005602052604090208181556001810161142f8882612606565b506002810161143e8782612606565b506003810180546001600160a01b03191633908117909155600582018690556006820185905560078201805460ff19166001908117909155600082815260096020908152604080832080549485018155835291209091018490555183907fa8cb28895a26fa1fbfb25d4c9b00fb9a89298f8cd4c61c200cc37a1436339c51906114ca908b908a906126e7565b60405180910390a35095945050505050565b6001600160a01b03811660009081526009602090815260409182902080548351818402810184019094528084526060939283018282801561061857602002820191906000526020600020908154815260200190600101908083116106045750505050509050919050565b6001600160a01b0381166000908152600b602090815260409182902080548351818402810184019094528084526060939283018282801561061857602002820191906000526020600020908154815260200190600101908083116106045750505050509050919050565b600b602052816000526040600020818154811061064057600080fd5b6115d4611e80565b600081815260066020526040902060018101546001600160a01b0316331461163e5760405162461bcd60e51b815260206004820152601760248201527f4f6e6c7920626f72726f7765722063616e2072657061790000000000000000006044820152606401610812565b600781015460ff16156116895760405162461bcd60e51b8152602060048201526013602482015272131bd85b88185b1c9958591e481c995c185a59606a1b6044820152606401610812565b60028101546001600160a01b03166116d55760405162461bcd60e51b815260206004820152600f60248201526e131bd85b881b9bdd08199d5b991959608a1b6044820152606401610812565b60006064826004015483600301546116ed919061254d565b6116f7919061256a565b8260030154611706919061258c565b600c54909150611721906001600160a01b0316333084611f0e565b6002820154600c54611740916001600160a01b03918216911683611eaa565b60078201805460ff191660011790553360009081526008602052604081206002810180549192849261177390849061258c565b909155505060038101805490600061178a83612709565b90915550506004810180549060006117a18361259f565b9190505550600a8160000160008282546117bb919061258c565b9091555050426006820155604051828152339085907f512d3e65b3e58c2187bb1872aa435dba5bd09c1c03823ba56ab70aac411e4a219060200160405180910390a3805460405190815233907f79c012a0cfae660e09134956bc432c8497ec80e86a3a108d130e8b3fca52b3ad9060200160405180910390a25050506108d16001600055565b60076020526000908152604090208054600182015460028301546003840154600485015460058601805495966001600160a01b039586169695909416949293919261188b906124fd565b80601f01602080910402602001604051908101604052809291908181526020018280546118b7906124fd565b80156119045780601f106118d957610100808354040283529160200191611904565b820191906000526020600020905b8154815290600101906020018083116118e757829003601f168201915b5050506006909301549192505060ff1687565b6000606080600080600080600060606000600560008c81526020019081526020016000209050806000015481600101826002018360030160009054906101000a90046001600160a01b03168460040154856005015486600601548760070160009054906101000a900460ff1688600901878054611993906124fd565b80601f01602080910402602001604051908101604052809291908181526020018280546119bf906124fd565b8015611a0c5780601f106119e157610100808354040283529160200191611a0c565b820191906000526020600020905b8154815290600101906020018083116119ef57829003601f168201915b50505050509750868054611a1f906124fd565b80601f0160208091040260200160405190810160405280929190818152602001828054611a4b906124fd565b8015611a985780601f10611a6d57610100808354040283529160200191611a98565b820191906000526020600020905b815481529060010190602001808311611a7b57829003601f168201915b5050505050965080805480602002602001604051908101604052809291908181526020018280548015611af457602002820191906000526020600020905b81546001600160a01b03168152600190910190602001808311611ad6575b50505050509050995099509950995099509950995099509950509193959799909294969850565b600a602052816000526040600020818154811061064057600080fd5b611b3f611f4d565b600c546040516370a0823160e01b81523060048201526000916001600160a01b0316906370a0823190602401602060405180830381865afa158015611b88573d6000803e3d6000fd5b505050506040513d601f19601f82011682018060405250810190611bac9190612720565b905080156108d1576108d1611bc96001546001600160a01b031690565b600c546001600160a01b03169083611eaa565b600660208190526000918252604090912080546001820154600283015460038401546004850154600586015496860154600787015460088801805497996001600160a01b039788169997909616979496939594929360ff808416946101009094041692909190611c4b906124fd565b80601f0160208091040260200160405190810160405280929190818152602001828054611c77906124fd565b8015611cc45780601f10611c9957610100808354040283529160200191611cc4565b820191906000526020600020905b815481529060010190602001808311611ca757829003601f168201915b505050505090508a565b4260015b6003548111610b1a576000818152600660205260409020600781015460ff16158015611d0857506007810154610100900460ff16155b8015611d20575060028101546001600160a01b031615155b8015611d2f5750806005015483115b15611e325760078101805461ff00191661010017905560018101546001600160a01b031660009081526008602052604081206003810180549192611d7283612709565b9091555050600581018054906000611d898361259f565b90915550508054601410611d9e576000611dac565b8054611dac90601490612739565b815560018201546040516001600160a01b039091169084907f13b88e6866f0156d706fecfa22b678de5fc2b749c1d2307f6f47eb541385f1ec90600090a3600182015481546040519081526001600160a01b03909116907f79c012a0cfae660e09134956bc432c8497ec80e86a3a108d130e8b3fca52b3ad9060200160405180910390a2505b5080611e3d8161259f565b915050611cd2565b611e4d611f4d565b6001600160a01b038116611e7757604051631e4fbdf760e01b815260006004820152602401610812565b6108d181611f7a565b600260005403611ea357604051633ee5aeb560e01b815260040160405180910390fd5b6002600055565b6040516001600160a01b03838116602483015260448201839052611f0991859182169063a9059cbb906064015b604051602081830303815290604052915060e01b6020820180516001600160e01b038381831617835250505050611fcc565b505050565b6040516001600160a01b038481166024830152838116604483015260648201839052611f479186918216906323b872dd90608401611ed7565b50505050565b6001546001600160a01b03163314610d475760405163118cdaa760e01b8152336004820152602401610812565b600180546001600160a01b038381166001600160a01b0319831681179093556040519116919082907f8be0079c531659141344cd1fd0a4f28419497f9722a3daafe3b4186f6b6457e090600090a35050565b600080602060008451602086016000885af180611fef576040513d6000823e3d81fd5b50506000513d91508115612007578060011415612014565b6001600160a01b0384163b155b15611f4757604051635274afe760e01b81526001600160a01b0385166004820152602401610812565b80356001600160a01b038116811461205457600080fd5b919050565b60006020828403121561206b57600080fd5b610f028261203d565b6020808252825182820181905260009190848201906040850190845b818110156120ac57835183529284019291840191600101612090565b50909695505050505050565b600080604083850312156120cb57600080fd5b6120d48361203d565b946020939093013593505050565b6000602082840312156120f457600080fd5b5035919050565b6000815180845260005b8181101561212157602081850181015186830182015201612105565b506000602082860101526020601f19601f83011685010191505092915050565b60006101008a835280602084015261215b8184018b6120fb565b9050828103604084015261216f818a6120fb565b6001600160a01b039890981660608401525050608081019490945260a084019290925260c0830152151560e0909101529392505050565b600080604083850312156121b957600080fd5b50508035926020909101359150565b60006101408c835260018060a01b03808d166020850152808c166040850152508960608401528860808401528760a08401528660c084015285151560e084015284151561010084015280610120840152612224818401856120fb565b9d9c50505050505050505050505050565b634e487b7160e01b600052604160045260246000fd5b600082601f83011261225c57600080fd5b813567ffffffffffffffff8082111561227757612277612235565b604051601f8301601f19908116603f0116810190828211818310171561229f5761229f612235565b816040528381528660208588010111156122b857600080fd5b836020870160208301376000602085830101528094505050505092915050565b6000806000606084860312156122ed57600080fd5b6122f68461203d565b925060208401359150604084013567ffffffffffffffff81111561231957600080fd5b6123258682870161224b565b9150509250925092565b6000806000806080858703121561234557600080fd5b843593506020850135925060408501359150606085013567ffffffffffffffff81111561237157600080fd5b61237d8782880161224b565b91505092959194509250565b6000806000806080858703121561239f57600080fd5b843567ffffffffffffffff808211156123b757600080fd5b6123c38883890161224b565b955060208701359150808211156123d957600080fd5b506123e68782880161224b565b949794965050505060408301359260600135919050565b8781526001600160a01b03878116602083015286166040820152606081018590526080810184905260e060a0820181905260009061243d908301856120fb565b905082151560c083015298975050505050505050565b60006101208b83526020818185015261246e8285018d6120fb565b91508382036040850152612482828c6120fb565b6001600160a01b038b81166060870152608086018b905260a086018a905260c0860189905287151560e087015285820361010087015286518083528388019450909183019060005b818110156124e85785518416835294840194918401916001016124ca565b50909f9e505050505050505050505050505050565b600181811c9082168061251157607f821691505b60208210810361253157634e487b7160e01b600052602260045260246000fd5b50919050565b634e487b7160e01b600052601160045260246000fd5b808202811582820484141761256457612564612537565b92915050565b60008261258757634e487b7160e01b600052601260045260246000fd5b500490565b8082018082111561256457612564612537565b6000600182016125b1576125b1612537565b5060010190565b601f821115611f0957600081815260208120601f850160051c810160208610156125df5750805b601f850160051c820191505b818110156125fe578281556001016125eb565b505050505050565b815167ffffffffffffffff81111561262057612620612235565b6126348161262e84546124fd565b846125b8565b602080601f83116001811461266957600084156126515750858301515b600019600386901b1c1916600185901b1785556125fe565b600085815260208120601f198616915b8281101561269857888601518255948401946001909101908401612679565b50858210156126b65787850151600019600388901b60f8161c191681555b5050505050600190811b01905550565b8281526040602082015260006126df60408301846120fb565b949350505050565b6040815260006126fa60408301856120fb565b90508260208301529392505050565b60008161271857612718612537565b506000190190565b60006020828403121561273257600080fd5b5051919050565b818103818111156125645761256461253756fea2646970667358221220f9b325ecdca1b6a770ea94c77d8e47433c43410d097f8c4fede72ad2123f415264736f6c63430008140033","opcodes":"PUSH1 0x80 PUSH1 0x40 MSTORE CALLVALUE DUP1 ISZERO PUSH3 0x11 JUMPI PUSH1 0x0 DUP1 REVERT JUMPDEST POP PUSH1 0x40 MLOAD PUSH3 0x2940 CODESIZE SUB DUP1 PUSH3 0x2940 DUP4 CODECOPY DUP2 ADD PUSH1 0x40 DUP2 SWAP1 MSTORE PUSH3 0x34 SWAP2 PUSH3 0x13E JUMP JUMPDEST PUSH1 0x1 PUSH1 0x0 SSTORE CALLER DUP1 PUSH3 0x60 JUMPI PUSH1 0x40 MLOAD PUSH4 0x1E4FBDF7 PUSH1 0xE0 SHL DUP2 MSTORE PUSH1 0x0 PUSH1 0x4 DUP3 ADD MSTORE PUSH1 0x24 ADD PUSH1 0x40 MLOAD DUP1 SWAP2 SUB SWAP1 REVERT JUMPDEST PUSH3 0x6B DUP2 PUSH3 0xCF JUMP JUMPDEST POP PUSH1 0xC DUP1 SLOAD PUSH1 0x1 PUSH1 0x1 PUSH1 0xA0 SHL SUB NOT SWAP1 DUP2 AND PUSH1 0x1 PUSH1 0x1 PUSH1 0xA0 SHL SUB SWAP8 DUP9 AND OR SWAP1 SWAP2 SSTORE PUSH1 0xD DUP1 SLOAD DUP3 AND SWAP6 DUP8 AND SWAP6 SWAP1 SWAP6 OR SWAP1 SWAP5 SSTORE PUSH1 0xE DUP1 SLOAD DUP6 AND SWAP4 DUP7 AND SWAP4 SWAP1 SWAP4 OR SWAP1 SWAP3 SSTORE PUSH1 0xF DUP1 SLOAD DUP5 AND SWAP2 DUP6 AND SWAP2 SWAP1 SWAP2 OR SWAP1 SSTORE PUSH1 0x10 DUP1 SLOAD SWAP1 SWAP3 AND SWAP3 AND SWAP2 SWAP1 SWAP2 OR SWAP1 SSTORE PUSH3 0x1AE JUMP JUMPDEST PUSH1 0x1 DUP1 SLOAD PUSH1 0x1 PUSH1 0x1 PUSH1 0xA0 SHL SUB DUP4 DUP2 AND PUSH1 0x1 PUSH1 0x1 PUSH1 0xA0 SHL SUB NOT DUP4 AND DUP2 OR SWAP1 SWAP4 SSTORE PUSH1 0x40 MLOAD SWAP2 AND SWAP2 SWAP1 DUP3 SWAP1 PUSH32 0x8BE0079C531659141344CD1FD0A4F28419497F9722A3DAAFE3B4186F6B6457E0 SWAP1 PUSH1 0x0 SWAP1 LOG3 POP POP JUMP JUMPDEST DUP1 MLOAD PUSH1 0x1 PUSH1 0x1 PUSH1 0xA0 SHL SUB DUP2 AND DUP2 EQ PUSH3 0x139 JUMPI PUSH1 0x0 DUP1 REVERT JUMPDEST SWAP2 SWAP1 POP JUMP JUMPDEST PUSH1 0x0 DUP1 PUSH1 0x0 DUP1 PUSH1 0x0 PUSH1 0xA0 DUP7 DUP9 SUB SLT ISZERO PUSH3 0x157 JUMPI PUSH1 0x0 DUP1 REVERT JUMPDEST PUSH3 0x162 DUP7 PUSH3 0x121 JUMP JUMPDEST SWAP5 POP PUSH3 0x172 PUSH1 0x20 DUP8 ADD PUSH3 0x121 JUMP JUMPDEST SWAP4 POP PUSH3 0x182 PUSH1 0x40 DUP8 ADD PUSH3 0x121 JUMP JUMPDEST SWAP3 POP PUSH3 0x192 PUSH1 0x60 DUP8 ADD PUSH3 0x121 JUMP JUMPDEST SWAP2 POP PUSH3 0x1A2 PUSH1 0x80 DUP8 ADD PUSH3 0x121 JUMP JUMPDEST SWAP1 POP SWAP3 SWAP6 POP SWAP3 SWAP6 SWAP1 SWAP4 POP JUMP JUMPDEST PUSH2 0x2782 DUP1 PUSH3 0x1BE PUSH1 0x0 CODECOPY PUSH1 0x0 RETURN INVALID PUSH1 0x80 PUSH1 0x40 MSTORE CALLVALUE DUP1 ISZERO PUSH2 0x10 JUMPI PUSH1 0x0 DUP1 REVERT JUMPDEST POP PUSH1 0x4 CALLDATASIZE LT PUSH2 0x21C JUMPI PUSH1 0x0 CALLDATALOAD PUSH1 0xE0 SHR DUP1 PUSH4 0x96A04866 GT PUSH2 0x125 JUMPI DUP1 PUSH4 0xB828F1BA GT PUSH2 0xAD JUMPI DUP1 PUSH4 0xD8BAD5BD GT PUSH2 0x7C JUMPI DUP1 PUSH4 0xD8BAD5BD EQ PUSH2 0x56F JUMPI DUP1 PUSH4 0xDB2E21BC EQ PUSH2 0x582 JUMPI DUP1 PUSH4 0xE1EC3C68 EQ PUSH2 0x58A JUMPI DUP1 PUSH4 0xE5B1EA58 EQ PUSH2 0x59D JUMPI DUP1 PUSH4 0xF2FDE38B EQ PUSH2 0x5A5 JUMPI PUSH1 0x0 DUP1 REVERT JUMPDEST DUP1 PUSH4 0xB828F1BA EQ PUSH2 0x520 JUMPI DUP1 PUSH4 0xBDEAB9F1 EQ PUSH2 0x528 JUMPI DUP1 PUSH4 0xBE22F546 EQ PUSH2 0x550 JUMPI DUP1 PUSH4 0xCEBA1794 EQ PUSH2 0x563 JUMPI PUSH1 0x0 DUP1 REVERT JUMPDEST DUP1 PUSH4 0x9A3ED70B GT PUSH2 0xF4 JUMPI DUP1 PUSH4 0x9A3ED70B EQ PUSH2 0x4AE JUMPI DUP1 PUSH4 0xA3C6ABA2 EQ PUSH2 0x4C1 JUMPI DUP1 PUSH4 0xA98AD46C EQ PUSH2 0x4D4 JUMPI DUP1 PUSH4 0xAB7B1C89 EQ PUSH2 0x4E7 JUMPI DUP1 PUSH4 0xB4EA0D5F EQ PUSH2 0x4FA JUMPI PUSH1 0x0 DUP1 REVERT JUMPDEST DUP1 PUSH4 0x96A04866 EQ PUSH2 0x46A JUMPI DUP1 PUSH4 0x96FA212F EQ PUSH2 0x47D JUMPI DUP1 PUSH4 0x9816AF58 EQ PUSH2 0x488 JUMPI DUP1 PUSH4 0x99CF7C92 EQ PUSH2 0x49B JUMPI PUSH1 0x0 DUP1 REVERT JUMPDEST DUP1 PUSH4 0x45171F26 GT PUSH2 0x1A8 JUMPI DUP1 PUSH4 0x73E437E2 GT PUSH2 0x177 JUMPI DUP1 PUSH4 0x73E437E2 EQ PUSH2 0x418 JUMPI DUP1 PUSH4 0x7AC8F5A0 EQ PUSH2 0x420 JUMPI DUP1 PUSH4 0x846B909A EQ PUSH2 0x433 JUMPI DUP1 PUSH4 0x84733294 EQ PUSH2 0x446 JUMPI DUP1 PUSH4 0x8DA5CB5B EQ PUSH2 0x459 JUMPI PUSH1 0x0 DUP1 REVERT JUMPDEST DUP1 PUSH4 0x45171F26 EQ PUSH2 0x389 JUMPI DUP1 PUSH4 0x504006CA EQ PUSH2 0x3D4 JUMPI DUP1 PUSH4 0x5E219D86 EQ PUSH2 0x3FD JUMPI DUP1 PUSH4 0x715018A6 EQ PUSH2 0x410 JUMPI PUSH1 0x0 DUP1 REVERT JUMPDEST DUP1 PUSH4 0x1F46AA86 GT PUSH2 0x1EF JUMPI DUP1 PUSH4 0x1F46AA86 EQ PUSH2 0x31F JUMPI DUP1 PUSH4 0x30FC43ED EQ PUSH2 0x346 JUMPI DUP1 PUSH4 0x34855D14 EQ PUSH2 0x35B JUMPI DUP1 PUSH4 0x3AD0D08F EQ PUSH2 0x363 JUMPI DUP1 PUSH4 0x42F6FB29 EQ PUSH2 0x376 JUMPI PUSH1 0x0 DUP1 REVERT JUMPDEST DUP1 PUSH4 0x2BF321F EQ PUSH2 0x221 JUMPI DUP1 PUSH4 0x79BAFE3 EQ PUSH2 0x24A JUMPI DUP1 PUSH4 0x1064AA55 EQ PUSH2 0x2D3 JUMPI DUP1 PUSH4 0x11EAC855 EQ PUSH2 0x2F4 JUMPI JUMPDEST PUSH1 0x0 DUP1 REVERT JUMPDEST PUSH2 0x234 PUSH2 0x22F CALLDATASIZE PUSH1 0x4 PUSH2 0x2059 JUMP JUMPDEST PUSH2 0x5B8 JUMP JUMPDEST PUSH1 0x40 MLOAD PUSH2 0x241 SWAP2 SWAP1 PUSH2 0x2074 JUMP JUMPDEST PUSH1 0x40 MLOAD DUP1 SWAP2 SUB SWAP1 RETURN JUMPDEST PUSH2 0x29E PUSH2 0x258 CALLDATASIZE PUSH1 0x4 PUSH2 0x2059 JUMP JUMPDEST PUSH1 0x1 PUSH1 0x1 PUSH1 0xA0 SHL SUB AND PUSH1 0x0 SWAP1 DUP2 MSTORE PUSH1 0x8 PUSH1 0x20 MSTORE PUSH1 0x40 SWAP1 KECCAK256 DUP1 SLOAD PUSH1 0x1 DUP3 ADD SLOAD PUSH1 0x2 DUP4 ADD SLOAD PUSH1 0x3 DUP5 ADD SLOAD PUSH1 0x4 DUP6 ADD SLOAD PUSH1 0x5 DUP7 ADD SLOAD PUSH1 0x6 SWAP1 SWAP7 ADD SLOAD SWAP5 SWAP7 SWAP4 SWAP6 SWAP3 SWAP5 SWAP2 SWAP4 SWAP1 SWAP3 SWAP2 SWAP1 JUMP JUMPDEST PUSH1 0x40 DUP1 MLOAD SWAP8 DUP9 MSTORE PUSH1 0x20 DUP9 ADD SWAP7 SWAP1 SWAP7 MSTORE SWAP5 DUP7 ADD SWAP4 SWAP1 SWAP4 MSTORE PUSH1 0x60 DUP6 ADD SWAP2 SWAP1 SWAP2 MSTORE PUSH1 0x80 DUP5 ADD MSTORE PUSH1 0xA0 DUP4 ADD MSTORE PUSH1 0xC0 DUP3 ADD MSTORE PUSH1 0xE0 ADD PUSH2 0x241 JUMP JUMPDEST PUSH2 0x2E6 PUSH2 0x2E1 CALLDATASIZE PUSH1 0x4 PUSH2 0x20B8 JUMP JUMPDEST PUSH2 0x624 JUMP JUMPDEST PUSH1 0x40 MLOAD SWAP1 DUP2 MSTORE PUSH1 0x20 ADD PUSH2 0x241 JUMP JUMPDEST PUSH1 0xD SLOAD PUSH2 0x307 SWAP1 PUSH1 0x1 PUSH1 0x1 PUSH1 0xA0 SHL SUB AND DUP2 JUMP JUMPDEST PUSH1 0x40 MLOAD PUSH1 0x1 PUSH1 0x1 PUSH1 0xA0 SHL SUB SWAP1 SWAP2 AND DUP2 MSTORE PUSH1 0x20 ADD PUSH2 0x241 JUMP JUMPDEST PUSH2 0x332 PUSH2 0x32D CALLDATASIZE PUSH1 0x4 PUSH2 0x20E2 JUMP JUMPDEST PUSH2 0x655 JUMP JUMPDEST PUSH1 0x40 MLOAD PUSH2 0x241 SWAP9 SWAP8 SWAP7 SWAP6 SWAP5 SWAP4 SWAP3 SWAP2 SWAP1 PUSH2 0x2141 JUMP JUMPDEST PUSH2 0x359 PUSH2 0x354 CALLDATASIZE PUSH1 0x4 PUSH2 0x20E2 JUMP JUMPDEST PUSH2 0x7B4 JUMP JUMPDEST STOP JUMPDEST PUSH2 0x2E6 PUSH1 0xF DUP2 JUMP JUMPDEST PUSH2 0x359 PUSH2 0x371 CALLDATASIZE PUSH1 0x4 PUSH2 0x21A6 JUMP JUMPDEST PUSH2 0x8D4 JUMP JUMPDEST PUSH1 0xF SLOAD PUSH2 0x307 SWAP1 PUSH1 0x1 PUSH1 0x1 PUSH1 0xA0 SHL SUB AND DUP2 JUMP JUMPDEST PUSH2 0x29E PUSH2 0x397 CALLDATASIZE PUSH1 0x4 PUSH2 0x2059 JUMP JUMPDEST PUSH1 0x8 PUSH1 0x20 MSTORE PUSH1 0x0 SWAP1 DUP2 MSTORE PUSH1 0x40 SWAP1 KECCAK256 DUP1 SLOAD PUSH1 0x1 DUP3 ADD SLOAD PUSH1 0x2 DUP4 ADD SLOAD PUSH1 0x3 DUP5 ADD SLOAD PUSH1 0x4 DUP6 ADD SLOAD PUSH1 0x5 DUP7 ADD SLOAD PUSH1 0x6 SWAP1 SWAP7 ADD SLOAD SWAP5 SWAP6 SWAP4 SWAP5 SWAP3 SWAP4 SWAP2 SWAP3 SWAP1 SWAP2 SWAP1 DUP8 JUMP JUMPDEST PUSH2 0x3E7 PUSH2 0x3E2 CALLDATASIZE PUSH1 0x4 PUSH2 0x20E2 JUMP JUMPDEST PUSH2 0xB1E JUMP JUMPDEST PUSH1 0x40 MLOAD PUSH2 0x241 SWAP11 SWAP10 SWAP9 SWAP8 SWAP7 SWAP6 SWAP5 SWAP4 SWAP3 SWAP2 SWAP1 PUSH2 0x21C8 JUMP JUMPDEST PUSH2 0x359 PUSH2 0x40B CALLDATASIZE PUSH1 0x4 PUSH2 0x20E2 JUMP JUMPDEST PUSH2 0xC41 JUMP JUMPDEST PUSH2 0x359 PUSH2 0xD35 JUMP JUMPDEST PUSH2 0x2E6 PUSH1 0xA DUP2 JUMP JUMPDEST PUSH2 0x2E6 PUSH2 0x42E CALLDATASIZE PUSH1 0x4 PUSH2 0x22D8 JUMP JUMPDEST PUSH2 0xD49 JUMP JUMPDEST PUSH2 0x359 PUSH2 0x441 CALLDATASIZE PUSH1 0x4 PUSH2 0x20E2 JUMP JUMPDEST PUSH2 0xF09 JUMP JUMPDEST PUSH2 0x2E6 PUSH2 0x454 CALLDATASIZE PUSH1 0x4 PUSH2 0x232F JUMP JUMPDEST PUSH2 0x10E1 JUMP JUMPDEST PUSH1 0x1 SLOAD PUSH1 0x1 PUSH1 0x1 PUSH1 0xA0 SHL SUB AND PUSH2 0x307 JUMP JUMPDEST PUSH2 0x2E6 PUSH2 0x478 CALLDATASIZE PUSH1 0x4 PUSH2 0x2389 JUMP JUMPDEST PUSH2 0x134C JUMP JUMPDEST PUSH2 0x2E6 PUSH4 0x2FAF080 DUP2 JUMP JUMPDEST PUSH2 0x234 PUSH2 0x496 CALLDATASIZE PUSH1 0x4 PUSH2 0x2059 JUMP JUMPDEST PUSH2 0x14DC JUMP JUMPDEST PUSH2 0x234 PUSH2 0x4A9 CALLDATASIZE PUSH1 0x4 PUSH2 0x2059 JUMP JUMPDEST PUSH2 0x1546 JUMP JUMPDEST PUSH1 0x10 SLOAD PUSH2 0x307 SWAP1 PUSH1 0x1 PUSH1 0x1 PUSH1 0xA0 SHL SUB AND DUP2 JUMP JUMPDEST PUSH2 0x2E6 PUSH2 0x4CF CALLDATASIZE PUSH1 0x4 PUSH2 0x20B8 JUMP JUMPDEST PUSH2 0x15B0 JUMP JUMPDEST PUSH1 0xC SLOAD PUSH2 0x307 SWAP1 PUSH1 0x1 PUSH1 0x1 PUSH1 0xA0 SHL SUB AND DUP2 JUMP JUMPDEST PUSH2 0x359 PUSH2 0x4F5 CALLDATASIZE PUSH1 0x4 PUSH2 0x20E2 JUMP JUMPDEST PUSH2 0x15CC JUMP JUMPDEST PUSH2 0x50D PUSH2 0x508 CALLDATASIZE PUSH1 0x4 PUSH2 0x20E2 JUMP JUMPDEST PUSH2 0x1841 JUMP JUMPDEST PUSH1 0x40 MLOAD PUSH2 0x241 SWAP8 SWAP7 SWAP6 SWAP5 SWAP4 SWAP3 SWAP2 SWAP1 PUSH2 0x23FD JUMP JUMPDEST PUSH2 0x2E6 PUSH1 0x14 DUP2 JUMP JUMPDEST PUSH2 0x53B PUSH2 0x536 CALLDATASIZE PUSH1 0x4 PUSH2 0x20E2 JUMP JUMPDEST PUSH2 0x1917 JUMP JUMPDEST PUSH1 0x40 MLOAD PUSH2 0x241 SWAP10 SWAP9 SWAP8 SWAP7 SWAP6 SWAP5 SWAP4 SWAP3 SWAP2 SWAP1 PUSH2 0x2453 JUMP JUMPDEST PUSH1 0xE SLOAD PUSH2 0x307 SWAP1 PUSH1 0x1 PUSH1 0x1 PUSH1 0xA0 SHL SUB AND DUP2 JUMP JUMPDEST PUSH2 0x2E6 PUSH5 0x12A05F200 DUP2 JUMP JUMPDEST PUSH2 0x2E6 PUSH2 0x57D CALLDATASIZE PUSH1 0x4 PUSH2 0x20B8 JUMP JUMPDEST PUSH2 0x1B1B JUMP JUMPDEST PUSH2 0x359 PUSH2 0x1B37 JUMP JUMPDEST PUSH2 0x3E7 PUSH2 0x598 CALLDATASIZE PUSH1 0x4 PUSH2 0x20E2 JUMP JUMPDEST PUSH2 0x1BDC JUMP JUMPDEST PUSH2 0x359 PUSH2 0x1CCE JUMP JUMPDEST PUSH2 0x359 PUSH2 0x5B3 CALLDATASIZE PUSH1 0x4 PUSH2 0x2059 JUMP JUMPDEST PUSH2 0x1E45 JUMP JUMPDEST PUSH1 0x1 PUSH1 0x1 PUSH1 0xA0 SHL SUB DUP2 AND PUSH1 0x0 SWAP1 DUP2 MSTORE PUSH1 0xA PUSH1 0x20 SWAP1 DUP2 MSTORE PUSH1 0x40 SWAP2 DUP3 SWAP1 KECCAK256 DUP1 SLOAD DUP4 MLOAD DUP2 DUP5 MUL DUP2 ADD DUP5 ADD SWAP1 SWAP5 MSTORE DUP1 DUP5 MSTORE PUSH1 0x60 SWAP4 SWAP3 DUP4 ADD DUP3 DUP3 DUP1 ISZERO PUSH2 0x618 JUMPI PUSH1 0x20 MUL DUP3 ADD SWAP2 SWAP1 PUSH1 0x0 MSTORE PUSH1 0x20 PUSH1 0x0 KECCAK256 SWAP1 JUMPDEST DUP2 SLOAD DUP2 MSTORE PUSH1 0x20 ADD SWAP1 PUSH1 0x1 ADD SWAP1 DUP1 DUP4 GT PUSH2 0x604 JUMPI JUMPDEST POP POP POP POP POP SWAP1 POP SWAP2 SWAP1 POP JUMP JUMPDEST PUSH1 0x9 PUSH1 0x20 MSTORE DUP2 PUSH1 0x0 MSTORE PUSH1 0x40 PUSH1 0x0 KECCAK256 DUP2 DUP2 SLOAD DUP2 LT PUSH2 0x640 JUMPI PUSH1 0x0 DUP1 REVERT JUMPDEST SWAP1 PUSH1 0x0 MSTORE PUSH1 0x20 PUSH1 0x0 KECCAK256 ADD PUSH1 0x0 SWAP2 POP SWAP2 POP POP SLOAD DUP2 JUMP JUMPDEST PUSH1 0x5 PUSH1 0x20 MSTORE PUSH1 0x0 SWAP1 DUP2 MSTORE PUSH1 0x40 SWAP1 KECCAK256 DUP1 SLOAD PUSH1 0x1 DUP3 ADD DUP1 SLOAD SWAP2 SWAP3 SWAP2 PUSH2 0x677 SWAP1 PUSH2 0x24FD JUMP JUMPDEST DUP1 PUSH1 0x1F ADD PUSH1 0x20 DUP1 SWAP2 DIV MUL PUSH1 0x20 ADD PUSH1 0x40 MLOAD SWAP1 DUP2 ADD PUSH1 0x40 MSTORE DUP1 SWAP3 SWAP2 SWAP1 DUP2 DUP2 MSTORE PUSH1 0x20 ADD DUP3 DUP1 SLOAD PUSH2 0x6A3 SWAP1 PUSH2 0x24FD JUMP JUMPDEST DUP1 ISZERO PUSH2 0x6F0 JUMPI DUP1 PUSH1 0x1F LT PUSH2 0x6C5 JUMPI PUSH2 0x100 DUP1 DUP4 SLOAD DIV MUL DUP4 MSTORE SWAP2 PUSH1 0x20 ADD SWAP2 PUSH2 0x6F0 JUMP JUMPDEST DUP3 ADD SWAP2 SWAP1 PUSH1 0x0 MSTORE PUSH1 0x20 PUSH1 0x0 KECCAK256 SWAP1 JUMPDEST DUP2 SLOAD DUP2 MSTORE SWAP1 PUSH1 0x1 ADD SWAP1 PUSH1 0x20 ADD DUP1 DUP4 GT PUSH2 0x6D3 JUMPI DUP3 SWAP1 SUB PUSH1 0x1F AND DUP3 ADD SWAP2 JUMPDEST POP POP POP POP POP SWAP1 DUP1 PUSH1 0x2 ADD DUP1 SLOAD PUSH2 0x705 SWAP1 PUSH2 0x24FD JUMP JUMPDEST DUP1 PUSH1 0x1F ADD PUSH1 0x20 DUP1 SWAP2 DIV MUL PUSH1 0x20 ADD PUSH1 0x40 MLOAD SWAP1 DUP2 ADD PUSH1 0x40 MSTORE DUP1 SWAP3 SWAP2 SWAP1 DUP2 DUP2 MSTORE PUSH1 0x20 ADD DUP3 DUP1 SLOAD PUSH2 0x731 SWAP1 PUSH2 0x24FD JUMP JUMPDEST DUP1 ISZERO PUSH2 0x77E JUMPI DUP1 PUSH1 0x1F LT PUSH2 0x753 JUMPI PUSH2 0x100 DUP1 DUP4 SLOAD DIV MUL DUP4 MSTORE SWAP2 PUSH1 0x20 ADD SWAP2 PUSH2 0x77E JUMP JUMPDEST DUP3 ADD SWAP2 SWAP1 PUSH1 0x0 MSTORE PUSH1 0x20 PUSH1 0x0 KECCAK256 SWAP1 JUMPDEST DUP2 SLOAD DUP2 MSTORE SWAP1 PUSH1 0x1 ADD SWAP1 PUSH1 0x20 ADD DUP1 DUP4 GT PUSH2 0x761 JUMPI DUP3 SWAP1 SUB PUSH1 0x1F AND DUP3 ADD SWAP2 JUMPDEST POP POP POP PUSH1 0x3 DUP5 ADD SLOAD PUSH1 0x4 DUP6 ADD SLOAD PUSH1 0x5 DUP7 ADD SLOAD PUSH1 0x6 DUP8 ADD SLOAD PUSH1 0x7 SWAP1 SWAP8 ADD SLOAD SWAP6 SWAP7 PUSH1 0x1 PUSH1 0x1 PUSH1 0xA0 SHL SUB SWAP1 SWAP4 AND SWAP6 SWAP2 SWAP5 POP SWAP3 POP PUSH1 0xFF AND DUP9 JUMP JUMPDEST PUSH2 0x7BC PUSH2 0x1E80 JUMP JUMPDEST PUSH1 0x0 DUP2 DUP2 MSTORE PUSH1 0x5 PUSH1 0x20 MSTORE PUSH1 0x40 SWAP1 KECCAK256 PUSH1 0x7 DUP2 ADD SLOAD PUSH1 0xFF AND ISZERO PUSH2 0x81B JUMPI PUSH1 0x40 MLOAD PUSH3 0x461BCD PUSH1 0xE5 SHL DUP2 MSTORE PUSH1 0x20 PUSH1 0x4 DUP3 ADD MSTORE PUSH1 0x14 PUSH1 0x24 DUP3 ADD MSTORE PUSH20 0x506F6F6C206973207374696C6C20616374697665 PUSH1 0x60 SHL PUSH1 0x44 DUP3 ADD MSTORE PUSH1 0x64 ADD JUMPDEST PUSH1 0x40 MLOAD DUP1 SWAP2 SUB SWAP1 REVERT JUMPDEST CALLER PUSH1 0x0 SWAP1 DUP2 MSTORE PUSH1 0x8 DUP3 ADD PUSH1 0x20 MSTORE PUSH1 0x40 SWAP1 KECCAK256 SLOAD PUSH2 0x872 JUMPI PUSH1 0x40 MLOAD PUSH3 0x461BCD PUSH1 0xE5 SHL DUP2 MSTORE PUSH1 0x20 PUSH1 0x4 DUP3 ADD MSTORE PUSH1 0x16 PUSH1 0x24 DUP3 ADD MSTORE PUSH22 0x139BC818DBDB9D1C9A589D5D1A5BDB9CC8199BDD5B99 PUSH1 0x52 SHL PUSH1 0x44 DUP3 ADD MSTORE PUSH1 0x64 ADD PUSH2 0x812 JUMP JUMPDEST CALLER PUSH1 0x0 SWAP1 DUP2 MSTORE PUSH1 0x8 DUP3 ADD PUSH1 0x20 MSTORE PUSH1 0x40 DUP2 KECCAK256 DUP1 SLOAD SWAP1 DUP3 SWAP1 SSTORE PUSH1 0x5 DUP4 ADD SLOAD PUSH1 0x4 DUP5 ADD SLOAD SWAP2 SWAP3 SWAP2 PUSH2 0x8A0 SWAP1 DUP5 PUSH2 0x254D JUMP JUMPDEST PUSH2 0x8AA SWAP2 SWAP1 PUSH2 0x256A JUMP JUMPDEST PUSH1 0xC SLOAD SWAP1 SWAP2 POP PUSH2 0x8C4 SWAP1 PUSH1 0x1 PUSH1 0x1 PUSH1 0xA0 SHL SUB AND CALLER DUP4 PUSH2 0x1EAA JUMP JUMPDEST POP POP POP PUSH2 0x8D1 PUSH1 0x1 PUSH1 0x0 SSTORE JUMP JUMPDEST POP JUMP JUMPDEST PUSH2 0x8DC PUSH2 0x1E80 JUMP JUMPDEST PUSH1 0x0 DUP3 DUP2 MSTORE PUSH1 0x5 PUSH1 0x20 MSTORE PUSH1 0x40 SWAP1 KECCAK256 PUSH1 0x7 DUP2 ADD SLOAD PUSH1 0xFF AND PUSH2 0x933 JUMPI PUSH1 0x40 MLOAD PUSH3 0x461BCD PUSH1 0xE5 SHL DUP2 MSTORE PUSH1 0x20 PUSH1 0x4 DUP3 ADD MSTORE PUSH1 0x12 PUSH1 0x24 DUP3 ADD MSTORE PUSH18 0x506F6F6C206973206E6F7420616374697665 PUSH1 0x70 SHL PUSH1 0x44 DUP3 ADD MSTORE PUSH1 0x64 ADD PUSH2 0x812 JUMP JUMPDEST DUP1 PUSH1 0x6 ADD SLOAD TIMESTAMP LT PUSH2 0x986 JUMPI PUSH1 0x40 MLOAD PUSH3 0x461BCD PUSH1 0xE5 SHL DUP2 MSTORE PUSH1 0x20 PUSH1 0x4 DUP3 ADD MSTORE PUSH1 0x18 PUSH1 0x24 DUP3 ADD MSTORE PUSH32 0x506F6F6C20646561646C696E6520686173207061737365640000000000000000 PUSH1 0x44 DUP3 ADD MSTORE PUSH1 0x64 ADD PUSH2 0x812 JUMP JUMPDEST PUSH1 0x0 DUP3 GT PUSH2 0x9E9 JUMPI PUSH1 0x40 MLOAD PUSH3 0x461BCD PUSH1 0xE5 SHL DUP2 MSTORE PUSH1 0x20 PUSH1 0x4 DUP3 ADD MSTORE PUSH1 0x2A PUSH1 0x24 DUP3 ADD MSTORE PUSH32 0x436F6E747269627574696F6E20616D6F756E74206D7573742062652067726561 PUSH1 0x44 DUP3 ADD MSTORE PUSH10 0x746572207468616E203 PUSH1 0xB4 SHL PUSH1 0x64 DUP3 ADD MSTORE PUSH1 0x84 ADD PUSH2 0x812 JUMP JUMPDEST PUSH1 0xC SLOAD PUSH2 0xA01 SWAP1 PUSH1 0x1 PUSH1 0x1 PUSH1 0xA0 SHL SUB AND CALLER ADDRESS DUP6 PUSH2 0x1F0E JUMP JUMPDEST CALLER PUSH1 0x0 SWAP1 DUP2 MSTORE PUSH1 0x8 DUP3 ADD PUSH1 0x20 MSTORE PUSH1 0x40 DUP2 KECCAK256 SLOAD SWAP1 SUB PUSH2 0xA41 JUMPI PUSH1 0x9 DUP2 ADD DUP1 SLOAD PUSH1 0x1 DUP2 ADD DUP3 SSTORE PUSH1 0x0 SWAP2 DUP3 MSTORE PUSH1 0x20 SWAP1 SWAP2 KECCAK256 ADD DUP1 SLOAD PUSH1 0x1 PUSH1 0x1 PUSH1 0xA0 SHL SUB NOT AND CALLER OR SWAP1 SSTORE JUMPDEST CALLER PUSH1 0x0 SWAP1 DUP2 MSTORE PUSH1 0x8 DUP3 ADD PUSH1 0x20 MSTORE PUSH1 0x40 DUP2 KECCAK256 DUP1 SLOAD DUP5 SWAP3 SWAP1 PUSH2 0xA62 SWAP1 DUP5 SWAP1 PUSH2 0x258C JUMP JUMPDEST SWAP3 POP POP DUP2 SWAP1 SSTORE POP DUP2 DUP2 PUSH1 0x4 ADD PUSH1 0x0 DUP3 DUP3 SLOAD PUSH2 0xA7D SWAP2 SWAP1 PUSH2 0x258C JUMP JUMPDEST SWAP1 SWAP2 SSTORE POP POP PUSH1 0x40 MLOAD DUP3 DUP2 MSTORE CALLER SWAP1 DUP5 SWAP1 PUSH32 0xA4A91237423E0A1766A761C7CB029311D8B95D6B1B81DB1B949A70C98B4E08E SWAP1 PUSH1 0x20 ADD PUSH1 0x40 MLOAD DUP1 SWAP2 SUB SWAP1 LOG3 DUP1 PUSH1 0x5 ADD SLOAD DUP2 PUSH1 0x4 ADD SLOAD LT PUSH2 0xB0F JUMPI PUSH1 0x7 DUP2 ADD DUP1 SLOAD PUSH1 0xFF NOT AND SWAP1 SSTORE PUSH1 0x4 DUP2 ADD SLOAD PUSH1 0x40 MLOAD SWAP1 DUP2 MSTORE DUP4 SWAP1 PUSH32 0x2BD52F9253398B8AEF7698B9FE3BB703E471A3440C149637F7CCD8E962B4569C SWAP1 PUSH1 0x20 ADD PUSH1 0x40 MLOAD DUP1 SWAP2 SUB SWAP1 LOG2 JUMPDEST POP PUSH2 0xB1A PUSH1 0x1 PUSH1 0x0 SSTORE JUMP JUMPDEST POP POP JUMP JUMPDEST PUSH1 0x0 DUP2 DUP2 MSTORE PUSH1 0x6 PUSH1 0x20 DUP2 SWAP1 MSTORE PUSH1 0x40 DUP3 KECCAK256 DUP1 SLOAD PUSH1 0x1 DUP3 ADD SLOAD PUSH1 0x2 DUP4 ADD SLOAD PUSH1 0x3 DUP5 ADD SLOAD PUSH1 0x4 DUP6 ADD SLOAD PUSH1 0x5 DUP7 ADD SLOAD SWAP7 DUP7 ADD SLOAD PUSH1 0x7 DUP8 ADD SLOAD PUSH1 0x8 DUP9 ADD DUP1 SLOAD DUP12 SWAP11 DUP12 SWAP11 DUP12 SWAP11 DUP12 SWAP11 DUP12 SWAP11 DUP12 SWAP11 DUP12 SWAP11 DUP12 SWAP11 PUSH1 0x60 SWAP11 SWAP7 SWAP10 SWAP6 SWAP9 PUSH1 0x1 PUSH1 0x1 PUSH1 0xA0 SHL SUB SWAP6 DUP7 AND SWAP9 SWAP5 SWAP1 SWAP6 AND SWAP7 SWAP3 SWAP6 SWAP2 SWAP5 SWAP1 SWAP3 PUSH1 0xFF DUP1 DUP3 AND SWAP4 PUSH2 0x100 SWAP1 SWAP3 DIV AND SWAP2 DUP2 SWAP1 PUSH2 0xB9F SWAP1 PUSH2 0x24FD JUMP JUMPDEST DUP1 PUSH1 0x1F ADD PUSH1 0x20 DUP1 SWAP2 DIV MUL PUSH1 0x20 ADD PUSH1 0x40 MLOAD SWAP1 DUP2 ADD PUSH1 0x40 MSTORE DUP1 SWAP3 SWAP2 SWAP1 DUP2 DUP2 MSTORE PUSH1 0x20 ADD DUP3 DUP1 SLOAD PUSH2 0xBCB SWAP1 PUSH2 0x24FD JUMP JUMPDEST DUP1 ISZERO PUSH2 0xC18 JUMPI DUP1 PUSH1 0x1F LT PUSH2 0xBED JUMPI PUSH2 0x100 DUP1 DUP4 SLOAD DIV MUL DUP4 MSTORE SWAP2 PUSH1 0x20 ADD SWAP2 PUSH2 0xC18 JUMP JUMPDEST DUP3 ADD SWAP2 SWAP1 PUSH1 0x0 MSTORE PUSH1 0x20 PUSH1 0x0 KECCAK256 SWAP1 JUMPDEST DUP2 SLOAD DUP2 MSTORE SWAP1 PUSH1 0x1 ADD SWAP1 PUSH1 0x20 ADD DUP1 DUP4 GT PUSH2 0xBFB JUMPI DUP3 SWAP1 SUB PUSH1 0x1F AND DUP3 ADD SWAP2 JUMPDEST POP POP POP POP POP SWAP1 POP SWAP11 POP SWAP11 POP SWAP11 POP SWAP11 POP SWAP11 POP SWAP11 POP SWAP11 POP SWAP11 POP SWAP11 POP SWAP11 POP POP SWAP2 SWAP4 SWAP6 SWAP8 SWAP10 POP SWAP2 SWAP4 SWAP6 SWAP8 SWAP10 JUMP JUMPDEST PUSH2 0xC49 PUSH2 0x1E80 JUMP JUMPDEST PUSH1 0x0 DUP2 DUP2 MSTORE PUSH1 0x7 PUSH1 0x20 MSTORE PUSH1 0x40 SWAP1 KECCAK256 PUSH1 0x2 DUP2 ADD SLOAD PUSH1 0x1 PUSH1 0x1 PUSH1 0xA0 SHL SUB AND CALLER EQ PUSH2 0xCB3 JUMPI PUSH1 0x40 MLOAD PUSH3 0x461BCD PUSH1 0xE5 SHL DUP2 MSTORE PUSH1 0x20 PUSH1 0x4 DUP3 ADD MSTORE PUSH1 0x1A PUSH1 0x24 DUP3 ADD MSTORE PUSH32 0x4F6E6C7920726563697069656E742063616E2070726F63657373000000000000 PUSH1 0x44 DUP3 ADD MSTORE PUSH1 0x64 ADD PUSH2 0x812 JUMP JUMPDEST PUSH1 0x6 DUP2 ADD SLOAD PUSH1 0xFF AND ISZERO PUSH2 0xCFC JUMPI PUSH1 0x40 MLOAD PUSH3 0x461BCD PUSH1 0xE5 SHL DUP2 MSTORE PUSH1 0x20 PUSH1 0x4 DUP3 ADD MSTORE PUSH1 0x11 PUSH1 0x24 DUP3 ADD MSTORE PUSH17 0x105B1C9958591E481C1C9BD8D95CDCD959 PUSH1 0x7A SHL PUSH1 0x44 DUP3 ADD MSTORE PUSH1 0x64 ADD PUSH2 0x812 JUMP JUMPDEST PUSH1 0x6 DUP2 ADD DUP1 SLOAD PUSH1 0xFF NOT AND PUSH1 0x1 OR SWAP1 SSTORE PUSH1 0x3 DUP2 ADD SLOAD PUSH1 0xC SLOAD PUSH2 0xD2A SWAP2 PUSH1 0x1 PUSH1 0x1 PUSH1 0xA0 SHL SUB SWAP1 SWAP2 AND SWAP1 CALLER SWAP1 PUSH2 0x1EAA JUMP JUMPDEST POP PUSH2 0x8D1 PUSH1 0x1 PUSH1 0x0 SSTORE JUMP JUMPDEST PUSH2 0xD3D PUSH2 0x1F4D JUMP JUMPDEST PUSH2 0xD47 PUSH1 0x0 PUSH2 0x1F7A JUMP JUMPDEST JUMP JUMPDEST PUSH1 0x0 PUSH2 0xD53 PUSH2 0x1E80 JUMP JUMPDEST PUSH1 0x0 DUP4 GT PUSH2 0xDA3 JUMPI PUSH1 0x40 MLOAD PUSH3 0x461BCD PUSH1 0xE5 SHL DUP2 MSTORE PUSH1 0x20 PUSH1 0x4 DUP3 ADD MSTORE PUSH1 0x1D PUSH1 0x24 DUP3 ADD MSTORE PUSH32 0x416D6F756E74206D7573742062652067726561746572207468616E2030000000 PUSH1 0x44 DUP3 ADD MSTORE PUSH1 0x64 ADD PUSH2 0x812 JUMP JUMPDEST PUSH1 0x1 PUSH1 0x1 PUSH1 0xA0 SHL SUB DUP5 AND PUSH2 0xDED JUMPI PUSH1 0x40 MLOAD PUSH3 0x461BCD PUSH1 0xE5 SHL DUP2 MSTORE PUSH1 0x20 PUSH1 0x4 DUP3 ADD MSTORE PUSH1 0x11 PUSH1 0x24 DUP3 ADD MSTORE PUSH17 0x125B9D985B1A59081C9958DA5C1A595B9D PUSH1 0x7A SHL PUSH1 0x44 DUP3 ADD MSTORE PUSH1 0x64 ADD PUSH2 0x812 JUMP JUMPDEST PUSH1 0xC SLOAD PUSH2 0xE05 SWAP1 PUSH1 0x1 PUSH1 0x1 PUSH1 0xA0 SHL SUB AND CALLER ADDRESS DUP7 PUSH2 0x1F0E JUMP JUMPDEST PUSH1 0x4 DUP1 SLOAD SWAP1 PUSH1 0x0 PUSH2 0xE15 DUP4 PUSH2 0x259F JUMP JUMPDEST SWAP1 SWAP2 SSTORE POP POP PUSH1 0x4 DUP1 SLOAD PUSH1 0x0 DUP2 DUP2 MSTORE PUSH1 0x7 PUSH1 0x20 MSTORE PUSH1 0x40 SWAP1 KECCAK256 DUP2 DUP2 SSTORE PUSH1 0x1 DUP2 ADD DUP1 SLOAD CALLER PUSH1 0x1 PUSH1 0x1 PUSH1 0xA0 SHL SUB NOT SWAP2 DUP3 AND OR SWAP1 SWAP2 SSTORE PUSH1 0x2 DUP3 ADD DUP1 SLOAD SWAP1 SWAP2 AND PUSH1 0x1 PUSH1 0x1 PUSH1 0xA0 SHL SUB DUP10 AND OR SWAP1 SSTORE PUSH1 0x3 DUP2 ADD DUP7 SWAP1 SSTORE TIMESTAMP SWAP3 DUP2 ADD SWAP3 SWAP1 SWAP3 SSTORE SWAP1 PUSH1 0x5 DUP2 ADD PUSH2 0xE7A DUP6 DUP3 PUSH2 0x2606 JUMP JUMPDEST POP CALLER PUSH1 0x0 DUP2 DUP2 MSTORE PUSH1 0xB PUSH1 0x20 SWAP1 DUP2 MSTORE PUSH1 0x40 DUP1 DUP4 KECCAK256 DUP1 SLOAD PUSH1 0x1 DUP1 DUP3 ADD DUP4 SSTORE SWAP2 DUP6 MSTORE DUP4 DUP6 KECCAK256 ADD DUP8 SWAP1 SSTORE PUSH1 0x1 PUSH1 0x1 PUSH1 0xA0 SHL SUB DUP12 AND DUP1 DUP6 MSTORE DUP3 DUP6 KECCAK256 DUP1 SLOAD SWAP3 DUP4 ADD DUP2 SSTORE DUP6 MSTORE SWAP4 DUP4 SWAP1 KECCAK256 ADD DUP7 SWAP1 SSTORE MLOAD DUP9 DUP2 MSTORE SWAP2 SWAP3 SWAP2 DUP6 SWAP2 PUSH32 0xB105D8D25C7DD2595194C53DF5DF94784C462FE243D474607BD28F51F0A34EE3 SWAP2 ADD PUSH1 0x40 MLOAD DUP1 SWAP2 SUB SWAP1 LOG4 POP SWAP1 POP PUSH2 0xF02 PUSH1 0x1 PUSH1 0x0 SSTORE JUMP JUMPDEST SWAP4 SWAP3 POP POP POP JUMP JUMPDEST PUSH2 0xF11 PUSH2 0x1E80 JUMP JUMPDEST PUSH1 0x0 DUP2 DUP2 MSTORE PUSH1 0x6 PUSH1 0x20 MSTORE PUSH1 0x40 SWAP1 KECCAK256 PUSH1 0x2 DUP2 ADD SLOAD PUSH1 0x1 PUSH1 0x1 PUSH1 0xA0 SHL SUB AND ISZERO PUSH2 0xF70 JUMPI PUSH1 0x40 MLOAD PUSH3 0x461BCD PUSH1 0xE5 SHL DUP2 MSTORE PUSH1 0x20 PUSH1 0x4 DUP3 ADD MSTORE PUSH1 0x13 PUSH1 0x24 DUP3 ADD MSTORE PUSH19 0x131BD85B88185B1C9958591E48199D5B991959 PUSH1 0x6A SHL PUSH1 0x44 DUP3 ADD MSTORE PUSH1 0x64 ADD PUSH2 0x812 JUMP JUMPDEST PUSH1 0x1 DUP2 ADD SLOAD CALLER PUSH1 0x1 PUSH1 0x1 PUSH1 0xA0 SHL SUB SWAP1 SWAP2 AND SUB PUSH2 0xFCE JUMPI PUSH1 0x40 MLOAD PUSH3 0x461BCD PUSH1 0xE5 SHL DUP2 MSTORE PUSH1 0x20 PUSH1 0x4 DUP3 ADD MSTORE PUSH1 0x19 PUSH1 0x24 DUP3 ADD MSTORE PUSH32 0x43616E6E6F742066756E6420796F7572206F776E206C6F616E00000000000000 PUSH1 0x44 DUP3 ADD MSTORE PUSH1 0x64 ADD PUSH2 0x812 JUMP JUMPDEST PUSH1 0x0 PUSH1 0x64 DUP3 PUSH1 0x4 ADD SLOAD DUP4 PUSH1 0x3 ADD SLOAD PUSH2 0xFE6 SWAP2 SWAP1 PUSH2 0x254D JUMP JUMPDEST PUSH2 0xFF0 SWAP2 SWAP1 PUSH2 0x256A JUMP JUMPDEST DUP3 PUSH1 0x3 ADD SLOAD PUSH2 0xFFF SWAP2 SWAP1 PUSH2 0x258C JUMP JUMPDEST PUSH1 0x3 DUP4 ADD SLOAD PUSH1 0xC SLOAD SWAP2 SWAP3 POP PUSH2 0x1021 SWAP2 PUSH1 0x1 PUSH1 0x1 PUSH1 0xA0 SHL SUB AND SWAP1 CALLER SWAP1 ADDRESS SWAP1 PUSH2 0x1F0E JUMP JUMPDEST PUSH1 0x1 DUP3 ADD SLOAD PUSH1 0x3 DUP4 ADD SLOAD PUSH1 0xC SLOAD PUSH2 0x1046 SWAP3 PUSH1 0x1 PUSH1 0x1 PUSH1 0xA0 SHL SUB SWAP2 DUP3 AND SWAP3 SWAP2 AND SWAP1 PUSH2 0x1EAA JUMP JUMPDEST PUSH1 0x2 DUP3 ADD DUP1 SLOAD PUSH1 0x1 PUSH1 0x1 PUSH1 0xA0 SHL SUB NOT AND CALLER OR SWAP1 SSTORE TIMESTAMP PUSH1 0x6 DUP4 ADD SSTORE PUSH1 0x1 DUP3 ADD SLOAD PUSH1 0x1 PUSH1 0x1 PUSH1 0xA0 SHL SUB AND PUSH1 0x0 SWAP1 DUP2 MSTORE PUSH1 0x8 PUSH1 0x20 MSTORE PUSH1 0x40 DUP2 KECCAK256 PUSH1 0x3 DUP2 ADD DUP1 SLOAD SWAP2 SWAP3 PUSH2 0x108D DUP4 PUSH2 0x259F JUMP JUMPDEST SWAP1 SWAP2 SSTORE POP POP TIMESTAMP PUSH1 0x6 DUP3 ADD SSTORE PUSH1 0x3 DUP4 ADD SLOAD PUSH1 0x40 MLOAD SWAP1 DUP2 MSTORE CALLER SWAP1 DUP6 SWAP1 PUSH32 0xBD7EF6C6281278F6C8AC4AE9EF2F205B52425813C288DD47C377CB6B59C5076E SWAP1 PUSH1 0x20 ADD PUSH1 0x40 MLOAD DUP1 SWAP2 SUB SWAP1 LOG3 POP POP POP PUSH2 0x8D1 PUSH1 0x1 PUSH1 0x0 SSTORE JUMP JUMPDEST PUSH1 0x0 PUSH4 0x2FAF080 DUP6 LT ISZERO PUSH2 0x112E JUMPI PUSH1 0x40 MLOAD PUSH3 0x461BCD PUSH1 0xE5 SHL DUP2 MSTORE PUSH1 0x20 PUSH1 0x4 DUP3 ADD MSTORE PUSH1 0x14 PUSH1 0x24 DUP3 ADD MSTORE PUSH20 0x416D6F756E742062656C6F77206D696E696D756D PUSH1 0x60 SHL PUSH1 0x44 DUP3 ADD MSTORE PUSH1 0x64 ADD PUSH2 0x812 JUMP JUMPDEST PUSH5 0x12A05F200 DUP6 GT ISZERO PUSH2 0x117A JUMPI PUSH1 0x40 MLOAD PUSH3 0x461BCD PUSH1 0xE5 SHL DUP2 MSTORE PUSH1 0x20 PUSH1 0x4 DUP3 ADD MSTORE PUSH1 0x14 PUSH1 0x24 DUP3 ADD MSTORE PUSH20 0x416D6F756E742061626F7665206D6178696D756D PUSH1 0x60 SHL PUSH1 0x44 DUP3 ADD MSTORE PUSH1 0x64 ADD PUSH2 0x812 JUMP JUMPDEST PUSH1 0xF DUP5 GT ISZERO PUSH2 0x11C4 JUMPI PUSH1 0x40 MLOAD PUSH3 0x461BCD PUSH1 0xE5 SHL DUP2 MSTORE PUSH1 0x20 PUSH1 0x4 DUP3 ADD MSTORE PUSH1 0x16 PUSH1 0x24 DUP3 ADD MSTORE PUSH22 0x92DCE8CAE4CAE6E840E4C2E8CA40E8DEDE40D0D2CED PUSH1 0x53 SHL PUSH1 0x44 DUP3 ADD MSTORE PUSH1 0x64 ADD PUSH2 0x812 JUMP JUMPDEST TIMESTAMP DUP4 GT PUSH2 0x121F JUMPI PUSH1 0x40 MLOAD PUSH3 0x461BCD PUSH1 0xE5 SHL DUP2 MSTORE PUSH1 0x20 PUSH1 0x4 DUP3 ADD MSTORE PUSH1 0x24 DUP1 DUP3 ADD MSTORE PUSH32 0x52657061796D656E742064617465206D75737420626520696E20746865206675 PUSH1 0x44 DUP3 ADD MSTORE PUSH4 0x74757265 PUSH1 0xE0 SHL PUSH1 0x64 DUP3 ADD MSTORE PUSH1 0x84 ADD PUSH2 0x812 JUMP JUMPDEST CALLER PUSH1 0x0 SWAP1 DUP2 MSTORE PUSH1 0x8 PUSH1 0x20 MSTORE PUSH1 0x40 SWAP1 KECCAK256 DUP1 SLOAD PUSH2 0x12C GT ISZERO PUSH2 0x1278 JUMPI PUSH1 0x40 MLOAD PUSH3 0x461BCD PUSH1 0xE5 SHL DUP2 MSTORE PUSH1 0x20 PUSH1 0x4 DUP3 ADD MSTORE PUSH1 0x14 PUSH1 0x24 DUP3 ADD MSTORE PUSH20 0x4372656469742073636F726520746F6F206C6F77 PUSH1 0x60 SHL PUSH1 0x44 DUP3 ADD MSTORE PUSH1 0x64 ADD PUSH2 0x812 JUMP JUMPDEST PUSH1 0x3 DUP1 SLOAD SWAP1 PUSH1 0x0 PUSH2 0x1288 DUP4 PUSH2 0x259F JUMP JUMPDEST SWAP1 SWAP2 SSTORE POP POP PUSH1 0x3 DUP1 SLOAD PUSH1 0x0 DUP2 DUP2 MSTORE PUSH1 0x6 PUSH1 0x20 DUP2 SWAP1 MSTORE PUSH1 0x40 SWAP1 SWAP2 KECCAK256 DUP3 DUP2 SSTORE PUSH1 0x1 DUP2 ADD DUP1 SLOAD PUSH1 0x1 PUSH1 0x1 PUSH1 0xA0 SHL SUB NOT AND CALLER OR SWAP1 SSTORE SWAP3 DUP4 ADD DUP10 SWAP1 SSTORE PUSH1 0x4 DUP4 ADD DUP9 SWAP1 SSTORE PUSH1 0x5 DUP4 ADD DUP8 SWAP1 SSTORE TIMESTAMP SWAP1 DUP4 ADD SSTORE SWAP1 PUSH1 0x8 DUP2 ADD PUSH2 0x12E1 DUP7 DUP3 PUSH2 0x2606 JUMP JUMPDEST POP CALLER PUSH1 0x0 DUP2 DUP2 MSTORE PUSH1 0xA PUSH1 0x20 SWAP1 DUP2 MSTORE PUSH1 0x40 DUP1 DUP4 KECCAK256 DUP1 SLOAD PUSH1 0x1 DUP2 ADD DUP3 SSTORE SWAP1 DUP5 MSTORE SWAP2 SWAP1 SWAP3 KECCAK256 ADD DUP5 SWAP1 SSTORE MLOAD DUP4 SWAP1 PUSH32 0xFBBA0893DD1F941CB4A7BB791AED3CE1AD2A008C20EF3254B2A2CF7752B199F1 SWAP1 PUSH2 0x1339 SWAP1 DUP13 SWAP1 DUP11 SWAP1 PUSH2 0x26C6 JUMP JUMPDEST PUSH1 0x40 MLOAD DUP1 SWAP2 SUB SWAP1 LOG3 POP SWAP7 SWAP6 POP POP POP POP POP POP JUMP JUMPDEST PUSH1 0x0 DUP1 DUP4 GT PUSH2 0x13A9 JUMPI PUSH1 0x40 MLOAD PUSH3 0x461BCD PUSH1 0xE5 SHL DUP2 MSTORE PUSH1 0x20 PUSH1 0x4 DUP3 ADD MSTORE PUSH1 0x24 DUP1 DUP3 ADD MSTORE PUSH32 0x54617267657420616D6F756E74206D7573742062652067726561746572207468 PUSH1 0x44 DUP3 ADD MSTORE PUSH4 0x616E203 PUSH1 0xE4 SHL PUSH1 0x64 DUP3 ADD MSTORE PUSH1 0x84 ADD PUSH2 0x812 JUMP JUMPDEST TIMESTAMP DUP3 GT PUSH2 0x13F8 JUMPI PUSH1 0x40 MLOAD PUSH3 0x461BCD PUSH1 0xE5 SHL DUP2 MSTORE PUSH1 0x20 PUSH1 0x4 DUP3 ADD MSTORE PUSH1 0x1E PUSH1 0x24 DUP3 ADD MSTORE PUSH32 0x446561646C696E65206D75737420626520696E20746865206675747572650000 PUSH1 0x44 DUP3 ADD MSTORE PUSH1 0x64 ADD PUSH2 0x812 JUMP JUMPDEST PUSH1 0x2 DUP1 SLOAD SWAP1 PUSH1 0x0 PUSH2 0x1408 DUP4 PUSH2 0x259F JUMP JUMPDEST SWAP1 SWAP2 SSTORE POP POP PUSH1 0x2 SLOAD PUSH1 0x0 DUP2 DUP2 MSTORE PUSH1 0x5 PUSH1 0x20 MSTORE PUSH1 0x40 SWAP1 KECCAK256 DUP2 DUP2 SSTORE PUSH1 0x1 DUP2 ADD PUSH2 0x142F DUP9 DUP3 PUSH2 0x2606 JUMP JUMPDEST POP PUSH1 0x2 DUP2 ADD PUSH2 0x143E DUP8 DUP3 PUSH2 0x2606 JUMP JUMPDEST POP PUSH1 0x3 DUP2 ADD DUP1 SLOAD PUSH1 0x1 PUSH1 0x1 PUSH1 0xA0 SHL SUB NOT AND CALLER SWAP1 DUP2 OR SWAP1 SWAP2 SSTORE PUSH1 0x5 DUP3 ADD DUP7 SWAP1 SSTORE PUSH1 0x6 DUP3 ADD DUP6 SWAP1 SSTORE PUSH1 0x7 DUP3 ADD DUP1 SLOAD PUSH1 0xFF NOT AND PUSH1 0x1 SWAP1 DUP2 OR SWAP1 SWAP2 SSTORE PUSH1 0x0 DUP3 DUP2 MSTORE PUSH1 0x9 PUSH1 0x20 SWAP1 DUP2 MSTORE PUSH1 0x40 DUP1 DUP4 KECCAK256 DUP1 SLOAD SWAP5 DUP6 ADD DUP2 SSTORE DUP4 MSTORE SWAP2 KECCAK256 SWAP1 SWAP2 ADD DUP5 SWAP1 SSTORE MLOAD DUP4 SWAP1 PUSH32 0xA8CB28895A26FA1FBFB25D4C9B00FB9A89298F8CD4C61C200CC37A1436339C51 SWAP1 PUSH2 0x14CA SWAP1 DUP12 SWAP1 DUP11 SWAP1 PUSH2 0x26E7 JUMP JUMPDEST PUSH1 0x40 MLOAD DUP1 SWAP2 SUB SWAP1 LOG3 POP SWAP6 SWAP5 POP POP POP POP POP JUMP JUMPDEST PUSH1 0x1 PUSH1 0x1 PUSH1 0xA0 SHL SUB DUP2 AND PUSH1 0x0 SWAP1 DUP2 MSTORE PUSH1 0x9 PUSH1 0x20 SWAP1 DUP2 MSTORE PUSH1 0x40 SWAP2 DUP3 SWAP1 KECCAK256 DUP1 SLOAD DUP4 MLOAD DUP2 DUP5 MUL DUP2 ADD DUP5 ADD SWAP1 SWAP5 MSTORE DUP1 DUP5 MSTORE PUSH1 0x60 SWAP4 SWAP3 DUP4 ADD DUP3 DUP3 DUP1 ISZERO PUSH2 0x618 JUMPI PUSH1 0x20 MUL DUP3 ADD SWAP2 SWAP1 PUSH1 0x0 MSTORE PUSH1 0x20 PUSH1 0x0 KECCAK256 SWAP1 DUP2 SLOAD DUP2 MSTORE PUSH1 0x20 ADD SWAP1 PUSH1 0x1 ADD SWAP1 DUP1 DUP4 GT PUSH2 0x604 JUMPI POP POP POP POP POP SWAP1 POP SWAP2 SWAP1 POP JUMP JUMPDEST PUSH1 0x1 PUSH1 0x1 PUSH1 0xA0 SHL SUB DUP2 AND PUSH1 0x0 SWAP1 DUP2 MSTORE PUSH1 0xB PUSH1 0x20 SWAP1 DUP2 MSTORE PUSH1 0x40 SWAP2 DUP3 SWAP1 KECCAK256 DUP1 SLOAD DUP4 MLOAD DUP2 DUP5 MUL DUP2 ADD DUP5 ADD SWAP1 SWAP5 MSTORE DUP1 DUP5 MSTORE PUSH1 0x60 SWAP4 SWAP3 DUP4 ADD DUP3 DUP3 DUP1 ISZERO PUSH2 0x618 JUMPI PUSH1 0x20 MUL DUP3 ADD SWAP2 SWAP1 PUSH1 0x0 MSTORE PUSH1 0x20 PUSH1 0x0 KECCAK256 SWAP1 DUP2 SLOAD DUP2 MSTORE PUSH1 0x20 ADD SWAP1 PUSH1 0x1 ADD SWAP1 DUP1 DUP4 GT PUSH2 0x604 JUMPI POP POP POP POP POP SWAP1 POP SWAP2 SWAP1 POP JUMP JUMPDEST PUSH1 0xB PUSH1 0x20 MSTORE DUP2 PUSH1 0x0 MSTORE PUSH1 0x40 PUSH1 0x0 KECCAK256 DUP2 DUP2 SLOAD DUP2 LT PUSH2 0x640 JUMPI PUSH1 0x0 DUP1 REVERT JUMPDEST PUSH2 0x15D4 PUSH2 0x1E80 JUMP JUMPDEST PUSH1 0x0 DUP2 DUP2 MSTORE PUSH1 0x6 PUSH1 0x20 MSTORE PUSH1 0x40 SWAP1 KECCAK256 PUSH1 0x1 DUP2 ADD SLOAD PUSH1 0x1 PUSH1 0x1 PUSH1 0xA0 SHL SUB AND CALLER EQ PUSH2 0x163E JUMPI PUSH1 0x40 MLOAD PUSH3 0x461BCD PUSH1 0xE5 SHL DUP2 MSTORE PUSH1 0x20 PUSH1 0x4 DUP3 ADD MSTORE PUSH1 0x17 PUSH1 0x24 DUP3 ADD MSTORE PUSH32 0x4F6E6C7920626F72726F7765722063616E207265706179000000000000000000 PUSH1 0x44 DUP3 ADD MSTORE PUSH1 0x64 ADD PUSH2 0x812 JUMP JUMPDEST PUSH1 0x7 DUP2 ADD SLOAD PUSH1 0xFF AND ISZERO PUSH2 0x1689 JUMPI PUSH1 0x40 MLOAD PUSH3 0x461BCD PUSH1 0xE5 SHL DUP2 MSTORE PUSH1 0x20 PUSH1 0x4 DUP3 ADD MSTORE PUSH1 0x13 PUSH1 0x24 DUP3 ADD MSTORE PUSH19 0x131BD85B88185B1C9958591E481C995C185A59 PUSH1 0x6A SHL PUSH1 0x44 DUP3 ADD MSTORE PUSH1 0x64 ADD PUSH2 0x812 JUMP JUMPDEST PUSH1 0x2 DUP2 ADD SLOAD PUSH1 0x1 PUSH1 0x1 PUSH1 0xA0 SHL SUB AND PUSH2 0x16D5 JUMPI PUSH1 0x40 MLOAD PUSH3 0x461BCD PUSH1 0xE5 SHL DUP2 MSTORE PUSH1 0x20 PUSH1 0x4 DUP3 ADD MSTORE PUSH1 0xF PUSH1 0x24 DUP3 ADD MSTORE PUSH15 0x131BD85B881B9BDD08199D5B991959 PUSH1 0x8A SHL PUSH1 0x44 DUP3 ADD MSTORE PUSH1 0x64 ADD PUSH2 0x812 JUMP JUMPDEST PUSH1 0x0 PUSH1 0x64 DUP3 PUSH1 0x4 ADD SLOAD DUP4 PUSH1 0x3 ADD SLOAD PUSH2 0x16ED SWAP2 SWAP1 PUSH2 0x254D JUMP JUMPDEST PUSH2 0x16F7 SWAP2 SWAP1 PUSH2 0x256A JUMP JUMPDEST DUP3 PUSH1 0x3 ADD SLOAD PUSH2 0x1706 SWAP2 SWAP1 PUSH2 0x258C JUMP JUMPDEST PUSH1 0xC SLOAD SWAP1 SWAP2 POP PUSH2 0x1721 SWAP1 PUSH1 0x1 PUSH1 0x1 PUSH1 0xA0 SHL SUB AND CALLER ADDRESS DUP5 PUSH2 0x1F0E JUMP JUMPDEST PUSH1 0x2 DUP3 ADD SLOAD PUSH1 0xC SLOAD PUSH2 0x1740 SWAP2 PUSH1 0x1 PUSH1 0x1 PUSH1 0xA0 SHL SUB SWAP2 DUP3 AND SWAP2 AND DUP4 PUSH2 0x1EAA JUMP JUMPDEST PUSH1 0x7 DUP3 ADD DUP1 SLOAD PUSH1 0xFF NOT AND PUSH1 0x1 OR SWAP1 SSTORE CALLER PUSH1 0x0 SWAP1 DUP2 MSTORE PUSH1 0x8 PUSH1 0x20 MSTORE PUSH1 0x40 DUP2 KECCAK256 PUSH1 0x2 DUP2 ADD DUP1 SLOAD SWAP2 SWAP3 DUP5 SWAP3 PUSH2 0x1773 SWAP1 DUP5 SWAP1 PUSH2 0x258C JUMP JUMPDEST SWAP1 SWAP2 SSTORE POP POP PUSH1 0x3 DUP2 ADD DUP1 SLOAD SWAP1 PUSH1 0x0 PUSH2 0x178A DUP4 PUSH2 0x2709 JUMP JUMPDEST SWAP1 SWAP2 SSTORE POP POP PUSH1 0x4 DUP2 ADD DUP1 SLOAD SWAP1 PUSH1 0x0 PUSH2 0x17A1 DUP4 PUSH2 0x259F JUMP JUMPDEST SWAP2 SWAP1 POP SSTORE POP PUSH1 0xA DUP2 PUSH1 0x0 ADD PUSH1 0x0 DUP3 DUP3 SLOAD PUSH2 0x17BB SWAP2 SWAP1 PUSH2 0x258C JUMP JUMPDEST SWAP1 SWAP2 SSTORE POP POP TIMESTAMP PUSH1 0x6 DUP3 ADD SSTORE PUSH1 0x40 MLOAD DUP3 DUP2 MSTORE CALLER SWAP1 DUP6 SWAP1 PUSH32 0x512D3E65B3E58C2187BB1872AA435DBA5BD09C1C03823BA56AB70AAC411E4A21 SWAP1 PUSH1 0x20 ADD PUSH1 0x40 MLOAD DUP1 SWAP2 SUB SWAP1 LOG3 DUP1 SLOAD PUSH1 0x40 MLOAD SWAP1 DUP2 MSTORE CALLER SWAP1 PUSH32 0x79C012A0CFAE660E09134956BC432C8497EC80E86A3A108D130E8B3FCA52B3AD SWAP1 PUSH1 0x20 ADD PUSH1 0x40 MLOAD DUP1 SWAP2 SUB SWAP1 LOG2 POP POP POP PUSH2 0x8D1 PUSH1 0x1 PUSH1 0x0 SSTORE JUMP JUMPDEST PUSH1 0x7 PUSH1 0x20 MSTORE PUSH1 0x0 SWAP1 DUP2 MSTORE PUSH1 0x40 SWAP1 KECCAK256 DUP1 SLOAD PUSH1 0x1 DUP3 ADD SLOAD PUSH1 0x2 DUP4 ADD SLOAD PUSH1 0x3 DUP5 ADD SLOAD PUSH1 0x4 DUP6 ADD SLOAD PUSH1 0x5 DUP7 ADD DUP1 SLOAD SWAP6 SWAP7 PUSH1 0x1 PUSH1 0x1 PUSH1 0xA0 SHL SUB SWAP6 DUP7 AND SWAP7 SWAP6 SWAP1 SWAP5 AND SWAP5 SWAP3 SWAP4 SWAP2 SWAP3 PUSH2 0x188B SWAP1 PUSH2 0x24FD JUMP JUMPDEST DUP1 PUSH1 0x1F ADD PUSH1 0x20 DUP1 SWAP2 DIV MUL PUSH1 0x20 ADD PUSH1 0x40 MLOAD SWAP1 DUP2 ADD PUSH1 0x40 MSTORE DUP1 SWAP3 SWAP2 SWAP1 DUP2 DUP2 MSTORE PUSH1 0x20 ADD DUP3 DUP1 SLOAD PUSH2 0x18B7 SWAP1 PUSH2 0x24FD JUMP JUMPDEST DUP1 ISZERO PUSH2 0x1904 JUMPI DUP1 PUSH1 0x1F LT PUSH2 0x18D9 JUMPI PUSH2 0x100 DUP1 DUP4 SLOAD DIV MUL DUP4 MSTORE SWAP2 PUSH1 0x20 ADD SWAP2 PUSH2 0x1904 JUMP JUMPDEST DUP3 ADD SWAP2 SWAP1 PUSH1 0x0 MSTORE PUSH1 0x20 PUSH1 0x0 KECCAK256 SWAP1 JUMPDEST DUP2 SLOAD DUP2 MSTORE SWAP1 PUSH1 0x1 ADD SWAP1 PUSH1 0x20 ADD DUP1 DUP4 GT PUSH2 0x18E7 JUMPI DUP3 SWAP1 SUB PUSH1 0x1F AND DUP3 ADD SWAP2 JUMPDEST POP POP POP PUSH1 0x6 SWAP1 SWAP4 ADD SLOAD SWAP2 SWAP3 POP POP PUSH1 0xFF AND DUP8 JUMP JUMPDEST PUSH1 0x0 PUSH1 0x60 DUP1 PUSH1 0x0 DUP1 PUSH1 0x0 DUP1 PUSH1 0x0 PUSH1 0x60 PUSH1 0x0 PUSH1 0x5 PUSH1 0x0 DUP13 DUP2 MSTORE PUSH1 0x20 ADD SWAP1 DUP2 MSTORE PUSH1 0x20 ADD PUSH1 0x0 KECCAK256 SWAP1 POP DUP1 PUSH1 0x0 ADD SLOAD DUP2 PUSH1 0x1 ADD DUP3 PUSH1 0x2 ADD DUP4 PUSH1 0x3 ADD PUSH1 0x0 SWAP1 SLOAD SWAP1 PUSH2 0x100 EXP SWAP1 DIV PUSH1 0x1 PUSH1 0x1 PUSH1 0xA0 SHL SUB AND DUP5 PUSH1 0x4 ADD SLOAD DUP6 PUSH1 0x5 ADD SLOAD DUP7 PUSH1 0x6 ADD SLOAD DUP8 PUSH1 0x7 ADD PUSH1 0x0 SWAP1 SLOAD SWAP1 PUSH2 0x100 EXP SWAP1 DIV PUSH1 0xFF AND DUP9 PUSH1 0x9 ADD DUP8 DUP1 SLOAD PUSH2 0x1993 SWAP1 PUSH2 0x24FD JUMP JUMPDEST DUP1 PUSH1 0x1F ADD PUSH1 0x20 DUP1 SWAP2 DIV MUL PUSH1 0x20 ADD PUSH1 0x40 MLOAD SWAP1 DUP2 ADD PUSH1 0x40 MSTORE DUP1 SWAP3 SWAP2 SWAP1 DUP2 DUP2 MSTORE PUSH1 0x20 ADD DUP3 DUP1 SLOAD PUSH2 0x19BF SWAP1 PUSH2 0x24FD JUMP JUMPDEST DUP1 ISZERO PUSH2 0x1A0C JUMPI DUP1 PUSH1 0x1F LT PUSH2 0x19E1 JUMPI PUSH2 0x100 DUP1 DUP4 SLOAD DIV MUL DUP4 MSTORE SWAP2 PUSH1 0x20 ADD SWAP2 PUSH2 0x1A0C JUMP JUMPDEST DUP3 ADD SWAP2 SWAP1 PUSH1 0x0 MSTORE PUSH1 0x20 PUSH1 0x0 KECCAK256 SWAP1 JUMPDEST DUP2 SLOAD DUP2 MSTORE SWAP1 PUSH1 0x1 ADD SWAP1 PUSH1 0x20 ADD DUP1 DUP4 GT PUSH2 0x19EF JUMPI DUP3 SWAP1 SUB PUSH1 0x1F AND DUP3 ADD SWAP2 JUMPDEST POP POP POP POP POP SWAP8 POP DUP7 DUP1 SLOAD PUSH2 0x1A1F SWAP1 PUSH2 0x24FD JUMP JUMPDEST DUP1 PUSH1 0x1F ADD PUSH1 0x20 DUP1 SWAP2 DIV MUL PUSH1 0x20 ADD PUSH1 0x40 MLOAD SWAP1 DUP2 ADD PUSH1 0x40 MSTORE DUP1 SWAP3 SWAP2 SWAP1 DUP2 DUP2 MSTORE PUSH1 0x20 ADD DUP3 DUP1 SLOAD PUSH2 0x1A4B SWAP1 PUSH2 0x24FD JUMP JUMPDEST DUP1 ISZERO PUSH2 0x1A98 JUMPI DUP1 PUSH1 0x1F LT PUSH2 0x1A6D JUMPI PUSH2 0x100 DUP1 DUP4 SLOAD DIV MUL DUP4 MSTORE SWAP2 PUSH1 0x20 ADD SWAP2 PUSH2 0x1A98 JUMP JUMPDEST DUP3 ADD SWAP2 SWAP1 PUSH1 0x0 MSTORE PUSH1 0x20 PUSH1 0x0 KECCAK256 SWAP1 JUMPDEST DUP2 SLOAD DUP2 MSTORE SWAP1 PUSH1 0x1 ADD SWAP1 PUSH1 0x20 ADD DUP1 DUP4 GT PUSH2 0x1A7B JUMPI DUP3 SWAP1 SUB PUSH1 0x1F AND DUP3 ADD SWAP2 JUMPDEST POP POP POP POP POP SWAP7 POP DUP1 DUP1 SLOAD DUP1 PUSH1 0x20 MUL PUSH1 0x20 ADD PUSH1 0x40 MLOAD SWAP1 DUP2 ADD PUSH1 0x40 MSTORE DUP1 SWAP3 SWAP2 SWAP1 DUP2 DUP2 MSTORE PUSH1 0x20 ADD DUP3 DUP1 SLOAD DUP1 ISZERO PUSH2 0x1AF4 JUMPI PUSH1 0x20 MUL DUP3 ADD SWAP2 SWAP1 PUSH1 0x0 MSTORE PUSH1 0x20 PUSH1 0x0 KECCAK256 SWAP1 JUMPDEST DUP2 SLOAD PUSH1 0x1 PUSH1 0x1 PUSH1 0xA0 SHL SUB AND DUP2 MSTORE PUSH1 0x1 SWAP1 SWAP2 ADD SWAP1 PUSH1 0x20 ADD DUP1 DUP4 GT PUSH2 0x1AD6 JUMPI JUMPDEST POP POP POP POP POP SWAP1 POP SWAP10 POP SWAP10 POP SWAP10 POP SWAP10 POP SWAP10 POP SWAP10 POP SWAP10 POP SWAP10 POP SWAP10 POP POP SWAP2 SWAP4 SWAP6 SWAP8 SWAP10 SWAP1 SWAP3 SWAP5 SWAP7 SWAP9 POP JUMP JUMPDEST PUSH1 0xA PUSH1 0x20 MSTORE DUP2 PUSH1 0x0 MSTORE PUSH1 0x40 PUSH1 0x0 KECCAK256 DUP2 DUP2 SLOAD DUP2 LT PUSH2 0x640 JUMPI PUSH1 0x0 DUP1 REVERT JUMPDEST PUSH2 0x1B3F PUSH2 0x1F4D JUMP JUMPDEST PUSH1 0xC SLOAD PUSH1 0x40 MLOAD PUSH4 0x70A08231 PUSH1 0xE0 SHL DUP2 MSTORE ADDRESS PUSH1 0x4 DUP3 ADD MSTORE PUSH1 0x0 SWAP2 PUSH1 0x1 PUSH1 0x1 PUSH1 0xA0 SHL SUB AND SWAP1 PUSH4 0x70A08231 SWAP1 PUSH1 0x24 ADD PUSH1 0x20 PUSH1 0x40 MLOAD DUP1 DUP4 SUB DUP2 DUP7 GAS STATICCALL ISZERO DUP1 ISZERO PUSH2 0x1B88 JUMPI RETURNDATASIZE PUSH1 0x0 DUP1 RETURNDATACOPY RETURNDATASIZE PUSH1 0x0 REVERT JUMPDEST POP POP POP POP PUSH1 0x40 MLOAD RETURNDATASIZE PUSH1 0x1F NOT PUSH1 0x1F DUP3 ADD AND DUP3 ADD DUP1 PUSH1 0x40 MSTORE POP DUP2 ADD SWAP1 PUSH2 0x1BAC SWAP2 SWAP1 PUSH2 0x2720 JUMP JUMPDEST SWAP1 POP DUP1 ISZERO PUSH2 0x8D1 JUMPI PUSH2 0x8D1 PUSH2 0x1BC9 PUSH1 0x1 SLOAD PUSH1 0x1 PUSH1 0x1 PUSH1 0xA0 SHL SUB AND SWAP1 JUMP JUMPDEST PUSH1 0xC SLOAD PUSH1 0x1 PUSH1 0x1 PUSH1 0xA0 SHL SUB AND SWAP1 DUP4 PUSH2 0x1EAA JUMP JUMPDEST PUSH1 0x6 PUSH1 0x20 DUP2 SWAP1 MSTORE PUSH1 0x0 SWAP2 DUP3 MSTORE PUSH1 0x40 SWAP1 SWAP2 KECCAK256 DUP1 SLOAD PUSH1 0x1 DUP3 ADD SLOAD PUSH1 0x2 DUP4 ADD SLOAD PUSH1 0x3 DUP5 ADD SLOAD PUSH1 0x4 DUP6 ADD SLOAD PUSH1 0x5 DUP7 ADD SLOAD SWAP7 DUP7 ADD SLOAD PUSH1 0x7 DUP8 ADD SLOAD PUSH1 0x8 DUP9 ADD DUP1 SLOAD SWAP8 SWAP10 PUSH1 0x1 PUSH1 0x1 PUSH1 0xA0 SHL SUB SWAP8 DUP9 AND SWAP10 SWAP8 SWAP1 SWAP7 AND SWAP8 SWAP5 SWAP7 SWAP4 SWAP6 SWAP5 SWAP3 SWAP4 PUSH1 0xFF DUP1 DUP5 AND SWAP5 PUSH2 0x100 SWAP1 SWAP5 DIV AND SWAP3 SWAP1 SWAP2 SWAP1 PUSH2 0x1C4B SWAP1 PUSH2 0x24FD JUMP JUMPDEST DUP1 PUSH1 0x1F ADD PUSH1 0x20 DUP1 SWAP2 DIV MUL PUSH1 0x20 ADD PUSH1 0x40 MLOAD SWAP1 DUP2 ADD PUSH1 0x40 MSTORE DUP1 SWAP3 SWAP2 SWAP1 DUP2 DUP2 MSTORE PUSH1 0x20 ADD DUP3 DUP1 SLOAD PUSH2 0x1C77 SWAP1 PUSH2 0x24FD JUMP JUMPDEST DUP1 ISZERO PUSH2 0x1CC4 JUMPI DUP1 PUSH1 0x1F LT PUSH2 0x1C99 JUMPI PUSH2 0x100 DUP1 DUP4 SLOAD DIV MUL DUP4 MSTORE SWAP2 PUSH1 0x20 ADD SWAP2 PUSH2 0x1CC4 JUMP JUMPDEST DUP3 ADD SWAP2 SWAP1 PUSH1 0x0 MSTORE PUSH1 0x20 PUSH1 0x0 KECCAK256 SWAP1 JUMPDEST DUP2 SLOAD DUP2 MSTORE SWAP1 PUSH1 0x1 ADD SWAP1 PUSH1 0x20 ADD DUP1 DUP4 GT PUSH2 0x1CA7 JUMPI DUP3 SWAP1 SUB PUSH1 0x1F AND DUP3 ADD SWAP2 JUMPDEST POP POP POP POP POP SWAP1 POP DUP11 JUMP JUMPDEST TIMESTAMP PUSH1 0x1 JUMPDEST PUSH1 0x3 SLOAD DUP2 GT PUSH2 0xB1A JUMPI PUSH1 0x0 DUP2 DUP2 MSTORE PUSH1 0x6 PUSH1 0x20 MSTORE PUSH1 0x40 SWAP1 KECCAK256 PUSH1 0x7 DUP2 ADD SLOAD PUSH1 0xFF AND ISZERO DUP1 ISZERO PUSH2 0x1D08 JUMPI POP PUSH1 0x7 DUP2 ADD SLOAD PUSH2 0x100 SWAP1 DIV PUSH1 0xFF AND ISZERO JUMPDEST DUP1 ISZERO PUSH2 0x1D20 JUMPI POP PUSH1 0x2 DUP2 ADD SLOAD PUSH1 0x1 PUSH1 0x1 PUSH1 0xA0 SHL SUB AND ISZERO ISZERO JUMPDEST DUP1 ISZERO PUSH2 0x1D2F JUMPI POP DUP1 PUSH1 0x5 ADD SLOAD DUP4 GT JUMPDEST ISZERO PUSH2 0x1E32 JUMPI PUSH1 0x7 DUP2 ADD DUP1 SLOAD PUSH2 0xFF00 NOT AND PUSH2 0x100 OR SWAP1 SSTORE PUSH1 0x1 DUP2 ADD SLOAD PUSH1 0x1 PUSH1 0x1 PUSH1 0xA0 SHL SUB AND PUSH1 0x0 SWAP1 DUP2 MSTORE PUSH1 0x8 PUSH1 0x20 MSTORE PUSH1 0x40 DUP2 KECCAK256 PUSH1 0x3 DUP2 ADD DUP1 SLOAD SWAP2 SWAP3 PUSH2 0x1D72 DUP4 PUSH2 0x2709 JUMP JUMPDEST SWAP1 SWAP2 SSTORE POP POP PUSH1 0x5 DUP2 ADD DUP1 SLOAD SWAP1 PUSH1 0x0 PUSH2 0x1D89 DUP4 PUSH2 0x259F JUMP JUMPDEST SWAP1 SWAP2 SSTORE POP POP DUP1 SLOAD PUSH1 0x14 LT PUSH2 0x1D9E JUMPI PUSH1 0x0 PUSH2 0x1DAC JUMP JUMPDEST DUP1 SLOAD PUSH2 0x1DAC SWAP1 PUSH1 0x14 SWAP1 PUSH2 0x2739 JUMP JUMPDEST DUP2 SSTORE PUSH1 0x1 DUP3 ADD SLOAD PUSH1 0x40 MLOAD PUSH1 0x1 PUSH1 0x1 PUSH1 0xA0 SHL SUB SWAP1 SWAP2 AND SWAP1 DUP5 SWAP1 PUSH32 0x13B88E6866F0156D706FECFA22B678DE5FC2B749C1D2307F6F47EB541385F1EC SWAP1 PUSH1 0x0 SWAP1 LOG3 PUSH1 0x1 DUP3 ADD SLOAD DUP2 SLOAD PUSH1 0x40 MLOAD SWAP1 DUP2 MSTORE PUSH1 0x1 PUSH1 0x1 PUSH1 0xA0 SHL SUB SWAP1 SWAP2 AND SWAP1 PUSH32 0x79C012A0CFAE660E09134956BC432C8497EC80E86A3A108D130E8B3FCA52B3AD SWAP1 PUSH1 0x20 ADD PUSH1 0x40 MLOAD DUP1 SWAP2 SUB SWAP1 LOG2 POP JUMPDEST POP DUP1 PUSH2 0x1E3D DUP2 PUSH2 0x259F JUMP JUMPDEST SWAP2 POP POP PUSH2 0x1CD2 JUMP JUMPDEST PUSH2 0x1E4D PUSH2 0x1F4D JUMP JUMPDEST PUSH1 0x1 PUSH1 0x1 PUSH1 0xA0 SHL SUB DUP2 AND PUSH2 0x1E77 JUMPI PUSH1 0x40 MLOAD PUSH4 0x1E4FBDF7 PUSH1 0xE0 SHL DUP2 MSTORE PUSH1 0x0 PUSH1 0x4 DUP3 ADD MSTORE PUSH1 0x24 ADD PUSH2 0x812 JUMP JUMPDEST PUSH2 0x8D1 DUP2 PUSH2 0x1F7A JUMP JUMPDEST PUSH1 0x2 PUSH1 0x0 SLOAD SUB PUSH2 0x1EA3 JUMPI PUSH1 0x40 MLOAD PUSH4 0x3EE5AEB5 PUSH1 0xE0 SHL DUP2 MSTORE PUSH1 0x4 ADD PUSH1 0x40 MLOAD DUP1 SWAP2 SUB SWAP1 REVERT JUMPDEST PUSH1 0x2 PUSH1 0x0 SSTORE JUMP JUMPDEST PUSH1 0x40 MLOAD PUSH1 0x1 PUSH1 0x1 PUSH1 0xA0 SHL SUB DUP4 DUP2 AND PUSH1 0x24 DUP4 ADD MSTORE PUSH1 0x44 DUP3 ADD DUP4 SWAP1 MSTORE PUSH2 0x1F09 SWAP2 DUP6 SWAP2 DUP3 AND SWAP1 PUSH4 0xA9059CBB SWAP1 PUSH1 0x64 ADD JUMPDEST PUSH1 0x40 MLOAD PUSH1 0x20 DUP2 DUP4 SUB SUB DUP2 MSTORE SWAP1 PUSH1 0x40 MSTORE SWAP2 POP PUSH1 0xE0 SHL PUSH1 0x20 DUP3 ADD DUP1 MLOAD PUSH1 0x1 PUSH1 0x1 PUSH1 0xE0 SHL SUB DUP4 DUP2 DUP4 AND OR DUP4 MSTORE POP POP POP POP PUSH2 0x1FCC JUMP JUMPDEST POP POP POP JUMP JUMPDEST PUSH1 0x40 MLOAD PUSH1 0x1 PUSH1 0x1 PUSH1 0xA0 SHL SUB DUP5 DUP2 AND PUSH1 0x24 DUP4 ADD MSTORE DUP4 DUP2 AND PUSH1 0x44 DUP4 ADD MSTORE PUSH1 0x64 DUP3 ADD DUP4 SWAP1 MSTORE PUSH2 0x1F47 SWAP2 DUP7 SWAP2 DUP3 AND SWAP1 PUSH4 0x23B872DD SWAP1 PUSH1 0x84 ADD PUSH2 0x1ED7 JUMP JUMPDEST POP POP POP POP JUMP JUMPDEST PUSH1 0x1 SLOAD PUSH1 0x1 PUSH1 0x1 PUSH1 0xA0 SHL SUB AND CALLER EQ PUSH2 0xD47 JUMPI PUSH1 0x40 MLOAD PUSH4 0x118CDAA7 PUSH1 0xE0 SHL DUP2 MSTORE CALLER PUSH1 0x4 DUP3 ADD MSTORE PUSH1 0x24 ADD PUSH2 0x812 JUMP JUMPDEST PUSH1 0x1 DUP1 SLOAD PUSH1 0x1 PUSH1 0x1 PUSH1 0xA0 SHL SUB DUP4 DUP2 AND PUSH1 0x1 PUSH1 0x1 PUSH1 0xA0 SHL SUB NOT DUP4 AND DUP2 OR SWAP1 SWAP4 SSTORE PUSH1 0x40 MLOAD SWAP2 AND SWAP2 SWAP1 DUP3 SWAP1 PUSH32 0x8BE0079C531659141344CD1FD0A4F28419497F9722A3DAAFE3B4186F6B6457E0 SWAP1 PUSH1 0x0 SWAP1 LOG3 POP POP JUMP JUMPDEST PUSH1 0x0 DUP1 PUSH1 0x20 PUSH1 0x0 DUP5 MLOAD PUSH1 0x20 DUP7 ADD PUSH1 0x0 DUP9 GAS CALL DUP1 PUSH2 0x1FEF JUMPI PUSH1 0x40 MLOAD RETURNDATASIZE PUSH1 0x0 DUP3 RETURNDATACOPY RETURNDATASIZE DUP2 REVERT JUMPDEST POP POP PUSH1 0x0 MLOAD RETURNDATASIZE SWAP2 POP DUP2 ISZERO PUSH2 0x2007 JUMPI DUP1 PUSH1 0x1 EQ ISZERO PUSH2 0x2014 JUMP JUMPDEST PUSH1 0x1 PUSH1 0x1 PUSH1 0xA0 SHL SUB DUP5 AND EXTCODESIZE ISZERO JUMPDEST ISZERO PUSH2 0x1F47 JUMPI PUSH1 0x40 MLOAD PUSH4 0x5274AFE7 PUSH1 0xE0 SHL DUP2 MSTORE PUSH1 0x1 PUSH1 0x1 PUSH1 0xA0 SHL SUB DUP6 AND PUSH1 0x4 DUP3 ADD MSTORE PUSH1 0x24 ADD PUSH2 0x812 JUMP JUMPDEST DUP1 CALLDATALOAD PUSH1 0x1 PUSH1 0x1 PUSH1 0xA0 SHL SUB DUP2 AND DUP2 EQ PUSH2 0x2054 JUMPI PUSH1 0x0 DUP1 REVERT JUMPDEST SWAP2 SWAP1 POP JUMP JUMPDEST PUSH1 0x0 PUSH1 0x20 DUP3 DUP5 SUB SLT ISZERO PUSH2 0x206B JUMPI PUSH1 0x0 DUP1 REVERT JUMPDEST PUSH2 0xF02 DUP3 PUSH2 0x203D JUMP JUMPDEST PUSH1 0x20 DUP1 DUP3 MSTORE DUP3 MLOAD DUP3 DUP3 ADD DUP2 SWAP1 MSTORE PUSH1 0x0 SWAP2 SWAP1 DUP5 DUP3 ADD SWAP1 PUSH1 0x40 DUP6 ADD SWAP1 DUP5 JUMPDEST DUP2 DUP2 LT ISZERO PUSH2 0x20AC JUMPI DUP4 MLOAD DUP4 MSTORE SWAP3 DUP5 ADD SWAP3 SWAP2 DUP5 ADD SWAP2 PUSH1 0x1 ADD PUSH2 0x2090 JUMP JUMPDEST POP SWAP1 SWAP7 SWAP6 POP POP POP POP POP POP JUMP JUMPDEST PUSH1 0x0 DUP1 PUSH1 0x40 DUP4 DUP6 SUB SLT ISZERO PUSH2 0x20CB JUMPI PUSH1 0x0 DUP1 REVERT JUMPDEST PUSH2 0x20D4 DUP4 PUSH2 0x203D JUMP JUMPDEST SWAP5 PUSH1 0x20 SWAP4 SWAP1 SWAP4 ADD CALLDATALOAD SWAP4 POP POP POP JUMP JUMPDEST PUSH1 0x0 PUSH1 0x20 DUP3 DUP5 SUB SLT ISZERO PUSH2 0x20F4 JUMPI PUSH1 0x0 DUP1 REVERT JUMPDEST POP CALLDATALOAD SWAP2 SWAP1 POP JUMP JUMPDEST PUSH1 0x0 DUP2 MLOAD DUP1 DUP5 MSTORE PUSH1 0x0 JUMPDEST DUP2 DUP2 LT ISZERO PUSH2 0x2121 JUMPI PUSH1 0x20 DUP2 DUP6 ADD DUP2 ADD MLOAD DUP7 DUP4 ADD DUP3 ADD MSTORE ADD PUSH2 0x2105 JUMP JUMPDEST POP PUSH1 0x0 PUSH1 0x20 DUP3 DUP7 ADD ADD MSTORE PUSH1 0x20 PUSH1 0x1F NOT PUSH1 0x1F DUP4 ADD AND DUP6 ADD ADD SWAP2 POP POP SWAP3 SWAP2 POP POP JUMP JUMPDEST PUSH1 0x0 PUSH2 0x100 DUP11 DUP4 MSTORE DUP1 PUSH1 0x20 DUP5 ADD MSTORE PUSH2 0x215B DUP2 DUP5 ADD DUP12 PUSH2 0x20FB JUMP JUMPDEST SWAP1 POP DUP3 DUP2 SUB PUSH1 0x40 DUP5 ADD MSTORE PUSH2 0x216F DUP2 DUP11 PUSH2 0x20FB JUMP JUMPDEST PUSH1 0x1 PUSH1 0x1 PUSH1 0xA0 SHL SUB SWAP9 SWAP1 SWAP9 AND PUSH1 0x60 DUP5 ADD MSTORE POP POP PUSH1 0x80 DUP2 ADD SWAP5 SWAP1 SWAP5 MSTORE PUSH1 0xA0 DUP5 ADD SWAP3 SWAP1 SWAP3 MSTORE PUSH1 0xC0 DUP4 ADD MSTORE ISZERO ISZERO PUSH1 0xE0 SWAP1 SWAP2 ADD MSTORE SWAP4 SWAP3 POP POP POP JUMP JUMPDEST PUSH1 0x0 DUP1 PUSH1 0x40 DUP4 DUP6 SUB SLT ISZERO PUSH2 0x21B9 JUMPI PUSH1 0x0 DUP1 REVERT JUMPDEST POP POP DUP1 CALLDATALOAD SWAP3 PUSH1 0x20 SWAP1 SWAP2 ADD CALLDATALOAD SWAP2 POP JUMP JUMPDEST PUSH1 0x0 PUSH2 0x140 DUP13 DUP4 MSTORE PUSH1 0x1 DUP1 PUSH1 0xA0 SHL SUB DUP1 DUP14 AND PUSH1 0x20 DUP6 ADD MSTORE DUP1 DUP13 AND PUSH1 0x40 DUP6 ADD MSTORE POP DUP10 PUSH1 0x60 DUP5 ADD MSTORE DUP9 PUSH1 0x80 DUP5 ADD MSTORE DUP8 PUSH1 0xA0 DUP5 ADD MSTORE DUP7 PUSH1 0xC0 DUP5 ADD MSTORE DUP6 ISZERO ISZERO PUSH1 0xE0 DUP5 ADD MSTORE DUP5 ISZERO ISZERO PUSH2 0x100 DUP5 ADD MSTORE DUP1 PUSH2 0x120 DUP5 ADD MSTORE PUSH2 0x2224 DUP2 DUP5 ADD DUP6 PUSH2 0x20FB JUMP JUMPDEST SWAP14 SWAP13 POP POP POP POP POP POP POP POP POP POP POP POP POP JUMP JUMPDEST PUSH4 0x4E487B71 PUSH1 0xE0 SHL PUSH1 0x0 MSTORE PUSH1 0x41 PUSH1 0x4 MSTORE PUSH1 0x24 PUSH1 0x0 REVERT JUMPDEST PUSH1 0x0 DUP3 PUSH1 0x1F DUP4 ADD SLT PUSH2 0x225C JUMPI PUSH1 0x0 DUP1 REVERT JUMPDEST DUP2 CALLDATALOAD PUSH8 0xFFFFFFFFFFFFFFFF DUP1 DUP3 GT ISZERO PUSH2 0x2277 JUMPI PUSH2 0x2277 PUSH2 0x2235 JUMP JUMPDEST PUSH1 0x40 MLOAD PUSH1 0x1F DUP4 ADD PUSH1 0x1F NOT SWAP1 DUP2 AND PUSH1 0x3F ADD AND DUP2 ADD SWAP1 DUP3 DUP3 GT DUP2 DUP4 LT OR ISZERO PUSH2 0x229F JUMPI PUSH2 0x229F PUSH2 0x2235 JUMP JUMPDEST DUP2 PUSH1 0x40 MSTORE DUP4 DUP2 MSTORE DUP7 PUSH1 0x20 DUP6 DUP9 ADD ADD GT ISZERO PUSH2 0x22B8 JUMPI PUSH1 0x0 DUP1 REVERT JUMPDEST DUP4 PUSH1 0x20 DUP8 ADD PUSH1 0x20 DUP4 ADD CALLDATACOPY PUSH1 0x0 PUSH1 0x20 DUP6 DUP4 ADD ADD MSTORE DUP1 SWAP5 POP POP POP POP POP SWAP3 SWAP2 POP POP JUMP JUMPDEST PUSH1 0x0 DUP1 PUSH1 0x0 PUSH1 0x60 DUP5 DUP7 SUB SLT ISZERO PUSH2 0x22ED JUMPI PUSH1 0x0 DUP1 REVERT JUMPDEST PUSH2 0x22F6 DUP5 PUSH2 0x203D JUMP JUMPDEST SWAP3 POP PUSH1 0x20 DUP5 ADD CALLDATALOAD SWAP2 POP PUSH1 0x40 DUP5 ADD CALLDATALOAD PUSH8 0xFFFFFFFFFFFFFFFF DUP2 GT ISZERO PUSH2 0x2319 JUMPI PUSH1 0x0 DUP1 REVERT JUMPDEST PUSH2 0x2325 DUP7 DUP3 DUP8 ADD PUSH2 0x224B JUMP JUMPDEST SWAP2 POP POP SWAP3 POP SWAP3 POP SWAP3 JUMP JUMPDEST PUSH1 0x0 DUP1 PUSH1 0x0 DUP1 PUSH1 0x80 DUP6 DUP8 SUB SLT ISZERO PUSH2 0x2345 JUMPI PUSH1 0x0 DUP1 REVERT JUMPDEST DUP5 CALLDATALOAD SWAP4 POP PUSH1 0x20 DUP6 ADD CALLDATALOAD SWAP3 POP PUSH1 0x40 DUP6 ADD CALLDATALOAD SWAP2 POP PUSH1 0x60 DUP6 ADD CALLDATALOAD PUSH8 0xFFFFFFFFFFFFFFFF DUP2 GT ISZERO PUSH2 0x2371 JUMPI PUSH1 0x0 DUP1 REVERT JUMPDEST PUSH2 0x237D DUP8 DUP3 DUP9 ADD PUSH2 0x224B JUMP JUMPDEST SWAP2 POP POP SWAP3 SWAP6 SWAP2 SWAP5 POP SWAP3 POP JUMP JUMPDEST PUSH1 0x0 DUP1 PUSH1 0x0 DUP1 PUSH1 0x80 DUP6 DUP8 SUB SLT ISZERO PUSH2 0x239F JUMPI PUSH1 0x0 DUP1 REVERT JUMPDEST DUP5 CALLDATALOAD PUSH8 0xFFFFFFFFFFFFFFFF DUP1 DUP3 GT ISZERO PUSH2 0x23B7 JUMPI PUSH1 0x0 DUP1 REVERT JUMPDEST PUSH2 0x23C3 DUP9 DUP4 DUP10 ADD PUSH2 0x224B JUMP JUMPDEST SWAP6 POP PUSH1 0x20 DUP8 ADD CALLDATALOAD SWAP2 POP DUP1 DUP3 GT ISZERO PUSH2 0x23D9 JUMPI PUSH1 0x0 DUP1 REVERT JUMPDEST POP PUSH2 0x23E6 DUP8 DUP3 DUP9 ADD PUSH2 0x224B JUMP JUMPDEST SWAP5 SWAP8 SWAP5 SWAP7 POP POP POP POP PUSH1 0x40 DUP4 ADD CALLDATALOAD SWAP3 PUSH1 0x60 ADD CALLDATALOAD SWAP2 SWAP1 POP JUMP JUMPDEST DUP8 DUP2 MSTORE PUSH1 0x1 PUSH1 0x1 PUSH1 0xA0 SHL SUB DUP8 DUP2 AND PUSH1 0x20 DUP4 ADD MSTORE DUP7 AND PUSH1 0x40 DUP3 ADD MSTORE PUSH1 0x60 DUP2 ADD DUP6 SWAP1 MSTORE PUSH1 0x80 DUP2 ADD DUP5 SWAP1 MSTORE PUSH1 0xE0 PUSH1 0xA0 DUP3 ADD DUP2 SWAP1 MSTORE PUSH1 0x0 SWAP1 PUSH2 0x243D SWAP1 DUP4 ADD DUP6 PUSH2 0x20FB JUMP JUMPDEST SWAP1 POP DUP3 ISZERO ISZERO PUSH1 0xC0 DUP4 ADD MSTORE SWAP9 SWAP8 POP POP POP POP POP POP POP POP JUMP JUMPDEST PUSH1 0x0 PUSH2 0x120 DUP12 DUP4 MSTORE PUSH1 0x20 DUP2 DUP2 DUP6 ADD MSTORE PUSH2 0x246E DUP3 DUP6 ADD DUP14 PUSH2 0x20FB JUMP JUMPDEST SWAP2 POP DUP4 DUP3 SUB PUSH1 0x40 DUP6 ADD MSTORE PUSH2 0x2482 DUP3 DUP13 PUSH2 0x20FB JUMP JUMPDEST PUSH1 0x1 PUSH1 0x1 PUSH1 0xA0 SHL SUB DUP12 DUP2 AND PUSH1 0x60 DUP8 ADD MSTORE PUSH1 0x80 DUP7 ADD DUP12 SWAP1 MSTORE PUSH1 0xA0 DUP7 ADD DUP11 SWAP1 MSTORE PUSH1 0xC0 DUP7 ADD DUP10 SWAP1 MSTORE DUP8 ISZERO ISZERO PUSH1 0xE0 DUP8 ADD MSTORE DUP6 DUP3 SUB PUSH2 0x100 DUP8 ADD MSTORE DUP7 MLOAD DUP1 DUP4 MSTORE DUP4 DUP9 ADD SWAP5 POP SWAP1 SWAP2 DUP4 ADD SWAP1 PUSH1 0x0 JUMPDEST DUP2 DUP2 LT ISZERO PUSH2 0x24E8 JUMPI DUP6 MLOAD DUP5 AND DUP4 MSTORE SWAP5 DUP5 ADD SWAP5 SWAP2 DUP5 ADD SWAP2 PUSH1 0x1 ADD PUSH2 0x24CA JUMP JUMPDEST POP SWAP1 SWAP16 SWAP15 POP POP POP POP POP POP POP POP POP POP POP POP POP POP POP JUMP JUMPDEST PUSH1 0x1 DUP2 DUP2 SHR SWAP1 DUP3 AND DUP1 PUSH2 0x2511 JUMPI PUSH1 0x7F DUP3 AND SWAP2 POP JUMPDEST PUSH1 0x20 DUP3 LT DUP2 SUB PUSH2 0x2531 JUMPI PUSH4 0x4E487B71 PUSH1 0xE0 SHL PUSH1 0x0 MSTORE PUSH1 0x22 PUSH1 0x4 MSTORE PUSH1 0x24 PUSH1 0x0 REVERT JUMPDEST POP SWAP2 SWAP1 POP JUMP JUMPDEST PUSH4 0x4E487B71 PUSH1 0xE0 SHL PUSH1 0x0 MSTORE PUSH1 0x11 PUSH1 0x4 MSTORE PUSH1 0x24 PUSH1 0x0 REVERT JUMPDEST DUP1 DUP3 MUL DUP2 ISZERO DUP3 DUP3 DIV DUP5 EQ OR PUSH2 0x2564 JUMPI PUSH2 0x2564 PUSH2 0x2537 JUMP JUMPDEST SWAP3 SWAP2 POP POP JUMP JUMPDEST PUSH1 0x0 DUP3 PUSH2 0x2587 JUMPI PUSH4 0x4E487B71 PUSH1 0xE0 SHL PUSH1 0x0 MSTORE PUSH1 0x12 PUSH1 0x4 MSTORE PUSH1 0x24 PUSH1 0x0 REVERT JUMPDEST POP DIV SWAP1 JUMP JUMPDEST DUP1 DUP3 ADD DUP1 DUP3 GT ISZERO PUSH2 0x2564 JUMPI PUSH2 0x2564 PUSH2 0x2537 JUMP JUMPDEST PUSH1 0x0 PUSH1 0x1 DUP3 ADD PUSH2 0x25B1 JUMPI PUSH2 0x25B1 PUSH2 0x2537 JUMP JUMPDEST POP PUSH1 0x1 ADD SWAP1 JUMP JUMPDEST PUSH1 0x1F DUP3 GT ISZERO PUSH2 0x1F09 JUMPI PUSH1 0x0 DUP2 DUP2 MSTORE PUSH1 0x20 DUP2 KECCAK256 PUSH1 0x1F DUP6 ADD PUSH1 0x5 SHR DUP2 ADD PUSH1 0x20 DUP7 LT ISZERO PUSH2 0x25DF JUMPI POP DUP1 JUMPDEST PUSH1 0x1F DUP6 ADD PUSH1 0x5 SHR DUP3 ADD SWAP2 POP JUMPDEST DUP2 DUP2 LT ISZERO PUSH2 0x25FE JUMPI DUP3 DUP2 SSTORE PUSH1 0x1 ADD PUSH2 0x25EB JUMP JUMPDEST POP POP POP POP POP POP JUMP JUMPDEST DUP2 MLOAD PUSH8 0xFFFFFFFFFFFFFFFF DUP2 GT ISZERO PUSH2 0x2620 JUMPI PUSH2 0x2620 PUSH2 0x2235 JUMP JUMPDEST PUSH2 0x2634 DUP2 PUSH2 0x262E DUP5 SLOAD PUSH2 0x24FD JUMP JUMPDEST DUP5 PUSH2 0x25B8 JUMP JUMPDEST PUSH1 0x20 DUP1 PUSH1 0x1F DUP4 GT PUSH1 0x1 DUP2 EQ PUSH2 0x2669 JUMPI PUSH1 0x0 DUP5 ISZERO PUSH2 0x2651 JUMPI POP DUP6 DUP4 ADD MLOAD JUMPDEST PUSH1 0x0 NOT PUSH1 0x3 DUP7 SWAP1 SHL SHR NOT AND PUSH1 0x1 DUP6 SWAP1 SHL OR DUP6 SSTORE PUSH2 0x25FE JUMP JUMPDEST PUSH1 0x0 DUP6 DUP2 MSTORE PUSH1 0x20 DUP2 KECCAK256 PUSH1 0x1F NOT DUP7 AND SWAP2 JUMPDEST DUP3 DUP2 LT ISZERO PUSH2 0x2698 JUMPI DUP9 DUP7 ADD MLOAD DUP3 SSTORE SWAP5 DUP5 ADD SWAP5 PUSH1 0x1 SWAP1 SWAP2 ADD SWAP1 DUP5 ADD PUSH2 0x2679 JUMP JUMPDEST POP DUP6 DUP3 LT ISZERO PUSH2 0x26B6 JUMPI DUP8 DUP6 ADD MLOAD PUSH1 0x0 NOT PUSH1 0x3 DUP9 SWAP1 SHL PUSH1 0xF8 AND SHR NOT AND DUP2 SSTORE JUMPDEST POP POP POP POP POP PUSH1 0x1 SWAP1 DUP2 SHL ADD SWAP1 SSTORE POP JUMP JUMPDEST DUP3 DUP2 MSTORE PUSH1 0x40 PUSH1 0x20 DUP3 ADD MSTORE PUSH1 0x0 PUSH2 0x26DF PUSH1 0x40 DUP4 ADD DUP5 PUSH2 0x20FB JUMP JUMPDEST SWAP5 SWAP4 POP POP POP POP JUMP JUMPDEST PUSH1 0x40 DUP2 MSTORE PUSH1 0x0 PUSH2 0x26FA PUSH1 0x40 DUP4 ADD DUP6 PUSH2 0x20FB JUMP JUMPDEST SWAP1 POP DUP3 PUSH1 0x20 DUP4 ADD MSTORE SWAP4 SWAP3 POP POP POP JUMP JUMPDEST PUSH1 0x0 DUP2 PUSH2 0x2718 JUMPI PUSH2 0x2718 PUSH2 0x2537 JUMP JUMPDEST POP PUSH1 0x0 NOT ADD SWAP1 JUMP JUMPDEST PUSH1 0x0 PUSH1 0x20 DUP3 DUP5 SUB SLT ISZERO PUSH2 0x2732 JUMPI PUSH1 0x0 DUP1 REVERT JUMPDEST POP MLOAD SWAP2 SWAP1 POP JUMP JUMPDEST DUP2 DUP2 SUB DUP2 DUP2 GT ISZERO PUSH2 0x2564 JUMPI PUSH2 0x2564 PUSH2 0x2537 JUMP INVALID LOG2 PUSH5 0x6970667358 0x22 SLT KECCAK256 0xF9 0xB3 0x25 0xEC 0xDC LOG1 0xB6 0xA7 PUSH17 0xEA94C77D8E47433C43410D097F8C4FEDE7 0x2A 0xD2 SLT EXTCODEHASH COINBASE MSTORE PUSH5 0x736F6C6343 STOP ADDMOD EQ STOP CALLER "},"gasEstimates":{"creation":{"codeDepositCost":"2022800","executionCost":"infinite","totalCost":"infinite"},"external":{"CREDIT_SCORE_DECREMENT()":"240","CREDIT_SCORE_INCREMENT()":"240","MAX_INTEREST_RATE()":"285","MAX_LOAN_AMOUNT()":"306","MIN_LOAN_AMOUNT()":"263","checkLoanDefaults()":"infinite","contributeToPool(uint256,uint256)":"infinite","createExpensePool(string,string,uint256,uint256)":"infinite","creditProfiles(address)":"15378","daiToken()":"2426","emergencyWithdraw()":"infinite","ethUsdPriceFeed()":"2471","expensePools(uint256)":"infinite","fundLoan(uint256)":"infinite","getCreditProfile(address)":"15419","getExpensePool(uint256)":"infinite","getLoan(uint256)":"infinite","getUserLoans(address)":"infinite","getUserPools(address)":"infinite","getUserRemittances(address)":"infinite","loans(uint256)":"infinite","owner()":"2464","processRemittance(uint256)":"infinite","remittances(uint256)":"infinite","renounceOwnership()":"infinite","repayLoan(uint256)":"infinite","requestLoan(uint256,uint256,uint256,string)":"infinite","sendRemittance(address,uint256,string)":"infinite","transferOwnership(address)":"28468","usdcToken()":"2450","usdtToken()":"2426","usdtUsdPriceFeed()":"2382","userLoans(address,uint256)":"4788","userPools(address,uint256)":"4835","userRemittances(address,uint256)":"4811","withdrawFromPool(uint256)":"infinite"}},"methodIdentifiers":{"CREDIT_SCORE_DECREMENT()":"b828f1ba","CREDIT_SCORE_INCREMENT()":"73e437e2","MAX_INTEREST_RATE()":"34855d14","MAX_LOAN_AMOUNT()":"ceba1794","MIN_LOAN_AMOUNT()":"96fa212f","checkLoanDefaults()":"e5b1ea58","contributeToPool(uint256,uint256)":"3ad0d08f","createExpensePool(string,string,uint256,uint256)":"96a04866","creditProfiles(address)":"45171f26","daiToken()":"be22f546","emergencyWithdraw()":"db2e21bc","ethUsdPriceFeed()":"42f6fb29","expensePools(uint256)":"1f46aa86","fundLoan(uint256)":"846b909a","getCreditProfile(address)":"079bafe3","getExpensePool(uint256)":"bdeab9f1","getLoan(uint256)":"504006ca","getUserLoans(address)":"02bf321f","getUserPools(address)":"9816af58","getUserRemittances(address)":"99cf7c92","loans(uint256)":"e1ec3c68","owner()":"8da5cb5b","processRemittance(uint256)":"5e219d86","remittances(uint256)":"b4ea0d5f","renounceOwnership()":"715018a6","repayLoan(uint256)":"ab7b1c89","requestLoan(uint256,uint256,uint256,string)":"84733294","sendRemittance(address,uint256,string)":"7ac8f5a0","transferOwnership(address)":"f2fde38b","usdcToken()":"11eac855","usdtToken()":"a98ad46c","usdtUsdPriceFeed()":"9a3ed70b","userLoans(address,uint256)":"d8bad5bd","userPools(address,uint256)":"1064aa55","userRemittances(address,uint256)":"a3c6aba2","withdrawFromPool(uint256)":"30fc43ed"}},"storageLayout":{"storage":[{"astId":1544,"contract":"contracts/UniFiCore.sol:UniFiCore","label":"_status","offset":0,"slot":"0","type":"t_uint256"},{"astId":54,"contract":"contracts/UniFiCore.sol:UniFiCore","label":"_owner","offset":0,"slot":"1","type":"t_address"},{"astId":5005,"contract":"contracts/UniFiCore.sol:UniFiCore","label":"_poolIds","offset":0,"slot":"2","type":"t_uint256"},{"astId":5007,"contract":"contracts/UniFiCore.sol:UniFiCore","label":"_loanIds","offset":0,"slot":"3","type":"t_uint256"},{"astId":5009,"contract":"contracts/UniFiCore.sol:UniFiCore","label":"_remittanceIds","offset":0,"slot":"4","type":"t_uint256"},{"astId":5014,"contract":"contracts/UniFiCore.sol:UniFiCore","label":"expensePools","offset":0,"slot":"5","type":"t_mapping(t_uint256,t_struct(ExpensePool)4952_storage)"},{"astId":5019,"contract":"contracts/UniFiCore.sol:UniFiCore","label":"loans","offset":0,"slot":"6","type":"t_mapping(t_uint256,t_struct(Loan)4973_storage)"},{"astId":5024,"contract":"contracts/UniFiCore.sol:UniFiCore","label":"remittances","offset":0,"slot":"7","type":"t_mapping(t_uint256,t_struct(Remittance)5003_storage)"},{"astId":5029,"contract":"contracts/UniFiCore.sol:UniFiCore","label":"creditProfiles","offset":0,"slot":"8","type":"t_mapping(t_address,t_struct(CreditProfile)4988_storage)"},{"astId":5034,"contract":"contracts/UniFiCore.sol:UniFiCore","label":"userPools","offset":0,"slot":"9","type":"t_mapping(t_address,t_array(t_uint256)dyn_storage)"},{"astId":5039,"contract":"contracts/UniFiCore.sol:UniFiCore","label":"userLoans","offset":0,"slot":"10","type":"t_mapping(t_address,t_array(t_uint256)dyn_storage)"},{"astId":5044,"contract":"contracts/UniFiCore.sol:UniFiCore","label":"userRemittances","offset":0,"slot":"11","type":"t_mapping(t_address,t_array(t_uint256)dyn_storage)"},{"astId":5047,"contract":"contracts/UniFiCore.sol:UniFiCore","label":"usdtToken","offset":0,"slot":"12","type":"t_contract(IERC20)1013"},{"astId":5050,"contract":"contracts/UniFiCore.sol:UniFiCore","label":"usdcToken","offset":0,"slot":"13","type":"t_contract(IERC20)1013"},{"astId":5053,"contract":"contracts/UniFiCore.sol:UniFiCore","label":"daiToken","offset":0,"slot":"14","type":"t_contract(IERC20)1013"},{"astId":5056,"contract":"contracts/UniFiCore.sol:UniFiCore","label":"ethUsdPriceFeed","offset":0,"slot":"15","type":"t_contract(AggregatorV3Interface)45"},{"astId":5059,"contract":"contracts/UniFiCore.sol:UniFiCore","label":"usdtUsdPriceFeed","offset":0,"slot":"16","type":"t_contract(AggregatorV3Interface)45"}],"types":{"t_address":{"encoding":"inplace","label":"address","numberOfBytes":"20"},"t_array(t_address)dyn_storage":{"base":"t_address","encoding":"dynamic_array","label":"address[]","numberOfBytes":"32"},"t_array(t_uint256)dyn_storage":{"base":"t_uint256","encoding":"dynamic_array","label":"uint256[]","numberOfBytes":"32"},"t_bool":{"encoding":"inplace","label":"bool","numberOfBytes":"1"},"t_contract(AggregatorV3Interface)45":{"encoding":"inplace","label":"contract AggregatorV3Interface","numberOfBytes":"20"},"t_contract(IERC20)1013":{"encoding":"inplace","label":"contract IERC20","numberOfBytes":"20"},"t_mapping(t_address,t_array(t_uint256)dyn_storage)":{"encoding":"mapping","key":"t_address","label":"mapping(address => uint256[])","numberOfBytes":"32","value":"t_array(t_uint256)dyn_storage"},"t_mapping(t_address,t_struct(CreditProfile)4988_storage)":{"encoding":"mapping","key":"t_address","label":"mapping(address => struct UniFiCore.CreditProfile)","numberOfBytes":"32","value":"t_struct(CreditProfile)4988_storage"},"t_mapping(t_address,t_uint256)":{"encoding":"mapping","key":"t_address","label":"mapping(address => uint256)","numberOfBytes":"32","value":"t_uint256"},"t_mapping(t_uint256,t_struct(ExpensePool)4952_storage)":{"encoding":"mapping","key":"t_uint256","label":"mapping(uint256 => struct UniFiCore.ExpensePool)","numberOfBytes":"32","value":"t_struct(ExpensePool)4952_storage"},"t_mapping(t_uint256,t_struct(Loan)4973_storage)":{"encoding":"mapping","key":"t_uint256","label":"mapping(uint256 => struct UniFiCore.Loan)","numberOfBytes":"32","value":"t_struct(Loan)4973_storage"},"t_mapping(t_uint256,t_struct(Remittance)5003_storage)":{"encoding":"mapping","key":"t_uint256","label":"mapping(uint256 => struct UniFiCore.Remittance)","numberOfBytes":"32","value":"t_struct(Remittance)5003_storage"},"t_string_storage":{"encoding":"bytes","label":"string","numberOfBytes":"32"},"t_struct(CreditProfile)4988_storage":{"encoding":"inplace","label":"struct UniFiCore.CreditProfile","members":[{"astId":4975,"contract":"contracts/UniFiCore.sol:UniFiCore","label":"creditScore","offset":0,"slot":"0","type":"t_uint256"},{"astId":4977,"contract":"contracts/UniFiCore.sol:UniFiCore","label":"totalBorrowed","offset":0,"slot":"1","type":"t_uint256"},{"astId":4979,"contract":"contracts/UniFiCore.sol:UniFiCore","label":"totalRepaid","offset":0,"slot":"2","type":"t_uint256"},{"astId":4981,"contract":"contracts/UniFiCore.sol:UniFiCore","label":"activeLoans","offset":0,"slot":"3","type":"t_uint256"},{"astId":4983,"contract":"contracts/UniFiCore.sol:UniFiCore","label":"completedLoans","offset":0,"slot":"4","type":"t_uint256"},{"astId":4985,"contract":"contracts/UniFiCore.sol:UniFiCore","label":"defaultedLoans","offset":0,"slot":"5","type":"t_uint256"},{"astId":4987,"contract":"contracts/UniFiCore.sol:UniFiCore","label":"lastActivity","offset":0,"slot":"6","type":"t_uint256"}],"numberOfBytes":"224"},"t_struct(ExpensePool)4952_storage":{"encoding":"inplace","label":"struct UniFiCore.ExpensePool","members":[{"astId":4930,"contract":"contracts/UniFiCore.sol:UniFiCore","label":"poolId","offset":0,"slot":"0","type":"t_uint256"},{"astId":4932,"contract":"contracts/UniFiCore.sol:UniFiCore","label":"name","offset":0,"slot":"1","type":"t_string_storage"},{"astId":4934,"contract":"contracts/UniFiCore.sol:UniFiCore","label":"description","offset":0,"slot":"2","type":"t_string_storage"},{"astId":4936,"contract":"contracts/UniFiCore.sol:UniFiCore","label":"creator","offset":0,"slot":"3","type":"t_address"},{"astId":4938,"contract":"contracts/UniFiCore.sol:UniFiCore","label":"totalAmount","offset":0,"slot":"4","type":"t_uint256"},{"astId":4940,"contract":"contracts/UniFiCore.sol:UniFiCore","label":"targetAmount","offset":0,"slot":"5","type":"t_uint256"},{"astId":4942,"contract":"contracts/UniFiCore.sol:UniFiCore","label":"deadline","offset":0,"slot":"6","type":"t_uint256"},{"astId":4944,"contract":"contracts/UniFiCore.sol:UniFiCore","label":"isActive","offset":0,"slot":"7","type":"t_bool"},{"astId":4948,"contract":"contracts/UniFiCore.sol:UniFiCore","label":"contributions","offset":0,"slot":"8","type":"t_mapping(t_address,t_uint256)"},{"astId":4951,"contract":"contracts/UniFiCore.sol:UniFiCore","label":"contributors","offset":0,"slot":"9","type":"t_array(t_address)dyn_storage"}],"numberOfBytes":"320"},"t_struct(Loan)4973_storage":{"encoding":"inplace","label":"struct UniFiCore.Loan","members":[{"astId":4954,"contract":"contracts/UniFiCore.sol:UniFiCore","label":"loanId","offset":0,"slot":"0","type":"t_uint256"},{"astId":4956,"contract":"contracts/UniFiCore.sol:UniFiCore","label":"borrower","offset":0,"slot":"1","type":"t_address"},{"astId":4958,"contract":"contracts/UniFiCore.sol:UniFiCore","label":"lender","offset":0,"slot":"2","type":"t_address"},{"astId":4960,"contract":"contracts/UniFiCore.sol:UniFiCore","label":"amount","offset":0,"slot":"3","type":"t_uint256"},{"astId":4962,"contract":"contracts/UniFiCore.sol:UniFiCore","label":"interestRate","offset":0,"slot":"4","type":"t_uint256"},{"astId":4964,"contract":"contracts/UniFiCore.sol:UniFiCore","label":"repaymentDate","offset":0,"slot":"5","type":"t_uint256"},{"astId":4966,"contract":"contracts/UniFiCore.sol:UniFiCore","label":"borrowedAt","offset":0,"slot":"6","type":"t_uint256"},{"astId":4968,"contract":"contracts/UniFiCore.sol:UniFiCore","label":"isRepaid","offset":0,"slot":"7","type":"t_bool"},{"astId":4970,"contract":"contracts/UniFiCore.sol:UniFiCore","label":"isDefaulted","offset":1,"slot":"7","type":"t_bool"},{"astId":4972,"contract":"contracts/UniFiCore.sol:UniFiCore","label":"purpose","offset":0,"slot":"8","type":"t_string_storage"}],"numberOfBytes":"288"},"t_struct(Remittance)5003_storage":{"encoding":"inplace","label":"struct UniFiCore.Remittance","members":[{"astId":4990,"contract":"contracts/UniFiCore.sol:UniFiCore","label":"remittanceId","offset":0,"slot":"0","type":"t_uint256"},{"astId":4992,"contract":"contracts/UniFiCore.sol:UniFiCore","label":"sender","offset":0,"slot":"1","type":"t_address"},{"astId":4994,"contract":"contracts/UniFiCore.sol:UniFiCore","label":"recipient","offset":0,"slot":"2","type":"t_address"},{"astId":4996,"contract":"contracts/UniFiCore.sol:UniFiCore","label":"amount","offset":0,"slot":"3","type":"t_uint256"},{"astId":4998,"contract":"contracts/UniFiCore.sol:UniFiCore","label":"timestamp","offset":0,"slot":"4","type":"t_uint256"},{"astId":5000,"contract":"contracts/UniFiCore.sol:UniFiCore","label":"currency","offset":0,"slot":"5","type":"t_string_storage"},{"astId":5002,"contract":"contracts/UniFiCore.sol:UniFiCore","label":"isProcessed","offset":0,"slot":"6","type":"t_bool"}],"numberOfBytes":"224"},"t_uint256":{"encoding":"inplace","label":"uint256","numberOfBytes":"32"}}},"userdoc":{"kind":"user","methods":{},"version":1}}}}