{"contracts/IPFSStorage.sol":{"IPFSStorage":{"abi":[{"inputs":[],"stateMutability":"nonpayable","type":"constructor"},{"inputs":[{"internalType":"address","name":"owner","type":"address"}],"name":"OwnableInvalidOwner","type":"error"},{"inputs":[{"internalType":"address","name":"account","type":"address"}],"name":"OwnableUnauthorizedAccount","type":"error"},{"anonymous":false,"inputs":[{"indexed":true,"internalType":"uint256","name":"documentId","type":"uint256"},{"indexed":true,"internalType":"address","name":"owner","type":"address"}],"name":"DocumentDeactivated","type":"event"},{"anonymous":false,"inputs":[{"indexed":true,"internalType":"string","name":"documentType","type":"string"},{"indexed":false,"internalType":"string","name":"description","type":"string"}],"name":"DocumentTypeAdded","type":"event"},{"anonymous":false,"inputs":[{"indexed":true,"internalType":"string","name":"documentType","type":"string"}],"name":"DocumentTypeDeactivated","type":"event"},{"anonymous":false,"inputs":[{"indexed":true,"internalType":"uint256","name":"documentId","type":"uint256"},{"indexed":true,"internalType":"address","name":"owner","type":"address"},{"indexed":false,"internalType":"string","name":"ipfsHash","type":"string"},{"indexed":false,"internalType":"string","name":"documentType","type":"string"}],"name":"DocumentUploaded","type":"event"},{"anonymous":false,"inputs":[{"indexed":true,"internalType":"uint256","name":"documentId","type":"uint256"},{"indexed":true,"internalType":"address","name":"owner","type":"address"}],"name":"DocumentVerified","type":"event"},{"anonymous":false,"inputs":[{"indexed":true,"internalType":"address","name":"previousOwner","type":"address"},{"indexed":true,"internalType":"address","name":"newOwner","type":"address"}],"name":"OwnershipTransferred","type":"event"},{"inputs":[{"internalType":"string","name":"_name","type":"string"},{"internalType":"string","name":"_description","type":"string"},{"internalType":"uint256","name":"_maxSize","type":"uint256"}],"name":"addDocumentType","outputs":[],"stateMutability":"nonpayable","type":"function"},{"inputs":[{"internalType":"uint256","name":"_documentId","type":"uint256"}],"name":"deactivateDocument","outputs":[],"stateMutability":"nonpayable","type":"function"},{"inputs":[{"internalType":"string","name":"_name","type":"string"}],"name":"deactivateDocumentType","outputs":[],"stateMutability":"nonpayable","type":"function"},{"inputs":[{"internalType":"string","name":"","type":"string"}],"name":"documentTypes","outputs":[{"internalType":"string","name":"name","type":"string"},{"internalType":"string","name":"description","type":"string"},{"internalType":"bool","name":"isActive","type":"bool"},{"internalType":"uint256","name":"maxSize","type":"uint256"}],"stateMutability":"view","type":"function"},{"inputs":[{"internalType":"uint256","name":"","type":"uint256"}],"name":"documents","outputs":[{"internalType":"uint256","name":"documentId","type":"uint256"},{"internalType":"address","name":"owner","type":"address"},{"internalType":"string","name":"ipfsHash","type":"string"},{"internalType":"string","name":"documentType","type":"string"},{"internalType":"string","name":"description","type":"string"},{"internalType":"uint256","name":"uploadDate","type":"uint256"},{"internalType":"bool","name":"isVerified","type":"bool"},{"internalType":"bool","name":"isActive","type":"bool"}],"stateMutability":"view","type":"function"},{"inputs":[{"internalType":"uint256","name":"_documentId","type":"uint256"}],"name":"getDocument","outputs":[{"internalType":"uint256","name":"documentId","type":"uint256"},{"internalType":"address","name":"owner","type":"address"},{"internalType":"string","name":"ipfsHash","type":"string"},{"internalType":"string","name":"documentType","type":"string"},{"internalType":"string","name":"description","type":"string"},{"internalType":"uint256","name":"uploadDate","type":"uint256"},{"internalType":"bool","name":"isVerified","type":"bool"},{"internalType":"bool","name":"isActive","type":"bool"}],"stateMutability":"view","type":"function"},{"inputs":[],"name":"getDocumentCount","outputs":[{"internalType":"uint256","name":"","type":"uint256"}],"stateMutability":"view","type":"function"},{"inputs":[{"internalType":"string","name":"_name","type":"string"}],"name":"getDocumentType","outputs":[{"internalType":"string","name":"name","type":"string"},{"internalType":"string","name":"description","type":"string"},{"internalType":"bool","name":"isActive","type":"bool"},{"internalType":"uint256","name":"maxSize","type":"uint256"}],"stateMutability":"view","type":"function"},{"inputs":[{"internalType":"string","name":"_documentType","type":"string"}],"name":"getDocumentsByType","outputs":[{"internalType":"uint256[]","name":"","type":"uint256[]"}],"stateMutability":"view","type":"function"},{"inputs":[],"name":"getSupportedDocumentTypes","outputs":[{"internalType":"string[]","name":"","type":"string[]"}],"stateMutability":"view","type":"function"},{"inputs":[{"internalType":"address","name":"_user","type":"address"}],"name":"getUserDocuments","outputs":[{"internalType":"uint256[]","name":"","type":"uint256[]"}],"stateMutability":"view","type":"function"},{"inputs":[],"name":"getVerifiedDocuments","outputs":[{"internalType":"uint256[]","name":"","type":"uint256[]"}],"stateMutability":"view","type":"function"},{"inputs":[{"internalType":"string","name":"_ipfsHash","type":"string"}],"name":"isHashVerified","outputs":[{"internalType":"bool","name":"","type":"bool"}],"stateMutability":"view","type":"function"},{"inputs":[],"name":"owner","outputs":[{"internalType":"address","name":"","type":"address"}],"stateMutability":"view","type":"function"},{"inputs":[{"internalType":"uint256","name":"_documentId","type":"uint256"}],"name":"reactivateDocument","outputs":[],"stateMutability":"nonpayable","type":"function"},{"inputs":[],"name":"renounceOwnership","outputs":[],"stateMutability":"nonpayable","type":"function"},{"inputs":[{"internalType":"uint256","name":"","type":"uint256"}],"name":"supportedDocumentTypes","outputs":[{"internalType":"string","name":"","type":"string"}],"stateMutability":"view","type":"function"},{"inputs":[{"internalType":"address","name":"newOwner","type":"address"}],"name":"transferOwnership","outputs":[],"stateMutability":"nonpayable","type":"function"},{"inputs":[{"internalType":"string","name":"_ipfsHash","type":"string"},{"internalType":"string","name":"_documentType","type":"string"},{"internalType":"string","name":"_description","type":"string"}],"name":"uploadDocument","outputs":[{"internalType":"uint256","name":"","type":"uint256"}],"stateMutability":"nonpayable","type":"function"},{"inputs":[{"internalType":"string[]","name":"_ipfsHashes","type":"string[]"},{"internalType":"string[]","name":"_documentTypes","type":"string[]"},{"internalType":"string[]","name":"_descriptions","type":"string[]"}],"name":"uploadMultipleDocuments","outputs":[{"internalType":"uint256[]","name":"","type":"uint256[]"}],"stateMutability":"nonpayable","type":"function"},{"inputs":[{"internalType":"address","name":"","type":"address"},{"internalType":"uint256","name":"","type":"uint256"}],"name":"userDocuments","outputs":[{"internalType":"uint256","name":"","type":"uint256"}],"stateMutability":"view","type":"function"},{"inputs":[{"internalType":"string","name":"","type":"string"}],"name":"verifiedHashes","outputs":[{"internalType":"bool","name":"","type":"bool"}],"stateMutability":"view","type":"function"},{"inputs":[{"internalType":"uint256","name":"_documentId","type":"uint256"}],"name":"verifyDocument","outputs":[],"stateMutability":"nonpayable","type":"function"}],"devdoc":{"details":"IPFS metadata storage for UniFi DeFi platform","errors":{"OwnableInvalidOwner(address)":[{"details":"The owner is not a valid owner account. (eg. `address(0)`)"}],"OwnableUnauthorizedAccount(address)":[{"details":"The caller account is not authorized to perform an operation."}]},"kind":"dev","methods":{"owner()":{"details":"Returns the address of the current owner."},"renounceOwnership()":{"details":"Leaves the contract without owner. It will not be possible to call `onlyOwner` functions. Can only be called by the current owner. NOTE: Renouncing ownership will leave the contract without an owner, thereby disabling any functionality that is only available to the owner."},"transferOwnership(address)":{"details":"Transfers ownership of the contract to a new account (`newOwner`). Can only be called by the current owner."}},"title":"IPFSStorage","version":1},"evm":{"bytecode":{"linkReferences":{},"object":"60806040523480156200001157600080fd5b5033806200003957604051631e4fbdf760e01b81526000600482015260240160405180910390fd5b6200004481620002fe565b50620000b26040518060400160405280600a8152602001691cdd1d59195b9d17da5960b21b8152506040518060400160405280601381526020017f53747564656e7420494420446f63756d656e7400000000000000000000000000815250621000006200034e60201b60201c565b620001326040518060400160405280601581526020017f756e69766572736974795f7472616e73637269707400000000000000000000008152506040518060400160405280601581526020017f556e6976657273697479205472616e7363726970740000000000000000000000815250625000006200034e60201b60201c565b620001946040518060400160405280600e81526020016d1b1bd85b97d859dc99595b595b9d60921b8152506040518060400160405280600e81526020016d131bd85b881059dc99595b595b9d60921b815250622000006200034e60201b60201c565b620001f86040518060400160405280600f81526020016e195e1c195b9cd957dc9958d95a5c1d608a1b8152506040518060400160405280600f81526020016e115e1c195b9cd948149958d95a5c1d608a1b815250621000006200034e60201b60201c565b620002786040518060400160405280601781526020017f7363686f6c6172736869705f6170706c69636174696f6e0000000000000000008152506040518060400160405280601781526020017f5363686f6c617273686970204170706c69636174696f6e000000000000000000815250623000006200034e60201b60201c565b620002f86040518060400160405280601581526020017f6964656e746974795f766572696669636174696f6e00000000000000000000008152506040518060400160405280601581526020017f4964656e7469747920566572696669636174696f6e0000000000000000000000815250622000006200034e60201b60201c565b62000627565b600080546001600160a01b038381166001600160a01b0319831681178455604051919092169283917f8be0079c531659141344cd1fd0a4f28419497f9722a3daafe3b4186f6b6457e09190a35050565b600060048460405162000362919062000463565b90815260405190819003602001902090508062000380858262000526565b506001810162000391848262000526565b5060028101805460ff19166001908117909155600382018390556006805491820181556000527ff652222313e28459528d920b65115c16c04f3efc82aaedc97be59f3f377c0d3f01620003e5858262000526565b5083604051620003f6919062000463565b60405180910390207f73903b186f572db44d486d4827957d565add734304fdd0771e04d22094fa5e87846040516200042f9190620005f2565b60405180910390a250505050565b60005b838110156200045a57818101518382015260200162000440565b50506000910152565b60008251620004778184602087016200043d565b9190910192915050565b634e487b7160e01b600052604160045260246000fd5b600181811c90821680620004ac57607f821691505b602082108103620004cd57634e487b7160e01b600052602260045260246000fd5b50919050565b601f8211156200052157600081815260208120601f850160051c81016020861015620004fc5750805b601f850160051c820191505b818110156200051d5782815560010162000508565b5050505b505050565b81516001600160401b0381111562000542576200054262000481565b6200055a8162000553845462000497565b84620004d3565b602080601f831160018114620005925760008415620005795750858301515b600019600386901b1c1916600185901b1785556200051d565b600085815260208120601f198616915b82811015620005c357888601518255948401946001909101908401620005a2565b5085821015620005e25787850151600019600388901b60f8161c191681555b5050505050600190811b01905550565b6020815260008251806020840152620006138160408501602087016200043d565b601f01601f19169190910160400192915050565b6120e280620006376000396000f3fe608060405234801561001057600080fd5b506004361061014d5760003560e01c80638897b932116100c3578063a403fe081161007c578063a403fe0814610303578063a91f947d14610316578063bee7809f14610329578063c2ed2b0514610331578063c6dc7e5d14610344578063f2fde38b1461035757600080fd5b80638897b9321461026f5780638da5cb5b1461028f57806390a4b162146102aa578063969d13b0146102bd5780639e987f95146102dd578063a11868fc146102f057600080fd5b80633f9b250a116101155780633f9b250a146101e4578063577a1b921461020b5780635d5449011461021e578063661d6ca9146102415780636dda61d914610254578063715018a61461026757600080fd5b80630da7d835146101525780630dacc18114610195578063389c1d66146101aa5780633cd6b9cd146101bd5780633d1c2273146101d2575b600080fd5b6101806101603660046119e4565b805160208183018101805160058252928201919093012091525460ff1681565b60405190151581526020015b60405180910390f35b6101a86101a3366004611a18565b61036a565b005b6101a86101b8366004611a84565b61043b565b6101c5610531565b60405161018c9190611aed565b6001545b60405190815260200161018c565b6101f76101f2366004611a84565b61060a565b60405161018c989796959493929190611b4f565b6101d6610219366004611be1565b610829565b61023161022c3660046119e4565b61085a565b60405161018c9493929190611c0b565b61023161024f3660046119e4565b6109a1565b6101a8610262366004611a84565b610b0a565b6101a8610c45565b61028261027d3660046119e4565b610c59565b60405161018c9190611c44565b6000546040516001600160a01b03909116815260200161018c565b6102826102b8366004611c88565b610dee565b6102d06102cb366004611a84565b610e5a565b60405161018c9190611caa565b6101d66102eb366004611cbd565b610f06565b6102826102fe366004611de2565b610f1b565b6101a86103113660046119e4565b611053565b6101806103243660046119e4565b611141565b61028261116c565b6101f761033f366004611a84565b6112e1565b6101a8610352366004611a84565b6114cc565b6101a8610365366004611c88565b6115a3565b6103726115e1565b60008351116103b85760405162461bcd60e51b815260206004820152600d60248201526c13985b59481c995c5d5a5c9959609a1b60448201526064015b60405180910390fd5b6004836040516103c89190611e5f565b9081526040519081900360200190206002015460ff161561042b5760405162461bcd60e51b815260206004820152601c60248201527f446f63756d656e74207479706520616c7265616479206578697374730000000060448201526064016103af565b61043683838361160e565b505050565b600081815260026020526040902060018101546001600160a01b0316331461049a5760405162461bcd60e51b81526020600482015260126024820152712737ba103237b1bab6b2b73a1037bbb732b960711b60448201526064016103af565b6006810154610100900460ff166104f35760405162461bcd60e51b815260206004820152601c60248201527f446f63756d656e7420616c72656164792064656163746976617465640000000060448201526064016103af565b60068101805461ff0019169055604051339083907f4966a2290137d66887b5573d56bc34d4851569bfb197812fe2e73b59ebd2e5a790600090a35050565b60606006805480602002602001604051908101604052809291908181526020016000905b8282101561060157838290600052602060002001805461057490611e7b565b80601f01602080910402602001604051908101604052809291908181526020018280546105a090611e7b565b80156105ed5780601f106105c2576101008083540402835291602001916105ed565b820191906000526020600020905b8154815290600101906020018083116105d057829003601f168201915b505050505081526020019060010190610555565b50505050905090565b60008181526002602081905260408220805460018201546005830154600684015494840180548796606096879687968a9687968796949593946001600160a01b0390931693909260038701926004880192909160ff8083169261010090041690869061067590611e7b565b80601f01602080910402602001604051908101604052809291908181526020018280546106a190611e7b565b80156106ee5780601f106106c3576101008083540402835291602001916106ee565b820191906000526020600020905b8154815290600101906020018083116106d157829003601f168201915b5050505050955084805461070190611e7b565b80601f016020809104026020016040519081016040528092919081815260200182805461072d90611e7b565b801561077a5780601f1061074f5761010080835404028352916020019161077a565b820191906000526020600020905b81548152906001019060200180831161075d57829003601f168201915b5050505050945083805461078d90611e7b565b80601f01602080910402602001604051908101604052809291908181526020018280546107b990611e7b565b80156108065780601f106107db57610100808354040283529160200191610806565b820191906000526020600020905b8154815290600101906020018083116107e957829003601f168201915b505050505093509850985098509850985098509850985050919395975091939597565b6003602052816000526040600020818154811061084557600080fd5b90600052602060002001600091509150505481565b805160208183018101805160048252928201919093012091528054819061088090611e7b565b80601f01602080910402602001604051908101604052809291908181526020018280546108ac90611e7b565b80156108f95780601f106108ce576101008083540402835291602001916108f9565b820191906000526020600020905b8154815290600101906020018083116108dc57829003601f168201915b50505050509080600101805461090e90611e7b565b80601f016020809104026020016040519081016040528092919081815260200182805461093a90611e7b565b80156109875780601f1061095c57610100808354040283529160200191610987565b820191906000526020600020905b81548152906001019060200180831161096a57829003601f168201915b505050506002830154600390930154919260ff1691905084565b60608060008060006004866040516109b99190611e5f565b9081526040519081900360200190206002810154600382015482549293508392600184019260ff16919084906109ee90611e7b565b80601f0160208091040260200160405190810160405280929190818152602001828054610a1a90611e7b565b8015610a675780601f10610a3c57610100808354040283529160200191610a67565b820191906000526020600020905b815481529060010190602001808311610a4a57829003601f168201915b50505050509350828054610a7a90611e7b565b80601f0160208091040260200160405190810160405280929190818152602001828054610aa690611e7b565b8015610af35780601f10610ac857610100808354040283529160200191610af3565b820191906000526020600020905b815481529060010190602001808311610ad657829003601f168201915b505050505092509450945094509450509193509193565b610b126115e1565b600081815260026020526040902060018101546001600160a01b0316610b745760405162461bcd60e51b8152602060048201526017602482015276111bd8dd5b595b9d08191bd95cc81b9bdd08195e1a5cdd604a1b60448201526064016103af565b6006810154610100900460ff16610bc35760405162461bcd60e51b8152602060048201526013602482015272446f63756d656e74206e6f742061637469766560681b60448201526064016103af565b60068101805460ff19166001908117909155604051600590610be9906002850190611f28565b908152604051908190036020018120805492151560ff199093169290921790915560018201546001600160a01b03169083907f6966a20715f4337f34fd08d8aa190a3c343cf21ad67677b447632194d8d6030890600090a35050565b610c4d6115e1565b610c5760006116f1565b565b606060006001546001600160401b03811115610c7757610c7761192f565b604051908082528060200260200182016040528015610ca0578160200160208202803683370190505b509050600060015b6001548111610d4a57848051906020012060026000838152602001908152602001600020600301604051610cdc9190611f28565b6040518091039020148015610d075750600081815260026020526040902060060154610100900460ff165b15610d385780838381518110610d1f57610d1f611f34565b602090810291909101015281610d3481611f4a565b9250505b80610d4281611f4a565b915050610ca8565b506000816001600160401b03811115610d6557610d6561192f565b604051908082528060200260200182016040528015610d8e578160200160208202803683370190505b50905060005b82811015610de557838181518110610dae57610dae611f34565b6020026020010151828281518110610dc857610dc8611f34565b602090810291909101015280610ddd81611f4a565b915050610d94565b50949350505050565b6001600160a01b038116600090815260036020908152604091829020805483518184028101840190945280845260609392830182828015610e4e57602002820191906000526020600020905b815481526020019060010190808311610e3a575b50505050509050919050565b60068181548110610e6a57600080fd5b906000526020600020016000915090508054610e8590611e7b565b80601f0160208091040260200160405190810160405280929190818152602001828054610eb190611e7b565b8015610efe5780601f10610ed357610100808354040283529160200191610efe565b820191906000526020600020905b815481529060010190602001808311610ee157829003601f168201915b505050505081565b6000610f13848484611741565b949350505050565b606082518451148015610f2f575081518351145b610f7b5760405162461bcd60e51b815260206004820152601c60248201527f417272617973206d75737420686176652073616d65206c656e6774680000000060448201526064016103af565b600084516001600160401b03811115610f9657610f9661192f565b604051908082528060200260200182016040528015610fbf578160200160208202803683370190505b50905060005b8551811015610de557611024868281518110610fe357610fe3611f34565b6020026020010151868381518110610ffd57610ffd611f34565b602002602001015186848151811061101757611017611f34565b6020026020010151611741565b82828151811061103657611036611f34565b60209081029190910101528061104b81611f4a565b915050610fc5565b61105b6115e1565b60048160405161106b9190611e5f565b9081526040519081900360200190206002015460ff166110cd5760405162461bcd60e51b815260206004820152601860248201527f446f63756d656e742074797065206e6f7420616374697665000000000000000060448201526064016103af565b60006004826040516110df9190611e5f565b908152604051908190036020018120600201805492151560ff199093169290921790915561110e908290611e5f565b604051908190038120907f15a74ac3a5f7d299b4e424bad2ec2bf9e1fe1316fb6f75a3eaab795184ab757990600090a250565b60006005826040516111539190611e5f565b9081526040519081900360200190205460ff1692915050565b606060006001546001600160401b0381111561118a5761118a61192f565b6040519080825280602002602001820160405280156111b3578160200160208202803683370190505b509050600060015b600154811161123e5760008181526002602052604090206006015460ff1680156111fb5750600081815260026020526040902060060154610100900460ff165b1561122c578083838151811061121357611213611f34565b60209081029190910101528161122881611f4a565b9250505b8061123681611f4a565b9150506111bb565b506000816001600160401b038111156112595761125961192f565b604051908082528060200260200182016040528015611282578160200160208202803683370190505b50905060005b828110156112d9578381815181106112a2576112a2611f34565b60200260200101518282815181106112bc576112bc611f34565b6020908102919091010152806112d181611f4a565b915050611288565b509392505050565b600260208190526000918252604090912080546001820154928201805491936001600160a01b0316929161131490611e7b565b80601f016020809104026020016040519081016040528092919081815260200182805461134090611e7b565b801561138d5780601f106113625761010080835404028352916020019161138d565b820191906000526020600020905b81548152906001019060200180831161137057829003601f168201915b5050505050908060030180546113a290611e7b565b80601f01602080910402602001604051908101604052809291908181526020018280546113ce90611e7b565b801561141b5780601f106113f05761010080835404028352916020019161141b565b820191906000526020600020905b8154815290600101906020018083116113fe57829003601f168201915b50505050509080600401805461143090611e7b565b80601f016020809104026020016040519081016040528092919081815260200182805461145c90611e7b565b80156114a95780601f1061147e576101008083540402835291602001916114a9565b820191906000526020600020905b81548152906001019060200180831161148c57829003601f168201915b50505050600583015460069093015491929160ff80821692506101009091041688565b6114d46115e1565b600081815260026020526040902060018101546001600160a01b03166115365760405162461bcd60e51b8152602060048201526017602482015276111bd8dd5b595b9d08191bd95cc81b9bdd08195e1a5cdd604a1b60448201526064016103af565b6006810154610100900460ff16156115905760405162461bcd60e51b815260206004820152601760248201527f446f63756d656e7420616c72656164792061637469766500000000000000000060448201526064016103af565b600601805461ff00191661010017905550565b6115ab6115e1565b6001600160a01b0381166115d557604051631e4fbdf760e01b8152600060048201526024016103af565b6115de816116f1565b50565b6000546001600160a01b03163314610c575760405163118cdaa760e01b81523360048201526024016103af565b60006004846040516116209190611e5f565b90815260405190819003602001902090508061163c8582611fbf565b506001810161164b8482611fbf565b5060028101805460ff19166001908117909155600382018390556006805491820181556000527ff652222313e28459528d920b65115c16c04f3efc82aaedc97be59f3f377c0d3f0161169d8582611fbf565b50836040516116ac9190611e5f565b60405180910390207f73903b186f572db44d486d4827957d565add734304fdd0771e04d22094fa5e87846040516116e39190611caa565b60405180910390a250505050565b600080546001600160a01b038381166001600160a01b0319831681178455604051919092169283917f8be0079c531659141344cd1fd0a4f28419497f9722a3daafe3b4186f6b6457e09190a35050565b6000808451116117885760405162461bcd60e51b815260206004820152601260248201527112541194c81a185cda081c995c5d5a5c995960721b60448201526064016103af565b6004836040516117989190611e5f565b9081526040519081900360200190206002015460ff166117fa5760405162461bcd60e51b815260206004820152601b60248201527f446f63756d656e742074797065206e6f7420737570706f72746564000000000060448201526064016103af565b60008251116118425760405162461bcd60e51b815260206004820152601460248201527311195cd8dc9a5c1d1a5bdb881c995c5d5a5c995960621b60448201526064016103af565b6001805490600061185283611f4a565b909155505060018054600081815260026020819052604090912082815592830180546001600160a01b0319163317905590919081016118918782611fbf565b50600381016118a08682611fbf565b50600481016118af8582611fbf565b5042600582015560068101805461ff001916610100179055336000818152600360209081526040808320805460018101825590845291909220018490555183907fbc1a1ccf8342004af7abc5b367be5beb32916a886fa6a400ae874b3e5ebbc2729061191e908a908a9061207e565b60405180910390a350949350505050565b634e487b7160e01b600052604160045260246000fd5b604051601f8201601f191681016001600160401b038111828210171561196d5761196d61192f565b604052919050565b600082601f83011261198657600080fd5b81356001600160401b0381111561199f5761199f61192f565b6119b2601f8201601f1916602001611945565b8181528460208386010111156119c757600080fd5b816020850160208301376000918101602001919091529392505050565b6000602082840312156119f657600080fd5b81356001600160401b03811115611a0c57600080fd5b610f1384828501611975565b600080600060608486031215611a2d57600080fd5b83356001600160401b0380821115611a4457600080fd5b611a5087838801611975565b94506020860135915080821115611a6657600080fd5b50611a7386828701611975565b925050604084013590509250925092565b600060208284031215611a9657600080fd5b5035919050565b60005b83811015611ab8578181015183820152602001611aa0565b50506000910152565b60008151808452611ad9816020860160208601611a9d565b601f01601f19169290920160200192915050565b6000602080830181845280855180835260408601915060408160051b870101925083870160005b82811015611b4257603f19888603018452611b30858351611ac1565b94509285019290850190600101611b14565b5092979650505050505050565b8881526001600160a01b038816602082015261010060408201819052600090611b7a8382018a611ac1565b90508281036060840152611b8e8189611ac1565b90508281036080840152611ba28188611ac1565b60a0840196909652505091151560c0830152151560e09091015295945050505050565b80356001600160a01b0381168114611bdc57600080fd5b919050565b60008060408385031215611bf457600080fd5b611bfd83611bc5565b946020939093013593505050565b608081526000611c1e6080830187611ac1565b8281036020840152611c308187611ac1565b941515604084015250506060015292915050565b6020808252825182820181905260009190848201906040850190845b81811015611c7c57835183529284019291840191600101611c60565b50909695505050505050565b600060208284031215611c9a57600080fd5b611ca382611bc5565b9392505050565b602081526000611ca36020830184611ac1565b600080600060608486031215611cd257600080fd5b83356001600160401b0380821115611ce957600080fd5b611cf587838801611975565b94506020860135915080821115611d0b57600080fd5b611d1787838801611975565b93506040860135915080821115611d2d57600080fd5b50611d3a86828701611975565b9150509250925092565b600082601f830112611d5557600080fd5b813560206001600160401b0380831115611d7157611d7161192f565b8260051b611d80838201611945565b9384528581018301938381019088861115611d9a57600080fd5b84880192505b85831015611dd657823584811115611db85760008081fd5b611dc68a87838c0101611975565b8352509184019190840190611da0565b98975050505050505050565b600080600060608486031215611df757600080fd5b83356001600160401b0380821115611e0e57600080fd5b611e1a87838801611d44565b94506020860135915080821115611e3057600080fd5b611e3c87838801611d44565b93506040860135915080821115611e5257600080fd5b50611d3a86828701611d44565b60008251611e71818460208701611a9d565b9190910192915050565b600181811c90821680611e8f57607f821691505b602082108103611eaf57634e487b7160e01b600052602260045260246000fd5b50919050565b60008154611ec281611e7b565b60018281168015611eda5760018114611eef57611f1e565b60ff1984168752821515830287019450611f1e565b8560005260208060002060005b85811015611f155781548a820152908401908201611efc565b50505082870194505b5050505092915050565b6000611ca38284611eb5565b634e487b7160e01b600052603260045260246000fd5b600060018201611f6a57634e487b7160e01b600052601160045260246000fd5b5060010190565b601f82111561043657600081815260208120601f850160051c81016020861015611f985750805b601f850160051c820191505b81811015611fb757828155600101611fa4565b505050505050565b81516001600160401b03811115611fd857611fd861192f565b611fec81611fe68454611e7b565b84611f71565b602080601f83116001811461202157600084156120095750858301515b600019600386901b1c1916600185901b178555611fb7565b600085815260208120601f198616915b8281101561205057888601518255948401946001909101908401612031565b508582101561206e5787850151600019600388901b60f8161c191681555b5050505050600190811b01905550565b6040815260006120916040830185611ac1565b82810360208401526120a38185611ac1565b9594505050505056fea26469706673582212202a578b663dbb71ebe2f3b62452c1fc0db79334d82d721a695f9d20f3dfc3d2dd64736f6c63430008140033","opcodes":"PUSH1 0x80 PUSH1 0x40 MSTORE CALLVALUE DUP1 ISZERO PUSH3 0x11 JUMPI PUSH1 0x0 DUP1 REVERT JUMPDEST POP CALLER DUP1 PUSH3 0x39 JUMPI PUSH1 0x40 MLOAD PUSH4 0x1E4FBDF7 PUSH1 0xE0 SHL DUP2 MSTORE PUSH1 0x0 PUSH1 0x4 DUP3 ADD MSTORE PUSH1 0x24 ADD PUSH1 0x40 MLOAD DUP1 SWAP2 SUB SWAP1 REVERT JUMPDEST PUSH3 0x44 DUP2 PUSH3 0x2FE JUMP JUMPDEST POP PUSH3 0xB2 PUSH1 0x40 MLOAD DUP1 PUSH1 0x40 ADD PUSH1 0x40 MSTORE DUP1 PUSH1 0xA DUP2 MSTORE PUSH1 0x20 ADD PUSH10 0x1CDD1D59195B9D17DA59 PUSH1 0xB2 SHL DUP2 MSTORE POP PUSH1 0x40 MLOAD DUP1 PUSH1 0x40 ADD PUSH1 0x40 MSTORE DUP1 PUSH1 0x13 DUP2 MSTORE PUSH1 0x20 ADD PUSH32 0x53747564656E7420494420446F63756D656E7400000000000000000000000000 DUP2 MSTORE POP PUSH3 0x100000 PUSH3 0x34E PUSH1 0x20 SHL PUSH1 0x20 SHR JUMP JUMPDEST PUSH3 0x132 PUSH1 0x40 MLOAD DUP1 PUSH1 0x40 ADD PUSH1 0x40 MSTORE DUP1 PUSH1 0x15 DUP2 MSTORE PUSH1 0x20 ADD PUSH32 0x756E69766572736974795F7472616E7363726970740000000000000000000000 DUP2 MSTORE POP PUSH1 0x40 MLOAD DUP1 PUSH1 0x40 ADD PUSH1 0x40 MSTORE DUP1 PUSH1 0x15 DUP2 MSTORE PUSH1 0x20 ADD PUSH32 0x556E6976657273697479205472616E7363726970740000000000000000000000 DUP2 MSTORE POP PUSH3 0x500000 PUSH3 0x34E PUSH1 0x20 SHL PUSH1 0x20 SHR JUMP JUMPDEST PUSH3 0x194 PUSH1 0x40 MLOAD DUP1 PUSH1 0x40 ADD PUSH1 0x40 MSTORE DUP1 PUSH1 0xE DUP2 MSTORE PUSH1 0x20 ADD PUSH14 0x1B1BD85B97D859DC99595B595B9D PUSH1 0x92 SHL DUP2 MSTORE POP PUSH1 0x40 MLOAD DUP1 PUSH1 0x40 ADD PUSH1 0x40 MSTORE DUP1 PUSH1 0xE DUP2 MSTORE PUSH1 0x20 ADD PUSH14 0x131BD85B881059DC99595B595B9D PUSH1 0x92 SHL DUP2 MSTORE POP PUSH3 0x200000 PUSH3 0x34E PUSH1 0x20 SHL PUSH1 0x20 SHR JUMP JUMPDEST PUSH3 0x1F8 PUSH1 0x40 MLOAD DUP1 PUSH1 0x40 ADD PUSH1 0x40 MSTORE DUP1 PUSH1 0xF DUP2 MSTORE PUSH1 0x20 ADD PUSH15 0x195E1C195B9CD957DC9958D95A5C1D PUSH1 0x8A SHL DUP2 MSTORE POP PUSH1 0x40 MLOAD DUP1 PUSH1 0x40 ADD PUSH1 0x40 MSTORE DUP1 PUSH1 0xF DUP2 MSTORE PUSH1 0x20 ADD PUSH15 0x115E1C195B9CD948149958D95A5C1D PUSH1 0x8A SHL DUP2 MSTORE POP PUSH3 0x100000 PUSH3 0x34E PUSH1 0x20 SHL PUSH1 0x20 SHR JUMP JUMPDEST PUSH3 0x278 PUSH1 0x40 MLOAD DUP1 PUSH1 0x40 ADD PUSH1 0x40 MSTORE DUP1 PUSH1 0x17 DUP2 MSTORE PUSH1 0x20 ADD PUSH32 0x7363686F6C6172736869705F6170706C69636174696F6E000000000000000000 DUP2 MSTORE POP PUSH1 0x40 MLOAD DUP1 PUSH1 0x40 ADD PUSH1 0x40 MSTORE DUP1 PUSH1 0x17 DUP2 MSTORE PUSH1 0x20 ADD PUSH32 0x5363686F6C617273686970204170706C69636174696F6E000000000000000000 DUP2 MSTORE POP PUSH3 0x300000 PUSH3 0x34E PUSH1 0x20 SHL PUSH1 0x20 SHR JUMP JUMPDEST PUSH3 0x2F8 PUSH1 0x40 MLOAD DUP1 PUSH1 0x40 ADD PUSH1 0x40 MSTORE DUP1 PUSH1 0x15 DUP2 MSTORE PUSH1 0x20 ADD PUSH32 0x6964656E746974795F766572696669636174696F6E0000000000000000000000 DUP2 MSTORE POP PUSH1 0x40 MLOAD DUP1 PUSH1 0x40 ADD PUSH1 0x40 MSTORE DUP1 PUSH1 0x15 DUP2 MSTORE PUSH1 0x20 ADD PUSH32 0x4964656E7469747920566572696669636174696F6E0000000000000000000000 DUP2 MSTORE POP PUSH3 0x200000 PUSH3 0x34E PUSH1 0x20 SHL PUSH1 0x20 SHR JUMP JUMPDEST PUSH3 0x627 JUMP JUMPDEST PUSH1 0x0 DUP1 SLOAD PUSH1 0x1 PUSH1 0x1 PUSH1 0xA0 SHL SUB DUP4 DUP2 AND PUSH1 0x1 PUSH1 0x1 PUSH1 0xA0 SHL SUB NOT DUP4 AND DUP2 OR DUP5 SSTORE PUSH1 0x40 MLOAD SWAP2 SWAP1 SWAP3 AND SWAP3 DUP4 SWAP2 PUSH32 0x8BE0079C531659141344CD1FD0A4F28419497F9722A3DAAFE3B4186F6B6457E0 SWAP2 SWAP1 LOG3 POP POP JUMP JUMPDEST PUSH1 0x0 PUSH1 0x4 DUP5 PUSH1 0x40 MLOAD PUSH3 0x362 SWAP2 SWAP1 PUSH3 0x463 JUMP JUMPDEST SWAP1 DUP2 MSTORE PUSH1 0x40 MLOAD SWAP1 DUP2 SWAP1 SUB PUSH1 0x20 ADD SWAP1 KECCAK256 SWAP1 POP DUP1 PUSH3 0x380 DUP6 DUP3 PUSH3 0x526 JUMP JUMPDEST POP PUSH1 0x1 DUP2 ADD PUSH3 0x391 DUP5 DUP3 PUSH3 0x526 JUMP JUMPDEST POP PUSH1 0x2 DUP2 ADD DUP1 SLOAD PUSH1 0xFF NOT AND PUSH1 0x1 SWAP1 DUP2 OR SWAP1 SWAP2 SSTORE PUSH1 0x3 DUP3 ADD DUP4 SWAP1 SSTORE PUSH1 0x6 DUP1 SLOAD SWAP2 DUP3 ADD DUP2 SSTORE PUSH1 0x0 MSTORE PUSH32 0xF652222313E28459528D920B65115C16C04F3EFC82AAEDC97BE59F3F377C0D3F ADD PUSH3 0x3E5 DUP6 DUP3 PUSH3 0x526 JUMP JUMPDEST POP DUP4 PUSH1 0x40 MLOAD PUSH3 0x3F6 SWAP2 SWAP1 PUSH3 0x463 JUMP JUMPDEST PUSH1 0x40 MLOAD DUP1 SWAP2 SUB SWAP1 KECCAK256 PUSH32 0x73903B186F572DB44D486D4827957D565ADD734304FDD0771E04D22094FA5E87 DUP5 PUSH1 0x40 MLOAD PUSH3 0x42F SWAP2 SWAP1 PUSH3 0x5F2 JUMP JUMPDEST PUSH1 0x40 MLOAD DUP1 SWAP2 SUB SWAP1 LOG2 POP POP POP POP JUMP JUMPDEST PUSH1 0x0 JUMPDEST DUP4 DUP2 LT ISZERO PUSH3 0x45A JUMPI DUP2 DUP2 ADD MLOAD DUP4 DUP3 ADD MSTORE PUSH1 0x20 ADD PUSH3 0x440 JUMP JUMPDEST POP POP PUSH1 0x0 SWAP2 ADD MSTORE JUMP JUMPDEST PUSH1 0x0 DUP3 MLOAD PUSH3 0x477 DUP2 DUP5 PUSH1 0x20 DUP8 ADD PUSH3 0x43D JUMP JUMPDEST SWAP2 SWAP1 SWAP2 ADD SWAP3 SWAP2 POP POP JUMP JUMPDEST PUSH4 0x4E487B71 PUSH1 0xE0 SHL PUSH1 0x0 MSTORE PUSH1 0x41 PUSH1 0x4 MSTORE PUSH1 0x24 PUSH1 0x0 REVERT JUMPDEST PUSH1 0x1 DUP2 DUP2 SHR SWAP1 DUP3 AND DUP1 PUSH3 0x4AC JUMPI PUSH1 0x7F DUP3 AND SWAP2 POP JUMPDEST PUSH1 0x20 DUP3 LT DUP2 SUB PUSH3 0x4CD JUMPI PUSH4 0x4E487B71 PUSH1 0xE0 SHL PUSH1 0x0 MSTORE PUSH1 0x22 PUSH1 0x4 MSTORE PUSH1 0x24 PUSH1 0x0 REVERT JUMPDEST POP SWAP2 SWAP1 POP JUMP JUMPDEST PUSH1 0x1F DUP3 GT ISZERO PUSH3 0x521 JUMPI PUSH1 0x0 DUP2 DUP2 MSTORE PUSH1 0x20 DUP2 KECCAK256 PUSH1 0x1F DUP6 ADD PUSH1 0x5 SHR DUP2 ADD PUSH1 0x20 DUP7 LT ISZERO PUSH3 0x4FC JUMPI POP DUP1 JUMPDEST PUSH1 0x1F DUP6 ADD PUSH1 0x5 SHR DUP3 ADD SWAP2 POP JUMPDEST DUP2 DUP2 LT ISZERO PUSH3 0x51D JUMPI DUP3 DUP2 SSTORE PUSH1 0x1 ADD PUSH3 0x508 JUMP JUMPDEST POP POP POP JUMPDEST POP POP POP JUMP JUMPDEST DUP2 MLOAD PUSH1 0x1 PUSH1 0x1 PUSH1 0x40 SHL SUB DUP2 GT ISZERO PUSH3 0x542 JUMPI PUSH3 0x542 PUSH3 0x481 JUMP JUMPDEST PUSH3 0x55A DUP2 PUSH3 0x553 DUP5 SLOAD PUSH3 0x497 JUMP JUMPDEST DUP5 PUSH3 0x4D3 JUMP JUMPDEST PUSH1 0x20 DUP1 PUSH1 0x1F DUP4 GT PUSH1 0x1 DUP2 EQ PUSH3 0x592 JUMPI PUSH1 0x0 DUP5 ISZERO PUSH3 0x579 JUMPI POP DUP6 DUP4 ADD MLOAD JUMPDEST PUSH1 0x0 NOT PUSH1 0x3 DUP7 SWAP1 SHL SHR NOT AND PUSH1 0x1 DUP6 SWAP1 SHL OR DUP6 SSTORE PUSH3 0x51D JUMP JUMPDEST PUSH1 0x0 DUP6 DUP2 MSTORE PUSH1 0x20 DUP2 KECCAK256 PUSH1 0x1F NOT DUP7 AND SWAP2 JUMPDEST DUP3 DUP2 LT ISZERO PUSH3 0x5C3 JUMPI DUP9 DUP7 ADD MLOAD DUP3 SSTORE SWAP5 DUP5 ADD SWAP5 PUSH1 0x1 SWAP1 SWAP2 ADD SWAP1 DUP5 ADD PUSH3 0x5A2 JUMP JUMPDEST POP DUP6 DUP3 LT ISZERO PUSH3 0x5E2 JUMPI DUP8 DUP6 ADD MLOAD PUSH1 0x0 NOT PUSH1 0x3 DUP9 SWAP1 SHL PUSH1 0xF8 AND SHR NOT AND DUP2 SSTORE JUMPDEST POP POP POP POP POP PUSH1 0x1 SWAP1 DUP2 SHL ADD SWAP1 SSTORE POP JUMP JUMPDEST PUSH1 0x20 DUP2 MSTORE PUSH1 0x0 DUP3 MLOAD DUP1 PUSH1 0x20 DUP5 ADD MSTORE PUSH3 0x613 DUP2 PUSH1 0x40 DUP6 ADD PUSH1 0x20 DUP8 ADD PUSH3 0x43D JUMP JUMPDEST PUSH1 0x1F ADD PUSH1 0x1F NOT AND SWAP2 SWAP1 SWAP2 ADD PUSH1 0x40 ADD SWAP3 SWAP2 POP POP JUMP JUMPDEST PUSH2 0x20E2 DUP1 PUSH3 0x637 PUSH1 0x0 CODECOPY PUSH1 0x0 RETURN INVALID PUSH1 0x80 PUSH1 0x40 MSTORE CALLVALUE DUP1 ISZERO PUSH2 0x10 JUMPI PUSH1 0x0 DUP1 REVERT JUMPDEST POP PUSH1 0x4 CALLDATASIZE LT PUSH2 0x14D JUMPI PUSH1 0x0 CALLDATALOAD PUSH1 0xE0 SHR DUP1 PUSH4 0x8897B932 GT PUSH2 0xC3 JUMPI DUP1 PUSH4 0xA403FE08 GT PUSH2 0x7C JUMPI DUP1 PUSH4 0xA403FE08 EQ PUSH2 0x303 JUMPI DUP1 PUSH4 0xA91F947D EQ PUSH2 0x316 JUMPI DUP1 PUSH4 0xBEE7809F EQ PUSH2 0x329 JUMPI DUP1 PUSH4 0xC2ED2B05 EQ PUSH2 0x331 JUMPI DUP1 PUSH4 0xC6DC7E5D EQ PUSH2 0x344 JUMPI DUP1 PUSH4 0xF2FDE38B EQ PUSH2 0x357 JUMPI PUSH1 0x0 DUP1 REVERT JUMPDEST DUP1 PUSH4 0x8897B932 EQ PUSH2 0x26F JUMPI DUP1 PUSH4 0x8DA5CB5B EQ PUSH2 0x28F JUMPI DUP1 PUSH4 0x90A4B162 EQ PUSH2 0x2AA JUMPI DUP1 PUSH4 0x969D13B0 EQ PUSH2 0x2BD JUMPI DUP1 PUSH4 0x9E987F95 EQ PUSH2 0x2DD JUMPI DUP1 PUSH4 0xA11868FC EQ PUSH2 0x2F0 JUMPI PUSH1 0x0 DUP1 REVERT JUMPDEST DUP1 PUSH4 0x3F9B250A GT PUSH2 0x115 JUMPI DUP1 PUSH4 0x3F9B250A EQ PUSH2 0x1E4 JUMPI DUP1 PUSH4 0x577A1B92 EQ PUSH2 0x20B JUMPI DUP1 PUSH4 0x5D544901 EQ PUSH2 0x21E JUMPI DUP1 PUSH4 0x661D6CA9 EQ PUSH2 0x241 JUMPI DUP1 PUSH4 0x6DDA61D9 EQ PUSH2 0x254 JUMPI DUP1 PUSH4 0x715018A6 EQ PUSH2 0x267 JUMPI PUSH1 0x0 DUP1 REVERT JUMPDEST DUP1 PUSH4 0xDA7D835 EQ PUSH2 0x152 JUMPI DUP1 PUSH4 0xDACC181 EQ PUSH2 0x195 JUMPI DUP1 PUSH4 0x389C1D66 EQ PUSH2 0x1AA JUMPI DUP1 PUSH4 0x3CD6B9CD EQ PUSH2 0x1BD JUMPI DUP1 PUSH4 0x3D1C2273 EQ PUSH2 0x1D2 JUMPI JUMPDEST PUSH1 0x0 DUP1 REVERT JUMPDEST PUSH2 0x180 PUSH2 0x160 CALLDATASIZE PUSH1 0x4 PUSH2 0x19E4 JUMP JUMPDEST DUP1 MLOAD PUSH1 0x20 DUP2 DUP4 ADD DUP2 ADD DUP1 MLOAD PUSH1 0x5 DUP3 MSTORE SWAP3 DUP3 ADD SWAP2 SWAP1 SWAP4 ADD KECCAK256 SWAP2 MSTORE SLOAD PUSH1 0xFF AND DUP2 JUMP JUMPDEST PUSH1 0x40 MLOAD SWAP1 ISZERO ISZERO DUP2 MSTORE PUSH1 0x20 ADD JUMPDEST PUSH1 0x40 MLOAD DUP1 SWAP2 SUB SWAP1 RETURN JUMPDEST PUSH2 0x1A8 PUSH2 0x1A3 CALLDATASIZE PUSH1 0x4 PUSH2 0x1A18 JUMP JUMPDEST PUSH2 0x36A JUMP JUMPDEST STOP JUMPDEST PUSH2 0x1A8 PUSH2 0x1B8 CALLDATASIZE PUSH1 0x4 PUSH2 0x1A84 JUMP JUMPDEST PUSH2 0x43B JUMP JUMPDEST PUSH2 0x1C5 PUSH2 0x531 JUMP JUMPDEST PUSH1 0x40 MLOAD PUSH2 0x18C SWAP2 SWAP1 PUSH2 0x1AED JUMP JUMPDEST PUSH1 0x1 SLOAD JUMPDEST PUSH1 0x40 MLOAD SWAP1 DUP2 MSTORE PUSH1 0x20 ADD PUSH2 0x18C JUMP JUMPDEST PUSH2 0x1F7 PUSH2 0x1F2 CALLDATASIZE PUSH1 0x4 PUSH2 0x1A84 JUMP JUMPDEST PUSH2 0x60A JUMP JUMPDEST PUSH1 0x40 MLOAD PUSH2 0x18C SWAP9 SWAP8 SWAP7 SWAP6 SWAP5 SWAP4 SWAP3 SWAP2 SWAP1 PUSH2 0x1B4F JUMP JUMPDEST PUSH2 0x1D6 PUSH2 0x219 CALLDATASIZE PUSH1 0x4 PUSH2 0x1BE1 JUMP JUMPDEST PUSH2 0x829 JUMP JUMPDEST PUSH2 0x231 PUSH2 0x22C CALLDATASIZE PUSH1 0x4 PUSH2 0x19E4 JUMP JUMPDEST PUSH2 0x85A JUMP JUMPDEST PUSH1 0x40 MLOAD PUSH2 0x18C SWAP5 SWAP4 SWAP3 SWAP2 SWAP1 PUSH2 0x1C0B JUMP JUMPDEST PUSH2 0x231 PUSH2 0x24F CALLDATASIZE PUSH1 0x4 PUSH2 0x19E4 JUMP JUMPDEST PUSH2 0x9A1 JUMP JUMPDEST PUSH2 0x1A8 PUSH2 0x262 CALLDATASIZE PUSH1 0x4 PUSH2 0x1A84 JUMP JUMPDEST PUSH2 0xB0A JUMP JUMPDEST PUSH2 0x1A8 PUSH2 0xC45 JUMP JUMPDEST PUSH2 0x282 PUSH2 0x27D CALLDATASIZE PUSH1 0x4 PUSH2 0x19E4 JUMP JUMPDEST PUSH2 0xC59 JUMP JUMPDEST PUSH1 0x40 MLOAD PUSH2 0x18C SWAP2 SWAP1 PUSH2 0x1C44 JUMP JUMPDEST PUSH1 0x0 SLOAD PUSH1 0x40 MLOAD PUSH1 0x1 PUSH1 0x1 PUSH1 0xA0 SHL SUB SWAP1 SWAP2 AND DUP2 MSTORE PUSH1 0x20 ADD PUSH2 0x18C JUMP JUMPDEST PUSH2 0x282 PUSH2 0x2B8 CALLDATASIZE PUSH1 0x4 PUSH2 0x1C88 JUMP JUMPDEST PUSH2 0xDEE JUMP JUMPDEST PUSH2 0x2D0 PUSH2 0x2CB CALLDATASIZE PUSH1 0x4 PUSH2 0x1A84 JUMP JUMPDEST PUSH2 0xE5A JUMP JUMPDEST PUSH1 0x40 MLOAD PUSH2 0x18C SWAP2 SWAP1 PUSH2 0x1CAA JUMP JUMPDEST PUSH2 0x1D6 PUSH2 0x2EB CALLDATASIZE PUSH1 0x4 PUSH2 0x1CBD JUMP JUMPDEST PUSH2 0xF06 JUMP JUMPDEST PUSH2 0x282 PUSH2 0x2FE CALLDATASIZE PUSH1 0x4 PUSH2 0x1DE2 JUMP JUMPDEST PUSH2 0xF1B JUMP JUMPDEST PUSH2 0x1A8 PUSH2 0x311 CALLDATASIZE PUSH1 0x4 PUSH2 0x19E4 JUMP JUMPDEST PUSH2 0x1053 JUMP JUMPDEST PUSH2 0x180 PUSH2 0x324 CALLDATASIZE PUSH1 0x4 PUSH2 0x19E4 JUMP JUMPDEST PUSH2 0x1141 JUMP JUMPDEST PUSH2 0x282 PUSH2 0x116C JUMP JUMPDEST PUSH2 0x1F7 PUSH2 0x33F CALLDATASIZE PUSH1 0x4 PUSH2 0x1A84 JUMP JUMPDEST PUSH2 0x12E1 JUMP JUMPDEST PUSH2 0x1A8 PUSH2 0x352 CALLDATASIZE PUSH1 0x4 PUSH2 0x1A84 JUMP JUMPDEST PUSH2 0x14CC JUMP JUMPDEST PUSH2 0x1A8 PUSH2 0x365 CALLDATASIZE PUSH1 0x4 PUSH2 0x1C88 JUMP JUMPDEST PUSH2 0x15A3 JUMP JUMPDEST PUSH2 0x372 PUSH2 0x15E1 JUMP JUMPDEST PUSH1 0x0 DUP4 MLOAD GT PUSH2 0x3B8 JUMPI PUSH1 0x40 MLOAD PUSH3 0x461BCD PUSH1 0xE5 SHL DUP2 MSTORE PUSH1 0x20 PUSH1 0x4 DUP3 ADD MSTORE PUSH1 0xD PUSH1 0x24 DUP3 ADD MSTORE PUSH13 0x13985B59481C995C5D5A5C9959 PUSH1 0x9A SHL PUSH1 0x44 DUP3 ADD MSTORE PUSH1 0x64 ADD JUMPDEST PUSH1 0x40 MLOAD DUP1 SWAP2 SUB SWAP1 REVERT JUMPDEST PUSH1 0x4 DUP4 PUSH1 0x40 MLOAD PUSH2 0x3C8 SWAP2 SWAP1 PUSH2 0x1E5F JUMP JUMPDEST SWAP1 DUP2 MSTORE PUSH1 0x40 MLOAD SWAP1 DUP2 SWAP1 SUB PUSH1 0x20 ADD SWAP1 KECCAK256 PUSH1 0x2 ADD SLOAD PUSH1 0xFF AND ISZERO PUSH2 0x42B JUMPI PUSH1 0x40 MLOAD PUSH3 0x461BCD PUSH1 0xE5 SHL DUP2 MSTORE PUSH1 0x20 PUSH1 0x4 DUP3 ADD MSTORE PUSH1 0x1C PUSH1 0x24 DUP3 ADD MSTORE PUSH32 0x446F63756D656E74207479706520616C72656164792065786973747300000000 PUSH1 0x44 DUP3 ADD MSTORE PUSH1 0x64 ADD PUSH2 0x3AF JUMP JUMPDEST PUSH2 0x436 DUP4 DUP4 DUP4 PUSH2 0x160E JUMP JUMPDEST POP POP POP JUMP JUMPDEST PUSH1 0x0 DUP2 DUP2 MSTORE PUSH1 0x2 PUSH1 0x20 MSTORE PUSH1 0x40 SWAP1 KECCAK256 PUSH1 0x1 DUP2 ADD SLOAD PUSH1 0x1 PUSH1 0x1 PUSH1 0xA0 SHL SUB AND CALLER EQ PUSH2 0x49A JUMPI PUSH1 0x40 MLOAD PUSH3 0x461BCD PUSH1 0xE5 SHL DUP2 MSTORE PUSH1 0x20 PUSH1 0x4 DUP3 ADD MSTORE PUSH1 0x12 PUSH1 0x24 DUP3 ADD MSTORE PUSH18 0x2737BA103237B1BAB6B2B73A1037BBB732B9 PUSH1 0x71 SHL PUSH1 0x44 DUP3 ADD MSTORE PUSH1 0x64 ADD PUSH2 0x3AF JUMP JUMPDEST PUSH1 0x6 DUP2 ADD SLOAD PUSH2 0x100 SWAP1 DIV PUSH1 0xFF AND PUSH2 0x4F3 JUMPI PUSH1 0x40 MLOAD PUSH3 0x461BCD PUSH1 0xE5 SHL DUP2 MSTORE PUSH1 0x20 PUSH1 0x4 DUP3 ADD MSTORE PUSH1 0x1C PUSH1 0x24 DUP3 ADD MSTORE PUSH32 0x446F63756D656E7420616C726561647920646561637469766174656400000000 PUSH1 0x44 DUP3 ADD MSTORE PUSH1 0x64 ADD PUSH2 0x3AF JUMP JUMPDEST PUSH1 0x6 DUP2 ADD DUP1 SLOAD PUSH2 0xFF00 NOT AND SWAP1 SSTORE PUSH1 0x40 MLOAD CALLER SWAP1 DUP4 SWAP1 PUSH32 0x4966A2290137D66887B5573D56BC34D4851569BFB197812FE2E73B59EBD2E5A7 SWAP1 PUSH1 0x0 SWAP1 LOG3 POP POP JUMP JUMPDEST PUSH1 0x60 PUSH1 0x6 DUP1 SLOAD DUP1 PUSH1 0x20 MUL PUSH1 0x20 ADD PUSH1 0x40 MLOAD SWAP1 DUP2 ADD PUSH1 0x40 MSTORE DUP1 SWAP3 SWAP2 SWAP1 DUP2 DUP2 MSTORE PUSH1 0x20 ADD PUSH1 0x0 SWAP1 JUMPDEST DUP3 DUP3 LT ISZERO PUSH2 0x601 JUMPI DUP4 DUP3 SWAP1 PUSH1 0x0 MSTORE PUSH1 0x20 PUSH1 0x0 KECCAK256 ADD DUP1 SLOAD PUSH2 0x574 SWAP1 PUSH2 0x1E7B JUMP JUMPDEST DUP1 PUSH1 0x1F ADD PUSH1 0x20 DUP1 SWAP2 DIV MUL PUSH1 0x20 ADD PUSH1 0x40 MLOAD SWAP1 DUP2 ADD PUSH1 0x40 MSTORE DUP1 SWAP3 SWAP2 SWAP1 DUP2 DUP2 MSTORE PUSH1 0x20 ADD DUP3 DUP1 SLOAD PUSH2 0x5A0 SWAP1 PUSH2 0x1E7B JUMP JUMPDEST DUP1 ISZERO PUSH2 0x5ED JUMPI DUP1 PUSH1 0x1F LT PUSH2 0x5C2 JUMPI PUSH2 0x100 DUP1 DUP4 SLOAD DIV MUL DUP4 MSTORE SWAP2 PUSH1 0x20 ADD SWAP2 PUSH2 0x5ED JUMP JUMPDEST DUP3 ADD SWAP2 SWAP1 PUSH1 0x0 MSTORE PUSH1 0x20 PUSH1 0x0 KECCAK256 SWAP1 JUMPDEST DUP2 SLOAD DUP2 MSTORE SWAP1 PUSH1 0x1 ADD SWAP1 PUSH1 0x20 ADD DUP1 DUP4 GT PUSH2 0x5D0 JUMPI DUP3 SWAP1 SUB PUSH1 0x1F AND DUP3 ADD SWAP2 JUMPDEST POP POP POP POP POP DUP2 MSTORE PUSH1 0x20 ADD SWAP1 PUSH1 0x1 ADD SWAP1 PUSH2 0x555 JUMP JUMPDEST POP POP POP POP SWAP1 POP SWAP1 JUMP JUMPDEST PUSH1 0x0 DUP2 DUP2 MSTORE PUSH1 0x2 PUSH1 0x20 DUP2 SWAP1 MSTORE PUSH1 0x40 DUP3 KECCAK256 DUP1 SLOAD PUSH1 0x1 DUP3 ADD SLOAD PUSH1 0x5 DUP4 ADD SLOAD PUSH1 0x6 DUP5 ADD SLOAD SWAP5 DUP5 ADD DUP1 SLOAD DUP8 SWAP7 PUSH1 0x60 SWAP7 DUP8 SWAP7 DUP8 SWAP7 DUP11 SWAP7 DUP8 SWAP7 DUP8 SWAP7 SWAP5 SWAP6 SWAP4 SWAP5 PUSH1 0x1 PUSH1 0x1 PUSH1 0xA0 SHL SUB SWAP1 SWAP4 AND SWAP4 SWAP1 SWAP3 PUSH1 0x3 DUP8 ADD SWAP3 PUSH1 0x4 DUP9 ADD SWAP3 SWAP1 SWAP2 PUSH1 0xFF DUP1 DUP4 AND SWAP3 PUSH2 0x100 SWAP1 DIV AND SWAP1 DUP7 SWAP1 PUSH2 0x675 SWAP1 PUSH2 0x1E7B JUMP JUMPDEST DUP1 PUSH1 0x1F ADD PUSH1 0x20 DUP1 SWAP2 DIV MUL PUSH1 0x20 ADD PUSH1 0x40 MLOAD SWAP1 DUP2 ADD PUSH1 0x40 MSTORE DUP1 SWAP3 SWAP2 SWAP1 DUP2 DUP2 MSTORE PUSH1 0x20 ADD DUP3 DUP1 SLOAD PUSH2 0x6A1 SWAP1 PUSH2 0x1E7B JUMP JUMPDEST DUP1 ISZERO PUSH2 0x6EE JUMPI DUP1 PUSH1 0x1F LT PUSH2 0x6C3 JUMPI PUSH2 0x100 DUP1 DUP4 SLOAD DIV MUL DUP4 MSTORE SWAP2 PUSH1 0x20 ADD SWAP2 PUSH2 0x6EE JUMP JUMPDEST DUP3 ADD SWAP2 SWAP1 PUSH1 0x0 MSTORE PUSH1 0x20 PUSH1 0x0 KECCAK256 SWAP1 JUMPDEST DUP2 SLOAD DUP2 MSTORE SWAP1 PUSH1 0x1 ADD SWAP1 PUSH1 0x20 ADD DUP1 DUP4 GT PUSH2 0x6D1 JUMPI DUP3 SWAP1 SUB PUSH1 0x1F AND DUP3 ADD SWAP2 JUMPDEST POP POP POP POP POP SWAP6 POP DUP5 DUP1 SLOAD PUSH2 0x701 SWAP1 PUSH2 0x1E7B JUMP JUMPDEST DUP1 PUSH1 0x1F ADD PUSH1 0x20 DUP1 SWAP2 DIV MUL PUSH1 0x20 ADD PUSH1 0x40 MLOAD SWAP1 DUP2 ADD PUSH1 0x40 MSTORE DUP1 SWAP3 SWAP2 SWAP1 DUP2 DUP2 MSTORE PUSH1 0x20 ADD DUP3 DUP1 SLOAD PUSH2 0x72D SWAP1 PUSH2 0x1E7B JUMP JUMPDEST DUP1 ISZERO PUSH2 0x77A JUMPI DUP1 PUSH1 0x1F LT PUSH2 0x74F JUMPI PUSH2 0x100 DUP1 DUP4 SLOAD DIV MUL DUP4 MSTORE SWAP2 PUSH1 0x20 ADD SWAP2 PUSH2 0x77A JUMP JUMPDEST DUP3 ADD SWAP2 SWAP1 PUSH1 0x0 MSTORE PUSH1 0x20 PUSH1 0x0 KECCAK256 SWAP1 JUMPDEST DUP2 SLOAD DUP2 MSTORE SWAP1 PUSH1 0x1 ADD SWAP1 PUSH1 0x20 ADD DUP1 DUP4 GT PUSH2 0x75D JUMPI DUP3 SWAP1 SUB PUSH1 0x1F AND DUP3 ADD SWAP2 JUMPDEST POP POP POP POP POP SWAP5 POP DUP4 DUP1 SLOAD PUSH2 0x78D SWAP1 PUSH2 0x1E7B JUMP JUMPDEST DUP1 PUSH1 0x1F ADD PUSH1 0x20 DUP1 SWAP2 DIV MUL PUSH1 0x20 ADD PUSH1 0x40 MLOAD SWAP1 DUP2 ADD PUSH1 0x40 MSTORE DUP1 SWAP3 SWAP2 SWAP1 DUP2 DUP2 MSTORE PUSH1 0x20 ADD DUP3 DUP1 SLOAD PUSH2 0x7B9 SWAP1 PUSH2 0x1E7B JUMP JUMPDEST DUP1 ISZERO PUSH2 0x806 JUMPI DUP1 PUSH1 0x1F LT PUSH2 0x7DB JUMPI PUSH2 0x100 DUP1 DUP4 SLOAD DIV MUL DUP4 MSTORE SWAP2 PUSH1 0x20 ADD SWAP2 PUSH2 0x806 JUMP JUMPDEST DUP3 ADD SWAP2 SWAP1 PUSH1 0x0 MSTORE PUSH1 0x20 PUSH1 0x0 KECCAK256 SWAP1 JUMPDEST DUP2 SLOAD DUP2 MSTORE SWAP1 PUSH1 0x1 ADD SWAP1 PUSH1 0x20 ADD DUP1 DUP4 GT PUSH2 0x7E9 JUMPI DUP3 SWAP1 SUB PUSH1 0x1F AND DUP3 ADD SWAP2 JUMPDEST POP POP POP POP POP SWAP4 POP SWAP9 POP SWAP9 POP SWAP9 POP SWAP9 POP SWAP9 POP SWAP9 POP SWAP9 POP SWAP9 POP POP SWAP2 SWAP4 SWAP6 SWAP8 POP SWAP2 SWAP4 SWAP6 SWAP8 JUMP JUMPDEST PUSH1 0x3 PUSH1 0x20 MSTORE DUP2 PUSH1 0x0 MSTORE PUSH1 0x40 PUSH1 0x0 KECCAK256 DUP2 DUP2 SLOAD DUP2 LT PUSH2 0x845 JUMPI PUSH1 0x0 DUP1 REVERT JUMPDEST SWAP1 PUSH1 0x0 MSTORE PUSH1 0x20 PUSH1 0x0 KECCAK256 ADD PUSH1 0x0 SWAP2 POP SWAP2 POP POP SLOAD DUP2 JUMP JUMPDEST DUP1 MLOAD PUSH1 0x20 DUP2 DUP4 ADD DUP2 ADD DUP1 MLOAD PUSH1 0x4 DUP3 MSTORE SWAP3 DUP3 ADD SWAP2 SWAP1 SWAP4 ADD KECCAK256 SWAP2 MSTORE DUP1 SLOAD DUP2 SWAP1 PUSH2 0x880 SWAP1 PUSH2 0x1E7B JUMP JUMPDEST DUP1 PUSH1 0x1F ADD PUSH1 0x20 DUP1 SWAP2 DIV MUL PUSH1 0x20 ADD PUSH1 0x40 MLOAD SWAP1 DUP2 ADD PUSH1 0x40 MSTORE DUP1 SWAP3 SWAP2 SWAP1 DUP2 DUP2 MSTORE PUSH1 0x20 ADD DUP3 DUP1 SLOAD PUSH2 0x8AC SWAP1 PUSH2 0x1E7B JUMP JUMPDEST DUP1 ISZERO PUSH2 0x8F9 JUMPI DUP1 PUSH1 0x1F LT PUSH2 0x8CE JUMPI PUSH2 0x100 DUP1 DUP4 SLOAD DIV MUL DUP4 MSTORE SWAP2 PUSH1 0x20 ADD SWAP2 PUSH2 0x8F9 JUMP JUMPDEST DUP3 ADD SWAP2 SWAP1 PUSH1 0x0 MSTORE PUSH1 0x20 PUSH1 0x0 KECCAK256 SWAP1 JUMPDEST DUP2 SLOAD DUP2 MSTORE SWAP1 PUSH1 0x1 ADD SWAP1 PUSH1 0x20 ADD DUP1 DUP4 GT PUSH2 0x8DC JUMPI DUP3 SWAP1 SUB PUSH1 0x1F AND DUP3 ADD SWAP2 JUMPDEST POP POP POP POP POP SWAP1 DUP1 PUSH1 0x1 ADD DUP1 SLOAD PUSH2 0x90E SWAP1 PUSH2 0x1E7B JUMP JUMPDEST DUP1 PUSH1 0x1F ADD PUSH1 0x20 DUP1 SWAP2 DIV MUL PUSH1 0x20 ADD PUSH1 0x40 MLOAD SWAP1 DUP2 ADD PUSH1 0x40 MSTORE DUP1 SWAP3 SWAP2 SWAP1 DUP2 DUP2 MSTORE PUSH1 0x20 ADD DUP3 DUP1 SLOAD PUSH2 0x93A SWAP1 PUSH2 0x1E7B JUMP JUMPDEST DUP1 ISZERO PUSH2 0x987 JUMPI DUP1 PUSH1 0x1F LT PUSH2 0x95C JUMPI PUSH2 0x100 DUP1 DUP4 SLOAD DIV MUL DUP4 MSTORE SWAP2 PUSH1 0x20 ADD SWAP2 PUSH2 0x987 JUMP JUMPDEST DUP3 ADD SWAP2 SWAP1 PUSH1 0x0 MSTORE PUSH1 0x20 PUSH1 0x0 KECCAK256 SWAP1 JUMPDEST DUP2 SLOAD DUP2 MSTORE SWAP1 PUSH1 0x1 ADD SWAP1 PUSH1 0x20 ADD DUP1 DUP4 GT PUSH2 0x96A JUMPI DUP3 SWAP1 SUB PUSH1 0x1F AND DUP3 ADD SWAP2 JUMPDEST POP POP POP POP PUSH1 0x2 DUP4 ADD SLOAD PUSH1 0x3 SWAP1 SWAP4 ADD SLOAD SWAP2 SWAP3 PUSH1 0xFF AND SWAP2 SWAP1 POP DUP5 JUMP JUMPDEST PUSH1 0x60 DUP1 PUSH1 0x0 DUP1 PUSH1 0x0 PUSH1 0x4 DUP7 PUSH1 0x40 MLOAD PUSH2 0x9B9 SWAP2 SWAP1 PUSH2 0x1E5F JUMP JUMPDEST SWAP1 DUP2 MSTORE PUSH1 0x40 MLOAD SWAP1 DUP2 SWAP1 SUB PUSH1 0x20 ADD SWAP1 KECCAK256 PUSH1 0x2 DUP2 ADD SLOAD PUSH1 0x3 DUP3 ADD SLOAD DUP3 SLOAD SWAP3 SWAP4 POP DUP4 SWAP3 PUSH1 0x1 DUP5 ADD SWAP3 PUSH1 0xFF AND SWAP2 SWAP1 DUP5 SWAP1 PUSH2 0x9EE SWAP1 PUSH2 0x1E7B JUMP JUMPDEST DUP1 PUSH1 0x1F ADD PUSH1 0x20 DUP1 SWAP2 DIV MUL PUSH1 0x20 ADD PUSH1 0x40 MLOAD SWAP1 DUP2 ADD PUSH1 0x40 MSTORE DUP1 SWAP3 SWAP2 SWAP1 DUP2 DUP2 MSTORE PUSH1 0x20 ADD DUP3 DUP1 SLOAD PUSH2 0xA1A SWAP1 PUSH2 0x1E7B JUMP JUMPDEST DUP1 ISZERO PUSH2 0xA67 JUMPI DUP1 PUSH1 0x1F LT PUSH2 0xA3C JUMPI PUSH2 0x100 DUP1 DUP4 SLOAD DIV MUL DUP4 MSTORE SWAP2 PUSH1 0x20 ADD SWAP2 PUSH2 0xA67 JUMP JUMPDEST DUP3 ADD SWAP2 SWAP1 PUSH1 0x0 MSTORE PUSH1 0x20 PUSH1 0x0 KECCAK256 SWAP1 JUMPDEST DUP2 SLOAD DUP2 MSTORE SWAP1 PUSH1 0x1 ADD SWAP1 PUSH1 0x20 ADD DUP1 DUP4 GT PUSH2 0xA4A JUMPI DUP3 SWAP1 SUB PUSH1 0x1F AND DUP3 ADD SWAP2 JUMPDEST POP POP POP POP POP SWAP4 POP DUP3 DUP1 SLOAD PUSH2 0xA7A SWAP1 PUSH2 0x1E7B JUMP JUMPDEST DUP1 PUSH1 0x1F ADD PUSH1 0x20 DUP1 SWAP2 DIV MUL PUSH1 0x20 ADD PUSH1 0x40 MLOAD SWAP1 DUP2 ADD PUSH1 0x40 MSTORE DUP1 SWAP3 SWAP2 SWAP1 DUP2 DUP2 MSTORE PUSH1 0x20 ADD DUP3 DUP1 SLOAD PUSH2 0xAA6 SWAP1 PUSH2 0x1E7B JUMP JUMPDEST DUP1 ISZERO PUSH2 0xAF3 JUMPI DUP1 PUSH1 0x1F LT PUSH2 0xAC8 JUMPI PUSH2 0x100 DUP1 DUP4 SLOAD DIV MUL DUP4 MSTORE SWAP2 PUSH1 0x20 ADD SWAP2 PUSH2 0xAF3 JUMP JUMPDEST DUP3 ADD SWAP2 SWAP1 PUSH1 0x0 MSTORE PUSH1 0x20 PUSH1 0x0 KECCAK256 SWAP1 JUMPDEST DUP2 SLOAD DUP2 MSTORE SWAP1 PUSH1 0x1 ADD SWAP1 PUSH1 0x20 ADD DUP1 DUP4 GT PUSH2 0xAD6 JUMPI DUP3 SWAP1 SUB PUSH1 0x1F AND DUP3 ADD SWAP2 JUMPDEST POP POP POP POP POP SWAP3 POP SWAP5 POP SWAP5 POP SWAP5 POP SWAP5 POP POP SWAP2 SWAP4 POP SWAP2 SWAP4 JUMP JUMPDEST PUSH2 0xB12 PUSH2 0x15E1 JUMP JUMPDEST PUSH1 0x0 DUP2 DUP2 MSTORE PUSH1 0x2 PUSH1 0x20 MSTORE PUSH1 0x40 SWAP1 KECCAK256 PUSH1 0x1 DUP2 ADD SLOAD PUSH1 0x1 PUSH1 0x1 PUSH1 0xA0 SHL SUB AND PUSH2 0xB74 JUMPI PUSH1 0x40 MLOAD PUSH3 0x461BCD PUSH1 0xE5 SHL DUP2 MSTORE PUSH1 0x20 PUSH1 0x4 DUP3 ADD MSTORE PUSH1 0x17 PUSH1 0x24 DUP3 ADD MSTORE PUSH23 0x111BD8DD5B595B9D08191BD95CC81B9BDD08195E1A5CDD PUSH1 0x4A SHL PUSH1 0x44 DUP3 ADD MSTORE PUSH1 0x64 ADD PUSH2 0x3AF JUMP JUMPDEST PUSH1 0x6 DUP2 ADD SLOAD PUSH2 0x100 SWAP1 DIV PUSH1 0xFF AND PUSH2 0xBC3 JUMPI PUSH1 0x40 MLOAD PUSH3 0x461BCD PUSH1 0xE5 SHL DUP2 MSTORE PUSH1 0x20 PUSH1 0x4 DUP3 ADD MSTORE PUSH1 0x13 PUSH1 0x24 DUP3 ADD MSTORE PUSH19 0x446F63756D656E74206E6F7420616374697665 PUSH1 0x68 SHL PUSH1 0x44 DUP3 ADD MSTORE PUSH1 0x64 ADD PUSH2 0x3AF JUMP JUMPDEST PUSH1 0x6 DUP2 ADD DUP1 SLOAD PUSH1 0xFF NOT AND PUSH1 0x1 SWAP1 DUP2 OR SWAP1 SWAP2 SSTORE PUSH1 0x40 MLOAD PUSH1 0x5 SWAP1 PUSH2 0xBE9 SWAP1 PUSH1 0x2 DUP6 ADD SWAP1 PUSH2 0x1F28 JUMP JUMPDEST SWAP1 DUP2 MSTORE PUSH1 0x40 MLOAD SWAP1 DUP2 SWAP1 SUB PUSH1 0x20 ADD DUP2 KECCAK256 DUP1 SLOAD SWAP3 ISZERO ISZERO PUSH1 0xFF NOT SWAP1 SWAP4 AND SWAP3 SWAP1 SWAP3 OR SWAP1 SWAP2 SSTORE PUSH1 0x1 DUP3 ADD SLOAD PUSH1 0x1 PUSH1 0x1 PUSH1 0xA0 SHL SUB AND SWAP1 DUP4 SWAP1 PUSH32 0x6966A20715F4337F34FD08D8AA190A3C343CF21AD67677B447632194D8D60308 SWAP1 PUSH1 0x0 SWAP1 LOG3 POP POP JUMP JUMPDEST PUSH2 0xC4D PUSH2 0x15E1 JUMP JUMPDEST PUSH2 0xC57 PUSH1 0x0 PUSH2 0x16F1 JUMP JUMPDEST JUMP JUMPDEST PUSH1 0x60 PUSH1 0x0 PUSH1 0x1 SLOAD PUSH1 0x1 PUSH1 0x1 PUSH1 0x40 SHL SUB DUP2 GT ISZERO PUSH2 0xC77 JUMPI PUSH2 0xC77 PUSH2 0x192F JUMP JUMPDEST PUSH1 0x40 MLOAD SWAP1 DUP1 DUP3 MSTORE DUP1 PUSH1 0x20 MUL PUSH1 0x20 ADD DUP3 ADD PUSH1 0x40 MSTORE DUP1 ISZERO PUSH2 0xCA0 JUMPI DUP2 PUSH1 0x20 ADD PUSH1 0x20 DUP3 MUL DUP1 CALLDATASIZE DUP4 CALLDATACOPY ADD SWAP1 POP JUMPDEST POP SWAP1 POP PUSH1 0x0 PUSH1 0x1 JUMPDEST PUSH1 0x1 SLOAD DUP2 GT PUSH2 0xD4A JUMPI DUP5 DUP1 MLOAD SWAP1 PUSH1 0x20 ADD KECCAK256 PUSH1 0x2 PUSH1 0x0 DUP4 DUP2 MSTORE PUSH1 0x20 ADD SWAP1 DUP2 MSTORE PUSH1 0x20 ADD PUSH1 0x0 KECCAK256 PUSH1 0x3 ADD PUSH1 0x40 MLOAD PUSH2 0xCDC SWAP2 SWAP1 PUSH2 0x1F28 JUMP JUMPDEST PUSH1 0x40 MLOAD DUP1 SWAP2 SUB SWAP1 KECCAK256 EQ DUP1 ISZERO PUSH2 0xD07 JUMPI POP PUSH1 0x0 DUP2 DUP2 MSTORE PUSH1 0x2 PUSH1 0x20 MSTORE PUSH1 0x40 SWAP1 KECCAK256 PUSH1 0x6 ADD SLOAD PUSH2 0x100 SWAP1 DIV PUSH1 0xFF AND JUMPDEST ISZERO PUSH2 0xD38 JUMPI DUP1 DUP4 DUP4 DUP2 MLOAD DUP2 LT PUSH2 0xD1F JUMPI PUSH2 0xD1F PUSH2 0x1F34 JUMP JUMPDEST PUSH1 0x20 SWAP1 DUP2 MUL SWAP2 SWAP1 SWAP2 ADD ADD MSTORE DUP2 PUSH2 0xD34 DUP2 PUSH2 0x1F4A JUMP JUMPDEST SWAP3 POP POP JUMPDEST DUP1 PUSH2 0xD42 DUP2 PUSH2 0x1F4A JUMP JUMPDEST SWAP2 POP POP PUSH2 0xCA8 JUMP JUMPDEST POP PUSH1 0x0 DUP2 PUSH1 0x1 PUSH1 0x1 PUSH1 0x40 SHL SUB DUP2 GT ISZERO PUSH2 0xD65 JUMPI PUSH2 0xD65 PUSH2 0x192F JUMP JUMPDEST PUSH1 0x40 MLOAD SWAP1 DUP1 DUP3 MSTORE DUP1 PUSH1 0x20 MUL PUSH1 0x20 ADD DUP3 ADD PUSH1 0x40 MSTORE DUP1 ISZERO PUSH2 0xD8E JUMPI DUP2 PUSH1 0x20 ADD PUSH1 0x20 DUP3 MUL DUP1 CALLDATASIZE DUP4 CALLDATACOPY ADD SWAP1 POP JUMPDEST POP SWAP1 POP PUSH1 0x0 JUMPDEST DUP3 DUP2 LT ISZERO PUSH2 0xDE5 JUMPI DUP4 DUP2 DUP2 MLOAD DUP2 LT PUSH2 0xDAE JUMPI PUSH2 0xDAE PUSH2 0x1F34 JUMP JUMPDEST PUSH1 0x20 MUL PUSH1 0x20 ADD ADD MLOAD DUP3 DUP3 DUP2 MLOAD DUP2 LT PUSH2 0xDC8 JUMPI PUSH2 0xDC8 PUSH2 0x1F34 JUMP JUMPDEST PUSH1 0x20 SWAP1 DUP2 MUL SWAP2 SWAP1 SWAP2 ADD ADD MSTORE DUP1 PUSH2 0xDDD DUP2 PUSH2 0x1F4A JUMP JUMPDEST SWAP2 POP POP PUSH2 0xD94 JUMP JUMPDEST POP SWAP5 SWAP4 POP POP POP POP JUMP JUMPDEST PUSH1 0x1 PUSH1 0x1 PUSH1 0xA0 SHL SUB DUP2 AND PUSH1 0x0 SWAP1 DUP2 MSTORE PUSH1 0x3 PUSH1 0x20 SWAP1 DUP2 MSTORE PUSH1 0x40 SWAP2 DUP3 SWAP1 KECCAK256 DUP1 SLOAD DUP4 MLOAD DUP2 DUP5 MUL DUP2 ADD DUP5 ADD SWAP1 SWAP5 MSTORE DUP1 DUP5 MSTORE PUSH1 0x60 SWAP4 SWAP3 DUP4 ADD DUP3 DUP3 DUP1 ISZERO PUSH2 0xE4E JUMPI PUSH1 0x20 MUL DUP3 ADD SWAP2 SWAP1 PUSH1 0x0 MSTORE PUSH1 0x20 PUSH1 0x0 KECCAK256 SWAP1 JUMPDEST DUP2 SLOAD DUP2 MSTORE PUSH1 0x20 ADD SWAP1 PUSH1 0x1 ADD SWAP1 DUP1 DUP4 GT PUSH2 0xE3A JUMPI JUMPDEST POP POP POP POP POP SWAP1 POP SWAP2 SWAP1 POP JUMP JUMPDEST PUSH1 0x6 DUP2 DUP2 SLOAD DUP2 LT PUSH2 0xE6A JUMPI PUSH1 0x0 DUP1 REVERT JUMPDEST SWAP1 PUSH1 0x0 MSTORE PUSH1 0x20 PUSH1 0x0 KECCAK256 ADD PUSH1 0x0 SWAP2 POP SWAP1 POP DUP1 SLOAD PUSH2 0xE85 SWAP1 PUSH2 0x1E7B JUMP JUMPDEST DUP1 PUSH1 0x1F ADD PUSH1 0x20 DUP1 SWAP2 DIV MUL PUSH1 0x20 ADD PUSH1 0x40 MLOAD SWAP1 DUP2 ADD PUSH1 0x40 MSTORE DUP1 SWAP3 SWAP2 SWAP1 DUP2 DUP2 MSTORE PUSH1 0x20 ADD DUP3 DUP1 SLOAD PUSH2 0xEB1 SWAP1 PUSH2 0x1E7B JUMP JUMPDEST DUP1 ISZERO PUSH2 0xEFE JUMPI DUP1 PUSH1 0x1F LT PUSH2 0xED3 JUMPI PUSH2 0x100 DUP1 DUP4 SLOAD DIV MUL DUP4 MSTORE SWAP2 PUSH1 0x20 ADD SWAP2 PUSH2 0xEFE JUMP JUMPDEST DUP3 ADD SWAP2 SWAP1 PUSH1 0x0 MSTORE PUSH1 0x20 PUSH1 0x0 KECCAK256 SWAP1 JUMPDEST DUP2 SLOAD DUP2 MSTORE SWAP1 PUSH1 0x1 ADD SWAP1 PUSH1 0x20 ADD DUP1 DUP4 GT PUSH2 0xEE1 JUMPI DUP3 SWAP1 SUB PUSH1 0x1F AND DUP3 ADD SWAP2 JUMPDEST POP POP POP POP POP DUP2 JUMP JUMPDEST PUSH1 0x0 PUSH2 0xF13 DUP5 DUP5 DUP5 PUSH2 0x1741 JUMP JUMPDEST SWAP5 SWAP4 POP POP POP POP JUMP JUMPDEST PUSH1 0x60 DUP3 MLOAD DUP5 MLOAD EQ DUP1 ISZERO PUSH2 0xF2F JUMPI POP DUP2 MLOAD DUP4 MLOAD EQ JUMPDEST PUSH2 0xF7B JUMPI PUSH1 0x40 MLOAD PUSH3 0x461BCD PUSH1 0xE5 SHL DUP2 MSTORE PUSH1 0x20 PUSH1 0x4 DUP3 ADD MSTORE PUSH1 0x1C PUSH1 0x24 DUP3 ADD MSTORE PUSH32 0x417272617973206D75737420686176652073616D65206C656E67746800000000 PUSH1 0x44 DUP3 ADD MSTORE PUSH1 0x64 ADD PUSH2 0x3AF JUMP JUMPDEST PUSH1 0x0 DUP5 MLOAD PUSH1 0x1 PUSH1 0x1 PUSH1 0x40 SHL SUB DUP2 GT ISZERO PUSH2 0xF96 JUMPI PUSH2 0xF96 PUSH2 0x192F JUMP JUMPDEST PUSH1 0x40 MLOAD SWAP1 DUP1 DUP3 MSTORE DUP1 PUSH1 0x20 MUL PUSH1 0x20 ADD DUP3 ADD PUSH1 0x40 MSTORE DUP1 ISZERO PUSH2 0xFBF JUMPI DUP2 PUSH1 0x20 ADD PUSH1 0x20 DUP3 MUL DUP1 CALLDATASIZE DUP4 CALLDATACOPY ADD SWAP1 POP JUMPDEST POP SWAP1 POP PUSH1 0x0 JUMPDEST DUP6 MLOAD DUP2 LT ISZERO PUSH2 0xDE5 JUMPI PUSH2 0x1024 DUP7 DUP3 DUP2 MLOAD DUP2 LT PUSH2 0xFE3 JUMPI PUSH2 0xFE3 PUSH2 0x1F34 JUMP JUMPDEST PUSH1 0x20 MUL PUSH1 0x20 ADD ADD MLOAD DUP7 DUP4 DUP2 MLOAD DUP2 LT PUSH2 0xFFD JUMPI PUSH2 0xFFD PUSH2 0x1F34 JUMP JUMPDEST PUSH1 0x20 MUL PUSH1 0x20 ADD ADD MLOAD DUP7 DUP5 DUP2 MLOAD DUP2 LT PUSH2 0x1017 JUMPI PUSH2 0x1017 PUSH2 0x1F34 JUMP JUMPDEST PUSH1 0x20 MUL PUSH1 0x20 ADD ADD MLOAD PUSH2 0x1741 JUMP JUMPDEST DUP3 DUP3 DUP2 MLOAD DUP2 LT PUSH2 0x1036 JUMPI PUSH2 0x1036 PUSH2 0x1F34 JUMP JUMPDEST PUSH1 0x20 SWAP1 DUP2 MUL SWAP2 SWAP1 SWAP2 ADD ADD MSTORE DUP1 PUSH2 0x104B DUP2 PUSH2 0x1F4A JUMP JUMPDEST SWAP2 POP POP PUSH2 0xFC5 JUMP JUMPDEST PUSH2 0x105B PUSH2 0x15E1 JUMP JUMPDEST PUSH1 0x4 DUP2 PUSH1 0x40 MLOAD PUSH2 0x106B SWAP2 SWAP1 PUSH2 0x1E5F JUMP JUMPDEST SWAP1 DUP2 MSTORE PUSH1 0x40 MLOAD SWAP1 DUP2 SWAP1 SUB PUSH1 0x20 ADD SWAP1 KECCAK256 PUSH1 0x2 ADD SLOAD PUSH1 0xFF AND PUSH2 0x10CD JUMPI PUSH1 0x40 MLOAD PUSH3 0x461BCD PUSH1 0xE5 SHL DUP2 MSTORE PUSH1 0x20 PUSH1 0x4 DUP3 ADD MSTORE PUSH1 0x18 PUSH1 0x24 DUP3 ADD MSTORE PUSH32 0x446F63756D656E742074797065206E6F74206163746976650000000000000000 PUSH1 0x44 DUP3 ADD MSTORE PUSH1 0x64 ADD PUSH2 0x3AF JUMP JUMPDEST PUSH1 0x0 PUSH1 0x4 DUP3 PUSH1 0x40 MLOAD PUSH2 0x10DF SWAP2 SWAP1 PUSH2 0x1E5F JUMP JUMPDEST SWAP1 DUP2 MSTORE PUSH1 0x40 MLOAD SWAP1 DUP2 SWAP1 SUB PUSH1 0x20 ADD DUP2 KECCAK256 PUSH1 0x2 ADD DUP1 SLOAD SWAP3 ISZERO ISZERO PUSH1 0xFF NOT SWAP1 SWAP4 AND SWAP3 SWAP1 SWAP3 OR SWAP1 SWAP2 SSTORE PUSH2 0x110E SWAP1 DUP3 SWAP1 PUSH2 0x1E5F JUMP JUMPDEST PUSH1 0x40 MLOAD SWAP1 DUP2 SWAP1 SUB DUP2 KECCAK256 SWAP1 PUSH32 0x15A74AC3A5F7D299B4E424BAD2EC2BF9E1FE1316FB6F75A3EAAB795184AB7579 SWAP1 PUSH1 0x0 SWAP1 LOG2 POP JUMP JUMPDEST PUSH1 0x0 PUSH1 0x5 DUP3 PUSH1 0x40 MLOAD PUSH2 0x1153 SWAP2 SWAP1 PUSH2 0x1E5F JUMP JUMPDEST SWAP1 DUP2 MSTORE PUSH1 0x40 MLOAD SWAP1 DUP2 SWAP1 SUB PUSH1 0x20 ADD SWAP1 KECCAK256 SLOAD PUSH1 0xFF AND SWAP3 SWAP2 POP POP JUMP JUMPDEST PUSH1 0x60 PUSH1 0x0 PUSH1 0x1 SLOAD PUSH1 0x1 PUSH1 0x1 PUSH1 0x40 SHL SUB DUP2 GT ISZERO PUSH2 0x118A JUMPI PUSH2 0x118A PUSH2 0x192F JUMP JUMPDEST PUSH1 0x40 MLOAD SWAP1 DUP1 DUP3 MSTORE DUP1 PUSH1 0x20 MUL PUSH1 0x20 ADD DUP3 ADD PUSH1 0x40 MSTORE DUP1 ISZERO PUSH2 0x11B3 JUMPI DUP2 PUSH1 0x20 ADD PUSH1 0x20 DUP3 MUL DUP1 CALLDATASIZE DUP4 CALLDATACOPY ADD SWAP1 POP JUMPDEST POP SWAP1 POP PUSH1 0x0 PUSH1 0x1 JUMPDEST PUSH1 0x1 SLOAD DUP2 GT PUSH2 0x123E JUMPI PUSH1 0x0 DUP2 DUP2 MSTORE PUSH1 0x2 PUSH1 0x20 MSTORE PUSH1 0x40 SWAP1 KECCAK256 PUSH1 0x6 ADD SLOAD PUSH1 0xFF AND DUP1 ISZERO PUSH2 0x11FB JUMPI POP PUSH1 0x0 DUP2 DUP2 MSTORE PUSH1 0x2 PUSH1 0x20 MSTORE PUSH1 0x40 SWAP1 KECCAK256 PUSH1 0x6 ADD SLOAD PUSH2 0x100 SWAP1 DIV PUSH1 0xFF AND JUMPDEST ISZERO PUSH2 0x122C JUMPI DUP1 DUP4 DUP4 DUP2 MLOAD DUP2 LT PUSH2 0x1213 JUMPI PUSH2 0x1213 PUSH2 0x1F34 JUMP JUMPDEST PUSH1 0x20 SWAP1 DUP2 MUL SWAP2 SWAP1 SWAP2 ADD ADD MSTORE DUP2 PUSH2 0x1228 DUP2 PUSH2 0x1F4A JUMP JUMPDEST SWAP3 POP POP JUMPDEST DUP1 PUSH2 0x1236 DUP2 PUSH2 0x1F4A JUMP JUMPDEST SWAP2 POP POP PUSH2 0x11BB JUMP JUMPDEST POP PUSH1 0x0 DUP2 PUSH1 0x1 PUSH1 0x1 PUSH1 0x40 SHL SUB DUP2 GT ISZERO PUSH2 0x1259 JUMPI PUSH2 0x1259 PUSH2 0x192F JUMP JUMPDEST PUSH1 0x40 MLOAD SWAP1 DUP1 DUP3 MSTORE DUP1 PUSH1 0x20 MUL PUSH1 0x20 ADD DUP3 ADD PUSH1 0x40 MSTORE DUP1 ISZERO PUSH2 0x1282 JUMPI DUP2 PUSH1 0x20 ADD PUSH1 0x20 DUP3 MUL DUP1 CALLDATASIZE DUP4 CALLDATACOPY ADD SWAP1 POP JUMPDEST POP SWAP1 POP PUSH1 0x0 JUMPDEST DUP3 DUP2 LT ISZERO PUSH2 0x12D9 JUMPI DUP4 DUP2 DUP2 MLOAD DUP2 LT PUSH2 0x12A2 JUMPI PUSH2 0x12A2 PUSH2 0x1F34 JUMP JUMPDEST PUSH1 0x20 MUL PUSH1 0x20 ADD ADD MLOAD DUP3 DUP3 DUP2 MLOAD DUP2 LT PUSH2 0x12BC JUMPI PUSH2 0x12BC PUSH2 0x1F34 JUMP JUMPDEST PUSH1 0x20 SWAP1 DUP2 MUL SWAP2 SWAP1 SWAP2 ADD ADD MSTORE DUP1 PUSH2 0x12D1 DUP2 PUSH2 0x1F4A JUMP JUMPDEST SWAP2 POP POP PUSH2 0x1288 JUMP JUMPDEST POP SWAP4 SWAP3 POP POP POP JUMP JUMPDEST PUSH1 0x2 PUSH1 0x20 DUP2 SWAP1 MSTORE PUSH1 0x0 SWAP2 DUP3 MSTORE PUSH1 0x40 SWAP1 SWAP2 KECCAK256 DUP1 SLOAD PUSH1 0x1 DUP3 ADD SLOAD SWAP3 DUP3 ADD DUP1 SLOAD SWAP2 SWAP4 PUSH1 0x1 PUSH1 0x1 PUSH1 0xA0 SHL SUB AND SWAP3 SWAP2 PUSH2 0x1314 SWAP1 PUSH2 0x1E7B JUMP JUMPDEST DUP1 PUSH1 0x1F ADD PUSH1 0x20 DUP1 SWAP2 DIV MUL PUSH1 0x20 ADD PUSH1 0x40 MLOAD SWAP1 DUP2 ADD PUSH1 0x40 MSTORE DUP1 SWAP3 SWAP2 SWAP1 DUP2 DUP2 MSTORE PUSH1 0x20 ADD DUP3 DUP1 SLOAD PUSH2 0x1340 SWAP1 PUSH2 0x1E7B JUMP JUMPDEST DUP1 ISZERO PUSH2 0x138D JUMPI DUP1 PUSH1 0x1F LT PUSH2 0x1362 JUMPI PUSH2 0x100 DUP1 DUP4 SLOAD DIV MUL DUP4 MSTORE SWAP2 PUSH1 0x20 ADD SWAP2 PUSH2 0x138D JUMP JUMPDEST DUP3 ADD SWAP2 SWAP1 PUSH1 0x0 MSTORE PUSH1 0x20 PUSH1 0x0 KECCAK256 SWAP1 JUMPDEST DUP2 SLOAD DUP2 MSTORE SWAP1 PUSH1 0x1 ADD SWAP1 PUSH1 0x20 ADD DUP1 DUP4 GT PUSH2 0x1370 JUMPI DUP3 SWAP1 SUB PUSH1 0x1F AND DUP3 ADD SWAP2 JUMPDEST POP POP POP POP POP SWAP1 DUP1 PUSH1 0x3 ADD DUP1 SLOAD PUSH2 0x13A2 SWAP1 PUSH2 0x1E7B JUMP JUMPDEST DUP1 PUSH1 0x1F ADD PUSH1 0x20 DUP1 SWAP2 DIV MUL PUSH1 0x20 ADD PUSH1 0x40 MLOAD SWAP1 DUP2 ADD PUSH1 0x40 MSTORE DUP1 SWAP3 SWAP2 SWAP1 DUP2 DUP2 MSTORE PUSH1 0x20 ADD DUP3 DUP1 SLOAD PUSH2 0x13CE SWAP1 PUSH2 0x1E7B JUMP JUMPDEST DUP1 ISZERO PUSH2 0x141B JUMPI DUP1 PUSH1 0x1F LT PUSH2 0x13F0 JUMPI PUSH2 0x100 DUP1 DUP4 SLOAD DIV MUL DUP4 MSTORE SWAP2 PUSH1 0x20 ADD SWAP2 PUSH2 0x141B JUMP JUMPDEST DUP3 ADD SWAP2 SWAP1 PUSH1 0x0 MSTORE PUSH1 0x20 PUSH1 0x0 KECCAK256 SWAP1 JUMPDEST DUP2 SLOAD DUP2 MSTORE SWAP1 PUSH1 0x1 ADD SWAP1 PUSH1 0x20 ADD DUP1 DUP4 GT PUSH2 0x13FE JUMPI DUP3 SWAP1 SUB PUSH1 0x1F AND DUP3 ADD SWAP2 JUMPDEST POP POP POP POP POP SWAP1 DUP1 PUSH1 0x4 ADD DUP1 SLOAD PUSH2 0x1430 SWAP1 PUSH2 0x1E7B JUMP JUMPDEST DUP1 PUSH1 0x1F ADD PUSH1 0x20 DUP1 SWAP2 DIV MUL PUSH1 0x20 ADD PUSH1 0x40 MLOAD SWAP1 DUP2 ADD PUSH1 0x40 MSTORE DUP1 SWAP3 SWAP2 SWAP1 DUP2 DUP2 MSTORE PUSH1 0x20 ADD DUP3 DUP1 SLOAD PUSH2 0x145C SWAP1 PUSH2 0x1E7B JUMP JUMPDEST DUP1 ISZERO PUSH2 0x14A9 JUMPI DUP1 PUSH1 0x1F LT PUSH2 0x147E JUMPI PUSH2 0x100 DUP1 DUP4 SLOAD DIV MUL DUP4 MSTORE SWAP2 PUSH1 0x20 ADD SWAP2 PUSH2 0x14A9 JUMP JUMPDEST DUP3 ADD SWAP2 SWAP1 PUSH1 0x0 MSTORE PUSH1 0x20 PUSH1 0x0 KECCAK256 SWAP1 JUMPDEST DUP2 SLOAD DUP2 MSTORE SWAP1 PUSH1 0x1 ADD SWAP1 PUSH1 0x20 ADD DUP1 DUP4 GT PUSH2 0x148C JUMPI DUP3 SWAP1 SUB PUSH1 0x1F AND DUP3 ADD SWAP2 JUMPDEST POP POP POP POP PUSH1 0x5 DUP4 ADD SLOAD PUSH1 0x6 SWAP1 SWAP4 ADD SLOAD SWAP2 SWAP3 SWAP2 PUSH1 0xFF DUP1 DUP3 AND SWAP3 POP PUSH2 0x100 SWAP1 SWAP2 DIV AND DUP9 JUMP JUMPDEST PUSH2 0x14D4 PUSH2 0x15E1 JUMP JUMPDEST PUSH1 0x0 DUP2 DUP2 MSTORE PUSH1 0x2 PUSH1 0x20 MSTORE PUSH1 0x40 SWAP1 KECCAK256 PUSH1 0x1 DUP2 ADD SLOAD PUSH1 0x1 PUSH1 0x1 PUSH1 0xA0 SHL SUB AND PUSH2 0x1536 JUMPI PUSH1 0x40 MLOAD PUSH3 0x461BCD PUSH1 0xE5 SHL DUP2 MSTORE PUSH1 0x20 PUSH1 0x4 DUP3 ADD MSTORE PUSH1 0x17 PUSH1 0x24 DUP3 ADD MSTORE PUSH23 0x111BD8DD5B595B9D08191BD95CC81B9BDD08195E1A5CDD PUSH1 0x4A SHL PUSH1 0x44 DUP3 ADD MSTORE PUSH1 0x64 ADD PUSH2 0x3AF JUMP JUMPDEST PUSH1 0x6 DUP2 ADD SLOAD PUSH2 0x100 SWAP1 DIV PUSH1 0xFF AND ISZERO PUSH2 0x1590 JUMPI PUSH1 0x40 MLOAD PUSH3 0x461BCD PUSH1 0xE5 SHL DUP2 MSTORE PUSH1 0x20 PUSH1 0x4 DUP3 ADD MSTORE PUSH1 0x17 PUSH1 0x24 DUP3 ADD MSTORE PUSH32 0x446F63756D656E7420616C726561647920616374697665000000000000000000 PUSH1 0x44 DUP3 ADD MSTORE PUSH1 0x64 ADD PUSH2 0x3AF JUMP JUMPDEST PUSH1 0x6 ADD DUP1 SLOAD PUSH2 0xFF00 NOT AND PUSH2 0x100 OR SWAP1 SSTORE POP JUMP JUMPDEST PUSH2 0x15AB PUSH2 0x15E1 JUMP JUMPDEST PUSH1 0x1 PUSH1 0x1 PUSH1 0xA0 SHL SUB DUP2 AND PUSH2 0x15D5 JUMPI PUSH1 0x40 MLOAD PUSH4 0x1E4FBDF7 PUSH1 0xE0 SHL DUP2 MSTORE PUSH1 0x0 PUSH1 0x4 DUP3 ADD MSTORE PUSH1 0x24 ADD PUSH2 0x3AF JUMP JUMPDEST PUSH2 0x15DE DUP2 PUSH2 0x16F1 JUMP JUMPDEST POP JUMP JUMPDEST PUSH1 0x0 SLOAD PUSH1 0x1 PUSH1 0x1 PUSH1 0xA0 SHL SUB AND CALLER EQ PUSH2 0xC57 JUMPI PUSH1 0x40 MLOAD PUSH4 0x118CDAA7 PUSH1 0xE0 SHL DUP2 MSTORE CALLER PUSH1 0x4 DUP3 ADD MSTORE PUSH1 0x24 ADD PUSH2 0x3AF JUMP JUMPDEST PUSH1 0x0 PUSH1 0x4 DUP5 PUSH1 0x40 MLOAD PUSH2 0x1620 SWAP2 SWAP1 PUSH2 0x1E5F JUMP JUMPDEST SWAP1 DUP2 MSTORE PUSH1 0x40 MLOAD SWAP1 DUP2 SWAP1 SUB PUSH1 0x20 ADD SWAP1 KECCAK256 SWAP1 POP DUP1 PUSH2 0x163C DUP6 DUP3 PUSH2 0x1FBF JUMP JUMPDEST POP PUSH1 0x1 DUP2 ADD PUSH2 0x164B DUP5 DUP3 PUSH2 0x1FBF JUMP JUMPDEST POP PUSH1 0x2 DUP2 ADD DUP1 SLOAD PUSH1 0xFF NOT AND PUSH1 0x1 SWAP1 DUP2 OR SWAP1 SWAP2 SSTORE PUSH1 0x3 DUP3 ADD DUP4 SWAP1 SSTORE PUSH1 0x6 DUP1 SLOAD SWAP2 DUP3 ADD DUP2 SSTORE PUSH1 0x0 MSTORE PUSH32 0xF652222313E28459528D920B65115C16C04F3EFC82AAEDC97BE59F3F377C0D3F ADD PUSH2 0x169D DUP6 DUP3 PUSH2 0x1FBF JUMP JUMPDEST POP DUP4 PUSH1 0x40 MLOAD PUSH2 0x16AC SWAP2 SWAP1 PUSH2 0x1E5F JUMP JUMPDEST PUSH1 0x40 MLOAD DUP1 SWAP2 SUB SWAP1 KECCAK256 PUSH32 0x73903B186F572DB44D486D4827957D565ADD734304FDD0771E04D22094FA5E87 DUP5 PUSH1 0x40 MLOAD PUSH2 0x16E3 SWAP2 SWAP1 PUSH2 0x1CAA JUMP JUMPDEST PUSH1 0x40 MLOAD DUP1 SWAP2 SUB SWAP1 LOG2 POP POP POP POP JUMP JUMPDEST PUSH1 0x0 DUP1 SLOAD PUSH1 0x1 PUSH1 0x1 PUSH1 0xA0 SHL SUB DUP4 DUP2 AND PUSH1 0x1 PUSH1 0x1 PUSH1 0xA0 SHL SUB NOT DUP4 AND DUP2 OR DUP5 SSTORE PUSH1 0x40 MLOAD SWAP2 SWAP1 SWAP3 AND SWAP3 DUP4 SWAP2 PUSH32 0x8BE0079C531659141344CD1FD0A4F28419497F9722A3DAAFE3B4186F6B6457E0 SWAP2 SWAP1 LOG3 POP POP JUMP JUMPDEST PUSH1 0x0 DUP1 DUP5 MLOAD GT PUSH2 0x1788 JUMPI PUSH1 0x40 MLOAD PUSH3 0x461BCD PUSH1 0xE5 SHL DUP2 MSTORE PUSH1 0x20 PUSH1 0x4 DUP3 ADD MSTORE PUSH1 0x12 PUSH1 0x24 DUP3 ADD MSTORE PUSH18 0x12541194C81A185CDA081C995C5D5A5C9959 PUSH1 0x72 SHL PUSH1 0x44 DUP3 ADD MSTORE PUSH1 0x64 ADD PUSH2 0x3AF JUMP JUMPDEST PUSH1 0x4 DUP4 PUSH1 0x40 MLOAD PUSH2 0x1798 SWAP2 SWAP1 PUSH2 0x1E5F JUMP JUMPDEST SWAP1 DUP2 MSTORE PUSH1 0x40 MLOAD SWAP1 DUP2 SWAP1 SUB PUSH1 0x20 ADD SWAP1 KECCAK256 PUSH1 0x2 ADD SLOAD PUSH1 0xFF AND PUSH2 0x17FA JUMPI PUSH1 0x40 MLOAD PUSH3 0x461BCD PUSH1 0xE5 SHL DUP2 MSTORE PUSH1 0x20 PUSH1 0x4 DUP3 ADD MSTORE PUSH1 0x1B PUSH1 0x24 DUP3 ADD MSTORE PUSH32 0x446F63756D656E742074797065206E6F7420737570706F727465640000000000 PUSH1 0x44 DUP3 ADD MSTORE PUSH1 0x64 ADD PUSH2 0x3AF JUMP JUMPDEST PUSH1 0x0 DUP3 MLOAD GT PUSH2 0x1842 JUMPI PUSH1 0x40 MLOAD PUSH3 0x461BCD PUSH1 0xE5 SHL DUP2 MSTORE PUSH1 0x20 PUSH1 0x4 DUP3 ADD MSTORE PUSH1 0x14 PUSH1 0x24 DUP3 ADD MSTORE PUSH20 0x11195CD8DC9A5C1D1A5BDB881C995C5D5A5C9959 PUSH1 0x62 SHL PUSH1 0x44 DUP3 ADD MSTORE PUSH1 0x64 ADD PUSH2 0x3AF JUMP JUMPDEST PUSH1 0x1 DUP1 SLOAD SWAP1 PUSH1 0x0 PUSH2 0x1852 DUP4 PUSH2 0x1F4A JUMP JUMPDEST SWAP1 SWAP2 SSTORE POP POP PUSH1 0x1 DUP1 SLOAD PUSH1 0x0 DUP2 DUP2 MSTORE PUSH1 0x2 PUSH1 0x20 DUP2 SWAP1 MSTORE PUSH1 0x40 SWAP1 SWAP2 KECCAK256 DUP3 DUP2 SSTORE SWAP3 DUP4 ADD DUP1 SLOAD PUSH1 0x1 PUSH1 0x1 PUSH1 0xA0 SHL SUB NOT AND CALLER OR SWAP1 SSTORE SWAP1 SWAP2 SWAP1 DUP2 ADD PUSH2 0x1891 DUP8 DUP3 PUSH2 0x1FBF JUMP JUMPDEST POP PUSH1 0x3 DUP2 ADD PUSH2 0x18A0 DUP7 DUP3 PUSH2 0x1FBF JUMP JUMPDEST POP PUSH1 0x4 DUP2 ADD PUSH2 0x18AF DUP6 DUP3 PUSH2 0x1FBF JUMP JUMPDEST POP TIMESTAMP PUSH1 0x5 DUP3 ADD SSTORE PUSH1 0x6 DUP2 ADD DUP1 SLOAD PUSH2 0xFF00 NOT AND PUSH2 0x100 OR SWAP1 SSTORE CALLER PUSH1 0x0 DUP2 DUP2 MSTORE PUSH1 0x3 PUSH1 0x20 SWAP1 DUP2 MSTORE PUSH1 0x40 DUP1 DUP4 KECCAK256 DUP1 SLOAD PUSH1 0x1 DUP2 ADD DUP3 SSTORE SWAP1 DUP5 MSTORE SWAP2 SWAP1 SWAP3 KECCAK256 ADD DUP5 SWAP1 SSTORE MLOAD DUP4 SWAP1 PUSH32 0xBC1A1CCF8342004AF7ABC5B367BE5BEB32916A886FA6A400AE874B3E5EBBC272 SWAP1 PUSH2 0x191E SWAP1 DUP11 SWAP1 DUP11 SWAP1 PUSH2 0x207E JUMP JUMPDEST PUSH1 0x40 MLOAD DUP1 SWAP2 SUB SWAP1 LOG3 POP SWAP5 SWAP4 POP POP POP POP JUMP JUMPDEST PUSH4 0x4E487B71 PUSH1 0xE0 SHL PUSH1 0x0 MSTORE PUSH1 0x41 PUSH1 0x4 MSTORE PUSH1 0x24 PUSH1 0x0 REVERT JUMPDEST PUSH1 0x40 MLOAD PUSH1 0x1F DUP3 ADD PUSH1 0x1F NOT AND DUP2 ADD PUSH1 0x1 PUSH1 0x1 PUSH1 0x40 SHL SUB DUP2 GT DUP3 DUP3 LT OR ISZERO PUSH2 0x196D JUMPI PUSH2 0x196D PUSH2 0x192F JUMP JUMPDEST PUSH1 0x40 MSTORE SWAP2 SWAP1 POP JUMP JUMPDEST PUSH1 0x0 DUP3 PUSH1 0x1F DUP4 ADD SLT PUSH2 0x1986 JUMPI PUSH1 0x0 DUP1 REVERT JUMPDEST DUP2 CALLDATALOAD PUSH1 0x1 PUSH1 0x1 PUSH1 0x40 SHL SUB DUP2 GT ISZERO PUSH2 0x199F JUMPI PUSH2 0x199F PUSH2 0x192F JUMP JUMPDEST PUSH2 0x19B2 PUSH1 0x1F DUP3 ADD PUSH1 0x1F NOT AND PUSH1 0x20 ADD PUSH2 0x1945 JUMP JUMPDEST DUP2 DUP2 MSTORE DUP5 PUSH1 0x20 DUP4 DUP7 ADD ADD GT ISZERO PUSH2 0x19C7 JUMPI PUSH1 0x0 DUP1 REVERT JUMPDEST DUP2 PUSH1 0x20 DUP6 ADD PUSH1 0x20 DUP4 ADD CALLDATACOPY PUSH1 0x0 SWAP2 DUP2 ADD PUSH1 0x20 ADD SWAP2 SWAP1 SWAP2 MSTORE SWAP4 SWAP3 POP POP POP JUMP JUMPDEST PUSH1 0x0 PUSH1 0x20 DUP3 DUP5 SUB SLT ISZERO PUSH2 0x19F6 JUMPI PUSH1 0x0 DUP1 REVERT JUMPDEST DUP2 CALLDATALOAD PUSH1 0x1 PUSH1 0x1 PUSH1 0x40 SHL SUB DUP2 GT ISZERO PUSH2 0x1A0C JUMPI PUSH1 0x0 DUP1 REVERT JUMPDEST PUSH2 0xF13 DUP5 DUP3 DUP6 ADD PUSH2 0x1975 JUMP JUMPDEST PUSH1 0x0 DUP1 PUSH1 0x0 PUSH1 0x60 DUP5 DUP7 SUB SLT ISZERO PUSH2 0x1A2D JUMPI PUSH1 0x0 DUP1 REVERT JUMPDEST DUP4 CALLDATALOAD PUSH1 0x1 PUSH1 0x1 PUSH1 0x40 SHL SUB DUP1 DUP3 GT ISZERO PUSH2 0x1A44 JUMPI PUSH1 0x0 DUP1 REVERT JUMPDEST PUSH2 0x1A50 DUP8 DUP4 DUP9 ADD PUSH2 0x1975 JUMP JUMPDEST SWAP5 POP PUSH1 0x20 DUP7 ADD CALLDATALOAD SWAP2 POP DUP1 DUP3 GT ISZERO PUSH2 0x1A66 JUMPI PUSH1 0x0 DUP1 REVERT JUMPDEST POP PUSH2 0x1A73 DUP7 DUP3 DUP8 ADD PUSH2 0x1975 JUMP JUMPDEST SWAP3 POP POP PUSH1 0x40 DUP5 ADD CALLDATALOAD SWAP1 POP SWAP3 POP SWAP3 POP SWAP3 JUMP JUMPDEST PUSH1 0x0 PUSH1 0x20 DUP3 DUP5 SUB SLT ISZERO PUSH2 0x1A96 JUMPI PUSH1 0x0 DUP1 REVERT JUMPDEST POP CALLDATALOAD SWAP2 SWAP1 POP JUMP JUMPDEST PUSH1 0x0 JUMPDEST DUP4 DUP2 LT ISZERO PUSH2 0x1AB8 JUMPI DUP2 DUP2 ADD MLOAD DUP4 DUP3 ADD MSTORE PUSH1 0x20 ADD PUSH2 0x1AA0 JUMP JUMPDEST POP POP PUSH1 0x0 SWAP2 ADD MSTORE JUMP JUMPDEST PUSH1 0x0 DUP2 MLOAD DUP1 DUP5 MSTORE PUSH2 0x1AD9 DUP2 PUSH1 0x20 DUP7 ADD PUSH1 0x20 DUP7 ADD PUSH2 0x1A9D JUMP JUMPDEST PUSH1 0x1F ADD PUSH1 0x1F NOT AND SWAP3 SWAP1 SWAP3 ADD PUSH1 0x20 ADD SWAP3 SWAP2 POP POP JUMP JUMPDEST PUSH1 0x0 PUSH1 0x20 DUP1 DUP4 ADD DUP2 DUP5 MSTORE DUP1 DUP6 MLOAD DUP1 DUP4 MSTORE PUSH1 0x40 DUP7 ADD SWAP2 POP PUSH1 0x40 DUP2 PUSH1 0x5 SHL DUP8 ADD ADD SWAP3 POP DUP4 DUP8 ADD PUSH1 0x0 JUMPDEST DUP3 DUP2 LT ISZERO PUSH2 0x1B42 JUMPI PUSH1 0x3F NOT DUP9 DUP7 SUB ADD DUP5 MSTORE PUSH2 0x1B30 DUP6 DUP4 MLOAD PUSH2 0x1AC1 JUMP JUMPDEST SWAP5 POP SWAP3 DUP6 ADD SWAP3 SWAP1 DUP6 ADD SWAP1 PUSH1 0x1 ADD PUSH2 0x1B14 JUMP JUMPDEST POP SWAP3 SWAP8 SWAP7 POP POP POP POP POP POP POP JUMP JUMPDEST DUP9 DUP2 MSTORE PUSH1 0x1 PUSH1 0x1 PUSH1 0xA0 SHL SUB DUP9 AND PUSH1 0x20 DUP3 ADD MSTORE PUSH2 0x100 PUSH1 0x40 DUP3 ADD DUP2 SWAP1 MSTORE PUSH1 0x0 SWAP1 PUSH2 0x1B7A DUP4 DUP3 ADD DUP11 PUSH2 0x1AC1 JUMP JUMPDEST SWAP1 POP DUP3 DUP2 SUB PUSH1 0x60 DUP5 ADD MSTORE PUSH2 0x1B8E DUP2 DUP10 PUSH2 0x1AC1 JUMP JUMPDEST SWAP1 POP DUP3 DUP2 SUB PUSH1 0x80 DUP5 ADD MSTORE PUSH2 0x1BA2 DUP2 DUP9 PUSH2 0x1AC1 JUMP JUMPDEST PUSH1 0xA0 DUP5 ADD SWAP7 SWAP1 SWAP7 MSTORE POP POP SWAP2 ISZERO ISZERO PUSH1 0xC0 DUP4 ADD MSTORE ISZERO ISZERO PUSH1 0xE0 SWAP1 SWAP2 ADD MSTORE SWAP6 SWAP5 POP POP POP POP POP JUMP JUMPDEST DUP1 CALLDATALOAD PUSH1 0x1 PUSH1 0x1 PUSH1 0xA0 SHL SUB DUP2 AND DUP2 EQ PUSH2 0x1BDC JUMPI PUSH1 0x0 DUP1 REVERT JUMPDEST SWAP2 SWAP1 POP JUMP JUMPDEST PUSH1 0x0 DUP1 PUSH1 0x40 DUP4 DUP6 SUB SLT ISZERO PUSH2 0x1BF4 JUMPI PUSH1 0x0 DUP1 REVERT JUMPDEST PUSH2 0x1BFD DUP4 PUSH2 0x1BC5 JUMP JUMPDEST SWAP5 PUSH1 0x20 SWAP4 SWAP1 SWAP4 ADD CALLDATALOAD SWAP4 POP POP POP JUMP JUMPDEST PUSH1 0x80 DUP2 MSTORE PUSH1 0x0 PUSH2 0x1C1E PUSH1 0x80 DUP4 ADD DUP8 PUSH2 0x1AC1 JUMP JUMPDEST DUP3 DUP2 SUB PUSH1 0x20 DUP5 ADD MSTORE PUSH2 0x1C30 DUP2 DUP8 PUSH2 0x1AC1 JUMP JUMPDEST SWAP5 ISZERO ISZERO PUSH1 0x40 DUP5 ADD MSTORE POP POP PUSH1 0x60 ADD MSTORE SWAP3 SWAP2 POP POP JUMP JUMPDEST PUSH1 0x20 DUP1 DUP3 MSTORE DUP3 MLOAD DUP3 DUP3 ADD DUP2 SWAP1 MSTORE PUSH1 0x0 SWAP2 SWAP1 DUP5 DUP3 ADD SWAP1 PUSH1 0x40 DUP6 ADD SWAP1 DUP5 JUMPDEST DUP2 DUP2 LT ISZERO PUSH2 0x1C7C JUMPI DUP4 MLOAD DUP4 MSTORE SWAP3 DUP5 ADD SWAP3 SWAP2 DUP5 ADD SWAP2 PUSH1 0x1 ADD PUSH2 0x1C60 JUMP JUMPDEST POP SWAP1 SWAP7 SWAP6 POP POP POP POP POP POP JUMP JUMPDEST PUSH1 0x0 PUSH1 0x20 DUP3 DUP5 SUB SLT ISZERO PUSH2 0x1C9A JUMPI PUSH1 0x0 DUP1 REVERT JUMPDEST PUSH2 0x1CA3 DUP3 PUSH2 0x1BC5 JUMP JUMPDEST SWAP4 SWAP3 POP POP POP JUMP JUMPDEST PUSH1 0x20 DUP2 MSTORE PUSH1 0x0 PUSH2 0x1CA3 PUSH1 0x20 DUP4 ADD DUP5 PUSH2 0x1AC1 JUMP JUMPDEST PUSH1 0x0 DUP1 PUSH1 0x0 PUSH1 0x60 DUP5 DUP7 SUB SLT ISZERO PUSH2 0x1CD2 JUMPI PUSH1 0x0 DUP1 REVERT JUMPDEST DUP4 CALLDATALOAD PUSH1 0x1 PUSH1 0x1 PUSH1 0x40 SHL SUB DUP1 DUP3 GT ISZERO PUSH2 0x1CE9 JUMPI PUSH1 0x0 DUP1 REVERT JUMPDEST PUSH2 0x1CF5 DUP8 DUP4 DUP9 ADD PUSH2 0x1975 JUMP JUMPDEST SWAP5 POP PUSH1 0x20 DUP7 ADD CALLDATALOAD SWAP2 POP DUP1 DUP3 GT ISZERO PUSH2 0x1D0B JUMPI PUSH1 0x0 DUP1 REVERT JUMPDEST PUSH2 0x1D17 DUP8 DUP4 DUP9 ADD PUSH2 0x1975 JUMP JUMPDEST SWAP4 POP PUSH1 0x40 DUP7 ADD CALLDATALOAD SWAP2 POP DUP1 DUP3 GT ISZERO PUSH2 0x1D2D JUMPI PUSH1 0x0 DUP1 REVERT JUMPDEST POP PUSH2 0x1D3A DUP7 DUP3 DUP8 ADD PUSH2 0x1975 JUMP JUMPDEST SWAP2 POP POP SWAP3 POP SWAP3 POP SWAP3 JUMP JUMPDEST PUSH1 0x0 DUP3 PUSH1 0x1F DUP4 ADD SLT PUSH2 0x1D55 JUMPI PUSH1 0x0 DUP1 REVERT JUMPDEST DUP2 CALLDATALOAD PUSH1 0x20 PUSH1 0x1 PUSH1 0x1 PUSH1 0x40 SHL SUB DUP1 DUP4 GT ISZERO PUSH2 0x1D71 JUMPI PUSH2 0x1D71 PUSH2 0x192F JUMP JUMPDEST DUP3 PUSH1 0x5 SHL PUSH2 0x1D80 DUP4 DUP3 ADD PUSH2 0x1945 JUMP JUMPDEST SWAP4 DUP5 MSTORE DUP6 DUP2 ADD DUP4 ADD SWAP4 DUP4 DUP2 ADD SWAP1 DUP9 DUP7 GT ISZERO PUSH2 0x1D9A JUMPI PUSH1 0x0 DUP1 REVERT JUMPDEST DUP5 DUP9 ADD SWAP3 POP JUMPDEST DUP6 DUP4 LT ISZERO PUSH2 0x1DD6 JUMPI DUP3 CALLDATALOAD DUP5 DUP2 GT ISZERO PUSH2 0x1DB8 JUMPI PUSH1 0x0 DUP1 DUP2 REVERT JUMPDEST PUSH2 0x1DC6 DUP11 DUP8 DUP4 DUP13 ADD ADD PUSH2 0x1975 JUMP JUMPDEST DUP4 MSTORE POP SWAP2 DUP5 ADD SWAP2 SWAP1 DUP5 ADD SWAP1 PUSH2 0x1DA0 JUMP JUMPDEST SWAP9 SWAP8 POP POP POP POP POP POP POP POP JUMP JUMPDEST PUSH1 0x0 DUP1 PUSH1 0x0 PUSH1 0x60 DUP5 DUP7 SUB SLT ISZERO PUSH2 0x1DF7 JUMPI PUSH1 0x0 DUP1 REVERT JUMPDEST DUP4 CALLDATALOAD PUSH1 0x1 PUSH1 0x1 PUSH1 0x40 SHL SUB DUP1 DUP3 GT ISZERO PUSH2 0x1E0E JUMPI PUSH1 0x0 DUP1 REVERT JUMPDEST PUSH2 0x1E1A DUP8 DUP4 DUP9 ADD PUSH2 0x1D44 JUMP JUMPDEST SWAP5 POP PUSH1 0x20 DUP7 ADD CALLDATALOAD SWAP2 POP DUP1 DUP3 GT ISZERO PUSH2 0x1E30 JUMPI PUSH1 0x0 DUP1 REVERT JUMPDEST PUSH2 0x1E3C DUP8 DUP4 DUP9 ADD PUSH2 0x1D44 JUMP JUMPDEST SWAP4 POP PUSH1 0x40 DUP7 ADD CALLDATALOAD SWAP2 POP DUP1 DUP3 GT ISZERO PUSH2 0x1E52 JUMPI PUSH1 0x0 DUP1 REVERT JUMPDEST POP PUSH2 0x1D3A DUP7 DUP3 DUP8 ADD PUSH2 0x1D44 JUMP JUMPDEST PUSH1 0x0 DUP3 MLOAD PUSH2 0x1E71 DUP2 DUP5 PUSH1 0x20 DUP8 ADD PUSH2 0x1A9D JUMP JUMPDEST SWAP2 SWAP1 SWAP2 ADD SWAP3 SWAP2 POP POP JUMP JUMPDEST PUSH1 0x1 DUP2 DUP2 SHR SWAP1 DUP3 AND DUP1 PUSH2 0x1E8F JUMPI PUSH1 0x7F DUP3 AND SWAP2 POP JUMPDEST PUSH1 0x20 DUP3 LT DUP2 SUB PUSH2 0x1EAF JUMPI PUSH4 0x4E487B71 PUSH1 0xE0 SHL PUSH1 0x0 MSTORE PUSH1 0x22 PUSH1 0x4 MSTORE PUSH1 0x24 PUSH1 0x0 REVERT JUMPDEST POP SWAP2 SWAP1 POP JUMP JUMPDEST PUSH1 0x0 DUP2 SLOAD PUSH2 0x1EC2 DUP2 PUSH2 0x1E7B JUMP JUMPDEST PUSH1 0x1 DUP3 DUP2 AND DUP1 ISZERO PUSH2 0x1EDA JUMPI PUSH1 0x1 DUP2 EQ PUSH2 0x1EEF JUMPI PUSH2 0x1F1E JUMP JUMPDEST PUSH1 0xFF NOT DUP5 AND DUP8 MSTORE DUP3 ISZERO ISZERO DUP4 MUL DUP8 ADD SWAP5 POP PUSH2 0x1F1E JUMP JUMPDEST DUP6 PUSH1 0x0 MSTORE PUSH1 0x20 DUP1 PUSH1 0x0 KECCAK256 PUSH1 0x0 JUMPDEST DUP6 DUP2 LT ISZERO PUSH2 0x1F15 JUMPI DUP2 SLOAD DUP11 DUP3 ADD MSTORE SWAP1 DUP5 ADD SWAP1 DUP3 ADD PUSH2 0x1EFC JUMP JUMPDEST POP POP POP DUP3 DUP8 ADD SWAP5 POP JUMPDEST POP POP POP POP SWAP3 SWAP2 POP POP JUMP JUMPDEST PUSH1 0x0 PUSH2 0x1CA3 DUP3 DUP5 PUSH2 0x1EB5 JUMP JUMPDEST PUSH4 0x4E487B71 PUSH1 0xE0 SHL PUSH1 0x0 MSTORE PUSH1 0x32 PUSH1 0x4 MSTORE PUSH1 0x24 PUSH1 0x0 REVERT JUMPDEST PUSH1 0x0 PUSH1 0x1 DUP3 ADD PUSH2 0x1F6A JUMPI PUSH4 0x4E487B71 PUSH1 0xE0 SHL PUSH1 0x0 MSTORE PUSH1 0x11 PUSH1 0x4 MSTORE PUSH1 0x24 PUSH1 0x0 REVERT JUMPDEST POP PUSH1 0x1 ADD SWAP1 JUMP JUMPDEST PUSH1 0x1F DUP3 GT ISZERO PUSH2 0x436 JUMPI PUSH1 0x0 DUP2 DUP2 MSTORE PUSH1 0x20 DUP2 KECCAK256 PUSH1 0x1F DUP6 ADD PUSH1 0x5 SHR DUP2 ADD PUSH1 0x20 DUP7 LT ISZERO PUSH2 0x1F98 JUMPI POP DUP1 JUMPDEST PUSH1 0x1F DUP6 ADD PUSH1 0x5 SHR DUP3 ADD SWAP2 POP JUMPDEST DUP2 DUP2 LT ISZERO PUSH2 0x1FB7 JUMPI DUP3 DUP2 SSTORE PUSH1 0x1 ADD PUSH2 0x1FA4 JUMP JUMPDEST POP POP POP POP POP POP JUMP JUMPDEST DUP2 MLOAD PUSH1 0x1 PUSH1 0x1 PUSH1 0x40 SHL SUB DUP2 GT ISZERO PUSH2 0x1FD8 JUMPI PUSH2 0x1FD8 PUSH2 0x192F JUMP JUMPDEST PUSH2 0x1FEC DUP2 PUSH2 0x1FE6 DUP5 SLOAD PUSH2 0x1E7B JUMP JUMPDEST DUP5 PUSH2 0x1F71 JUMP JUMPDEST PUSH1 0x20 DUP1 PUSH1 0x1F DUP4 GT PUSH1 0x1 DUP2 EQ PUSH2 0x2021 JUMPI PUSH1 0x0 DUP5 ISZERO PUSH2 0x2009 JUMPI POP DUP6 DUP4 ADD MLOAD JUMPDEST PUSH1 0x0 NOT PUSH1 0x3 DUP7 SWAP1 SHL SHR NOT AND PUSH1 0x1 DUP6 SWAP1 SHL OR DUP6 SSTORE PUSH2 0x1FB7 JUMP JUMPDEST PUSH1 0x0 DUP6 DUP2 MSTORE PUSH1 0x20 DUP2 KECCAK256 PUSH1 0x1F NOT DUP7 AND SWAP2 JUMPDEST DUP3 DUP2 LT ISZERO PUSH2 0x2050 JUMPI DUP9 DUP7 ADD MLOAD DUP3 SSTORE SWAP5 DUP5 ADD SWAP5 PUSH1 0x1 SWAP1 SWAP2 ADD SWAP1 DUP5 ADD PUSH2 0x2031 JUMP JUMPDEST POP DUP6 DUP3 LT ISZERO PUSH2 0x206E JUMPI DUP8 DUP6 ADD MLOAD PUSH1 0x0 NOT PUSH1 0x3 DUP9 SWAP1 SHL PUSH1 0xF8 AND SHR NOT AND DUP2 SSTORE JUMPDEST POP POP POP POP POP PUSH1 0x1 SWAP1 DUP2 SHL ADD SWAP1 SSTORE POP JUMP JUMPDEST PUSH1 0x40 DUP2 MSTORE PUSH1 0x0 PUSH2 0x2091 PUSH1 0x40 DUP4 ADD DUP6 PUSH2 0x1AC1 JUMP JUMPDEST DUP3 DUP2 SUB PUSH1 0x20 DUP5 ADD MSTORE PUSH2 0x20A3 DUP2 DUP6 PUSH2 0x1AC1 JUMP JUMPDEST SWAP6 SWAP5 POP POP POP POP POP JUMP INVALID LOG2 PUSH5 0x6970667358 0x22 SLT KECCAK256 0x2A JUMPI DUP12 PUSH7 0x3DBB71EBE2F3B6 0x24 MSTORE 0xC1 0xFC 0xD 0xB7 SWAP4 CALLVALUE 0xD8 0x2D PUSH19 0x1A695F9D20F3DFC3D2DD64736F6C6343000814 STOP CALLER "},"gasEstimates":{"creation":{"codeDepositCost":"1683600","executionCost":"infinite","totalCost":"infinite"},"external":{"addDocumentType(string,string,uint256)":"infinite","deactivateDocument(uint256)":"30401","deactivateDocumentType(string)":"infinite","documentTypes(string)":"infinite","documents(uint256)":"infinite","getDocument(uint256)":"infinite","getDocumentCount()":"2393","getDocumentType(string)":"infinite","getDocumentsByType(string)":"infinite","getSupportedDocumentTypes()":"infinite","getUserDocuments(address)":"infinite","getVerifiedDocuments()":"infinite","isHashVerified(string)":"infinite","owner()":"2346","reactivateDocument(uint256)":"31077","renounceOwnership()":"infinite","supportedDocumentTypes(uint256)":"infinite","transferOwnership(address)":"28465","uploadDocument(string,string,string)":"infinite","uploadMultipleDocuments(string[],string[],string[])":"infinite","userDocuments(address,uint256)":"4789","verifiedHashes(string)":"infinite","verifyDocument(uint256)":"infinite"},"internal":{"_addDocumentType(string memory,string memory,uint256)":"infinite","_uploadDocument(string memory,string memory,string memory)":"infinite"}},"methodIdentifiers":{"addDocumentType(string,string,uint256)":"0dacc181","deactivateDocument(uint256)":"389c1d66","deactivateDocumentType(string)":"a403fe08","documentTypes(string)":"5d544901","documents(uint256)":"c2ed2b05","getDocument(uint256)":"3f9b250a","getDocumentCount()":"3d1c2273","getDocumentType(string)":"661d6ca9","getDocumentsByType(string)":"8897b932","getSupportedDocumentTypes()":"3cd6b9cd","getUserDocuments(address)":"90a4b162","getVerifiedDocuments()":"bee7809f","isHashVerified(string)":"a91f947d","owner()":"8da5cb5b","reactivateDocument(uint256)":"c6dc7e5d","renounceOwnership()":"715018a6","supportedDocumentTypes(uint256)":"969d13b0","transferOwnership(address)":"f2fde38b","uploadDocument(string,string,string)":"9e987f95","uploadMultipleDocuments(string[],string[],string[])":"a11868fc","userDocuments(address,uint256)":"577a1b92","verifiedHashes(string)":"0da7d835","verifyDocument(uint256)":"6dda61d9"}},"storageLayout":{"storage":[{"astId":54,"contract":"contracts/IPFSStorage.sol:IPFSStorage","label":"_owner","offset":0,"slot":"0","type":"t_address"},{"astId":1648,"contract":"contracts/IPFSStorage.sol:IPFSStorage","label":"_documentIds","offset":0,"slot":"1","type":"t_uint256"},{"astId":1653,"contract":"contracts/IPFSStorage.sol:IPFSStorage","label":"documents","offset":0,"slot":"2","type":"t_mapping(t_uint256,t_struct(IPFSDocument)1637_storage)"},{"astId":1658,"contract":"contracts/IPFSStorage.sol:IPFSStorage","label":"userDocuments","offset":0,"slot":"3","type":"t_mapping(t_address,t_array(t_uint256)dyn_storage)"},{"astId":1663,"contract":"contracts/IPFSStorage.sol:IPFSStorage","label":"documentTypes","offset":0,"slot":"4","type":"t_mapping(t_string_memory_ptr,t_struct(DocumentType)1646_storage)"},{"astId":1667,"contract":"contracts/IPFSStorage.sol:IPFSStorage","label":"verifiedHashes","offset":0,"slot":"5","type":"t_mapping(t_string_memory_ptr,t_bool)"},{"astId":1670,"contract":"contracts/IPFSStorage.sol:IPFSStorage","label":"supportedDocumentTypes","offset":0,"slot":"6","type":"t_array(t_string_storage)dyn_storage"}],"types":{"t_address":{"encoding":"inplace","label":"address","numberOfBytes":"20"},"t_array(t_string_storage)dyn_storage":{"base":"t_string_storage","encoding":"dynamic_array","label":"string[]","numberOfBytes":"32"},"t_array(t_uint256)dyn_storage":{"base":"t_uint256","encoding":"dynamic_array","label":"uint256[]","numberOfBytes":"32"},"t_bool":{"encoding":"inplace","label":"bool","numberOfBytes":"1"},"t_mapping(t_address,t_array(t_uint256)dyn_storage)":{"encoding":"mapping","key":"t_address","label":"mapping(address => uint256[])","numberOfBytes":"32","value":"t_array(t_uint256)dyn_storage"},"t_mapping(t_string_memory_ptr,t_bool)":{"encoding":"mapping","key":"t_string_memory_ptr","label":"mapping(string => bool)","numberOfBytes":"32","value":"t_bool"},"t_mapping(t_string_memory_ptr,t_struct(DocumentType)1646_storage)":{"encoding":"mapping","key":"t_string_memory_ptr","label":"mapping(string => struct IPFSStorage.DocumentType)","numberOfBytes":"32","value":"t_struct(DocumentType)1646_storage"},"t_mapping(t_uint256,t_struct(IPFSDocument)1637_storage)":{"encoding":"mapping","key":"t_uint256","label":"mapping(uint256 => struct IPFSStorage.IPFSDocument)","numberOfBytes":"32","value":"t_struct(IPFSDocument)1637_storage"},"t_string_memory_ptr":{"encoding":"bytes","label":"string","numberOfBytes":"32"},"t_string_storage":{"encoding":"bytes","label":"string","numberOfBytes":"32"},"t_struct(DocumentType)1646_storage":{"encoding":"inplace","label":"struct IPFSStorage.DocumentType","members":[{"astId":1639,"contract":"contracts/IPFSStorage.sol:IPFSStorage","label":"name","offset":0,"slot":"0","type":"t_string_storage"},{"astId":1641,"contract":"contracts/IPFSStorage.sol:IPFSStorage","label":"description","offset":0,"slot":"1","type":"t_string_storage"},{"astId":1643,"contract":"contracts/IPFSStorage.sol:IPFSStorage","label":"isActive","offset":0,"slot":"2","type":"t_bool"},{"astId":1645,"contract":"contracts/IPFSStorage.sol:IPFSStorage","label":"maxSize","offset":0,"slot":"3","type":"t_uint256"}],"numberOfBytes":"128"},"t_struct(IPFSDocument)1637_storage":{"encoding":"inplace","label":"struct IPFSStorage.IPFSDocument","members":[{"astId":1622,"contract":"contracts/IPFSStorage.sol:IPFSStorage","label":"documentId","offset":0,"slot":"0","type":"t_uint256"},{"astId":1624,"contract":"contracts/IPFSStorage.sol:IPFSStorage","label":"owner","offset":0,"slot":"1","type":"t_address"},{"astId":1626,"contract":"contracts/IPFSStorage.sol:IPFSStorage","label":"ipfsHash","offset":0,"slot":"2","type":"t_string_storage"},{"astId":1628,"contract":"contracts/IPFSStorage.sol:IPFSStorage","label":"documentType","offset":0,"slot":"3","type":"t_string_storage"},{"astId":1630,"contract":"contracts/IPFSStorage.sol:IPFSStorage","label":"description","offset":0,"slot":"4","type":"t_string_storage"},{"astId":1632,"contract":"contracts/IPFSStorage.sol:IPFSStorage","label":"uploadDate","offset":0,"slot":"5","type":"t_uint256"},{"astId":1634,"contract":"contracts/IPFSStorage.sol:IPFSStorage","label":"isVerified","offset":0,"slot":"6","type":"t_bool"},{"astId":1636,"contract":"contracts/IPFSStorage.sol:IPFSStorage","label":"isActive","offset":1,"slot":"6","type":"t_bool"}],"numberOfBytes":"224"},"t_uint256":{"encoding":"inplace","label":"uint256","numberOfBytes":"32"}}},"userdoc":{"kind":"user","methods":{},"version":1}}}}