{
  "_format": "hh-sol-artifact-1",
  "contractName": "IdentityVerification",
  "sourceName": "contracts/IdentityVerification.sol",
  "abi": [
    {
      "inputs": [],
      "stateMutability": "nonpayable",
      "type": "constructor"
    },
    {
      "inputs": [
        {
          "internalType": "address",
          "name": "owner",
          "type": "address"
        }
      ],
      "name": "OwnableInvalidOwner",
      "type": "error"
    },
    {
      "inputs": [
        {
          "internalType": "address",
          "name": "account",
          "type": "address"
        }
      ],
      "name": "OwnableUnauthorizedAccount",
      "type": "error"
    },
    {
      "anonymous": false,
      "inputs": [
        {
          "indexed": true,
          "internalType": "uint256",
          "name": "identityId",
          "type": "uint256"
        },
        {
          "indexed": true,
          "internalType": "address",
          "name": "user",
          "type": "address"
        },
        {
          "indexed": false,
          "internalType": "string",
          "name": "studentId",
          "type": "string"
        }
      ],
      "name": "IdentityCreated",
      "type": "event"
    },
    {
      "anonymous": false,
      "inputs": [
        {
          "indexed": true,
          "internalType": "uint256",
          "name": "identityId",
          "type": "uint256"
        },
        {
          "indexed": true,
          "internalType": "address",
          "name": "user",
          "type": "address"
        }
      ],
      "name": "IdentityDeactivated",
      "type": "event"
    },
    {
      "anonymous": false,
      "inputs": [
        {
          "indexed": true,
          "internalType": "uint256",
          "name": "identityId",
          "type": "uint256"
        },
        {
          "indexed": true,
          "internalType": "address",
          "name": "user",
          "type": "address"
        }
      ],
      "name": "IdentityVerified",
      "type": "event"
    },
    {
      "anonymous": false,
      "inputs": [
        {
          "indexed": true,
          "internalType": "address",
          "name": "previousOwner",
          "type": "address"
        },
        {
          "indexed": true,
          "internalType": "address",
          "name": "newOwner",
          "type": "address"
        }
      ],
      "name": "OwnershipTransferred",
      "type": "event"
    },
    {
      "anonymous": false,
      "inputs": [
        {
          "indexed": true,
          "internalType": "uint256",
          "name": "requestId",
          "type": "uint256"
        },
        {
          "indexed": true,
          "internalType": "address",
          "name": "user",
          "type": "address"
        }
      ],
      "name": "VerificationApproved",
      "type": "event"
    },
    {
      "anonymous": false,
      "inputs": [
        {
          "indexed": true,
          "internalType": "uint256",
          "name": "requestId",
          "type": "uint256"
        },
        {
          "indexed": true,
          "internalType": "address",
          "name": "user",
          "type": "address"
        },
        {
          "indexed": false,
          "internalType": "string",
          "name": "reason",
          "type": "string"
        }
      ],
      "name": "VerificationRejected",
      "type": "event"
    },
    {
      "anonymous": false,
      "inputs": [
        {
          "indexed": true,
          "internalType": "uint256",
          "name": "requestId",
          "type": "uint256"
        },
        {
          "indexed": true,
          "internalType": "address",
          "name": "user",
          "type": "address"
        },
        {
          "indexed": false,
          "internalType": "string",
          "name": "studentId",
          "type": "string"
        }
      ],
      "name": "VerificationRequested",
      "type": "event"
    },
    {
      "anonymous": false,
      "inputs": [
        {
          "indexed": true,
          "internalType": "address",
          "name": "verifier",
          "type": "address"
        }
      ],
      "name": "VerifierAdded",
      "type": "event"
    },
    {
      "anonymous": false,
      "inputs": [
        {
          "indexed": true,
          "internalType": "address",
          "name": "verifier",
          "type": "address"
        }
      ],
      "name": "VerifierRemoved",
      "type": "event"
    },
    {
      "inputs": [],
      "name": "VERIFICATION_EXPIRY",
      "outputs": [
        {
          "internalType": "uint256",
          "name": "",
          "type": "uint256"
        }
      ],
      "stateMutability": "view",
      "type": "function"
    },
    {
      "inputs": [],
      "name": "VERIFICATION_FEE",
      "outputs": [
        {
          "internalType": "uint256",
          "name": "",
          "type": "uint256"
        }
      ],
      "stateMutability": "view",
      "type": "function"
    },
    {
      "inputs": [
        {
          "internalType": "address",
          "name": "_verifier",
          "type": "address"
        }
      ],
      "name": "addVerifier",
      "outputs": [],
      "stateMutability": "nonpayable",
      "type": "function"
    },
    {
      "inputs": [
        {
          "internalType": "uint256",
          "name": "_requestId",
          "type": "uint256"
        }
      ],
      "name": "approveVerification",
      "outputs": [],
      "stateMutability": "nonpayable",
      "type": "function"
    },
    {
      "inputs": [
        {
          "internalType": "string",
          "name": "_studentId",
          "type": "string"
        },
        {
          "internalType": "string",
          "name": "_university",
          "type": "string"
        },
        {
          "internalType": "string",
          "name": "_degree",
          "type": "string"
        },
        {
          "internalType": "uint256",
          "name": "_graduationYear",
          "type": "uint256"
        },
        {
          "internalType": "string",
          "name": "_ipfsHash",
          "type": "string"
        }
      ],
      "name": "createIdentity",
      "outputs": [
        {
          "internalType": "uint256",
          "name": "",
          "type": "uint256"
        }
      ],
      "stateMutability": "nonpayable",
      "type": "function"
    },
    {
      "inputs": [],
      "name": "deactivateIdentity",
      "outputs": [],
      "stateMutability": "nonpayable",
      "type": "function"
    },
    {
      "inputs": [
        {
          "internalType": "uint256",
          "name": "_identityId",
          "type": "uint256"
        }
      ],
      "name": "getIdentity",
      "outputs": [
        {
          "internalType": "uint256",
          "name": "identityId",
          "type": "uint256"
        },
        {
          "internalType": "address",
          "name": "user",
          "type": "address"
        },
        {
          "internalType": "string",
          "name": "studentId",
          "type": "string"
        },
        {
          "internalType": "string",
          "name": "university",
          "type": "string"
        },
        {
          "internalType": "string",
          "name": "degree",
          "type": "string"
        },
        {
          "internalType": "uint256",
          "name": "graduationYear",
          "type": "uint256"
        },
        {
          "internalType": "bool",
          "name": "isVerified",
          "type": "bool"
        },
        {
          "internalType": "bool",
          "name": "isActive",
          "type": "bool"
        },
        {
          "internalType": "uint256",
          "name": "verificationDate",
          "type": "uint256"
        },
        {
          "internalType": "string",
          "name": "ipfsHash",
          "type": "string"
        }
      ],
      "stateMutability": "view",
      "type": "function"
    },
    {
      "inputs": [
        {
          "internalType": "address",
          "name": "_user",
          "type": "address"
        }
      ],
      "name": "getUserIdentity",
      "outputs": [
        {
          "internalType": "uint256",
          "name": "",
          "type": "uint256"
        }
      ],
      "stateMutability": "view",
      "type": "function"
    },
    {
      "inputs": [
        {
          "internalType": "address",
          "name": "_user",
          "type": "address"
        }
      ],
      "name": "getUserRequests",
      "outputs": [
        {
          "internalType": "uint256[]",
          "name": "",
          "type": "uint256[]"
        }
      ],
      "stateMutability": "view",
      "type": "function"
    },
    {
      "inputs": [
        {
          "internalType": "uint256",
          "name": "_requestId",
          "type": "uint256"
        }
      ],
      "name": "getVerificationRequest",
      "outputs": [
        {
          "internalType": "uint256",
          "name": "requestId",
          "type": "uint256"
        },
        {
          "internalType": "address",
          "name": "user",
          "type": "address"
        },
        {
          "internalType": "string",
          "name": "studentId",
          "type": "string"
        },
        {
          "internalType": "string",
          "name": "university",
          "type": "string"
        },
        {
          "internalType": "string",
          "name": "degree",
          "type": "string"
        },
        {
          "internalType": "uint256",
          "name": "graduationYear",
          "type": "uint256"
        },
        {
          "internalType": "string",
          "name": "ipfsHash",
          "type": "string"
        },
        {
          "internalType": "bool",
          "name": "isApproved",
          "type": "bool"
        },
        {
          "internalType": "bool",
          "name": "isRejected",
          "type": "bool"
        },
        {
          "internalType": "uint256",
          "name": "requestDate",
          "type": "uint256"
        }
      ],
      "stateMutability": "view",
      "type": "function"
    },
    {
      "inputs": [
        {
          "internalType": "uint256",
          "name": "",
          "type": "uint256"
        }
      ],
      "name": "identities",
      "outputs": [
        {
          "internalType": "uint256",
          "name": "identityId",
          "type": "uint256"
        },
        {
          "internalType": "address",
          "name": "user",
          "type": "address"
        },
        {
          "internalType": "string",
          "name": "studentId",
          "type": "string"
        },
        {
          "internalType": "string",
          "name": "university",
          "type": "string"
        },
        {
          "internalType": "string",
          "name": "degree",
          "type": "string"
        },
        {
          "internalType": "uint256",
          "name": "graduationYear",
          "type": "uint256"
        },
        {
          "internalType": "bool",
          "name": "isVerified",
          "type": "bool"
        },
        {
          "internalType": "bool",
          "name": "isActive",
          "type": "bool"
        },
        {
          "internalType": "uint256",
          "name": "verificationDate",
          "type": "uint256"
        },
        {
          "internalType": "string",
          "name": "ipfsHash",
          "type": "string"
        }
      ],
      "stateMutability": "view",
      "type": "function"
    },
    {
      "inputs": [
        {
          "internalType": "address",
          "name": "_user",
          "type": "address"
        }
      ],
      "name": "isIdentityVerified",
      "outputs": [
        {
          "internalType": "bool",
          "name": "",
          "type": "bool"
        }
      ],
      "stateMutability": "view",
      "type": "function"
    },
    {
      "inputs": [
        {
          "internalType": "string",
          "name": "_studentId",
          "type": "string"
        }
      ],
      "name": "isStudentIdVerified",
      "outputs": [
        {
          "internalType": "bool",
          "name": "",
          "type": "bool"
        }
      ],
      "stateMutability": "view",
      "type": "function"
    },
    {
      "inputs": [],
      "name": "owner",
      "outputs": [
        {
          "internalType": "address",
          "name": "",
          "type": "address"
        }
      ],
      "stateMutability": "view",
      "type": "function"
    },
    {
      "inputs": [],
      "name": "reactivateIdentity",
      "outputs": [],
      "stateMutability": "nonpayable",
      "type": "function"
    },
    {
      "inputs": [
        {
          "internalType": "uint256",
          "name": "_requestId",
          "type": "uint256"
        },
        {
          "internalType": "string",
          "name": "_reason",
          "type": "string"
        }
      ],
      "name": "rejectVerification",
      "outputs": [],
      "stateMutability": "nonpayable",
      "type": "function"
    },
    {
      "inputs": [
        {
          "internalType": "address",
          "name": "_verifier",
          "type": "address"
        }
      ],
      "name": "removeVerifier",
      "outputs": [],
      "stateMutability": "nonpayable",
      "type": "function"
    },
    {
      "inputs": [],
      "name": "renounceOwnership",
      "outputs": [],
      "stateMutability": "nonpayable",
      "type": "function"
    },
    {
      "inputs": [
        {
          "internalType": "string",
          "name": "_studentId",
          "type": "string"
        },
        {
          "internalType": "string",
          "name": "_university",
          "type": "string"
        },
        {
          "internalType": "string",
          "name": "_degree",
          "type": "string"
        },
        {
          "internalType": "uint256",
          "name": "_graduationYear",
          "type": "uint256"
        },
        {
          "internalType": "string",
          "name": "_ipfsHash",
          "type": "string"
        }
      ],
      "name": "requestVerification",
      "outputs": [
        {
          "internalType": "uint256",
          "name": "",
          "type": "uint256"
        }
      ],
      "stateMutability": "nonpayable",
      "type": "function"
    },
    {
      "inputs": [
        {
          "internalType": "address",
          "name": "newOwner",
          "type": "address"
        }
      ],
      "name": "transferOwnership",
      "outputs": [],
      "stateMutability": "nonpayable",
      "type": "function"
    },
    {
      "inputs": [
        {
          "internalType": "address",
          "name": "",
          "type": "address"
        }
      ],
      "name": "userIdentityId",
      "outputs": [
        {
          "internalType": "uint256",
          "name": "",
          "type": "uint256"
        }
      ],
      "stateMutability": "view",
      "type": "function"
    },
    {
      "inputs": [
        {
          "internalType": "address",
          "name": "",
          "type": "address"
        },
        {
          "internalType": "uint256",
          "name": "",
          "type": "uint256"
        }
      ],
      "name": "userRequests",
      "outputs": [
        {
          "internalType": "uint256",
          "name": "",
          "type": "uint256"
        }
      ],
      "stateMutability": "view",
      "type": "function"
    },
    {
      "inputs": [
        {
          "internalType": "uint256",
          "name": "",
          "type": "uint256"
        }
      ],
      "name": "verificationRequests",
      "outputs": [
        {
          "internalType": "uint256",
          "name": "requestId",
          "type": "uint256"
        },
        {
          "internalType": "address",
          "name": "user",
          "type": "address"
        },
        {
          "internalType": "string",
          "name": "studentId",
          "type": "string"
        },
        {
          "internalType": "string",
          "name": "university",
          "type": "string"
        },
        {
          "internalType": "string",
          "name": "degree",
          "type": "string"
        },
        {
          "internalType": "uint256",
          "name": "graduationYear",
          "type": "uint256"
        },
        {
          "internalType": "string",
          "name": "ipfsHash",
          "type": "string"
        },
        {
          "internalType": "bool",
          "name": "isApproved",
          "type": "bool"
        },
        {
          "internalType": "bool",
          "name": "isRejected",
          "type": "bool"
        },
        {
          "internalType": "uint256",
          "name": "requestDate",
          "type": "uint256"
        }
      ],
      "stateMutability": "view",
      "type": "function"
    },
    {
      "inputs": [
        {
          "internalType": "string",
          "name": "",
          "type": "string"
        }
      ],
      "name": "verifiedStudentIds",
      "outputs": [
        {
          "internalType": "bool",
          "name": "",
          "type": "bool"
        }
      ],
      "stateMutability": "view",
      "type": "function"
    },
    {
      "inputs": [
        {
          "internalType": "address",
          "name": "",
          "type": "address"
        }
      ],
      "name": "verifiers",
      "outputs": [
        {
          "internalType": "bool",
          "name": "",
          "type": "bool"
        }
      ],
      "stateMutability": "view",
      "type": "function"
    },
    {
      "inputs": [
        {
          "internalType": "address",
          "name": "_user",
          "type": "address"
        },
        {
          "internalType": "string",
          "name": "_studentId",
          "type": "string"
        },
        {
          "internalType": "string",
          "name": "_university",
          "type": "string"
        },
        {
          "internalType": "string",
          "name": "_degree",
          "type": "string"
        },
        {
          "internalType": "uint256",
          "name": "_graduationYear",
          "type": "uint256"
        },
        {
          "internalType": "string",
          "name": "_ipfsHash",
          "type": "string"
        },
        {
          "internalType": "bytes",
          "name": "_proof",
          "type": "bytes"
        }
      ],
      "name": "verifyWithPassport",
      "outputs": [],
      "stateMutability": "nonpayable",
      "type": "function"
    }
  ],
  "bytecode": "0x608060405234801561001057600080fd5b50338061003757604051631e4fbdf760e01b81526000600482015260240160405180910390fd5b61004081610060565b50336000908152600760205260409020805460ff191660011790556100b0565b600080546001600160a01b038381166001600160a01b0319831681178455604051919092169283917f8be0079c531659141344cd1fd0a4f28419497f9722a3daafe3b4186f6b6457e09190a35050565b6125f880620000c06000396000f3fe608060405234801561001057600080fd5b506004361061018e5760003560e01c806385e3f058116100de578063ca2dfd0a11610097578063f0d7b3e011610071578063f0d7b3e0146103bf578063f2fde38b146103ca578063f63ac762146103dd578063f98b1db8146103f057600080fd5b8063ca2dfd0a14610386578063dde3881614610399578063eaaf77e6146103ac57600080fd5b806385e3f058146102dc5780638da5cb5b146103055780639000b3d6146103205780639332b6a01461033357806394286a9614610353578063b337cf741461036657600080fd5b80634cd5561f1161014b5780636c824487116101255780636c82448714610294578063704f0656146102b7578063715018a6146102ca57806378a1bffd146102d257600080fd5b80634cd5561f1461024b578063596b50191461025e5780635b04e1b11461028c57600080fd5b806306966d9c146101935780632129c7611461019d57806322ccb474146101d9578063263cb6b6146102025780633364be68146102155780634089d49f14610238575b600080fd5b61019b610403565b005b6101c66101ab366004611db7565b6001600160a01b031660009081526005602052604090205490565b6040519081526020015b60405180910390f35b6101ec6101e7366004611dd2565b6104a4565b6040516101d09a99989796959493929190611e3b565b6101c6610210366004611ecd565b610765565b610228610223366004611f9a565b610796565b60405190151581526020016101d0565b6101ec610246366004611dd2565b6107c1565b6101c6610259366004611fd7565b610a3f565b61022861026c366004611f9a565b805160208183018101805160088252928201919093012091525460ff1681565b61019b610c65565b6102286102a2366004611db7565b60076020526000908152604090205460ff1681565b61019b6102c536600461208e565b610d1a565b61019b610e87565b6101c66298968081565b6102ef6102ea366004611dd2565b610e9b565b6040516101d09a999897969594939291906120d5565b6000546040516001600160a01b0390911681526020016101d0565b61019b61032e366004611db7565b61115b565b6101c6610341366004611db7565b60056020526000908152604090205481565b61019b61036136600461216b565b611255565b610379610374366004611db7565b6113eb565b6040516101d09190612257565b61019b610394366004611db7565b611457565b61019b6103a7366004611dd2565b611501565b6102ef6103ba366004611dd2565b6117d0565b6101c66301e1338081565b61019b6103d8366004611db7565b611a53565b6102286103eb366004611db7565b611a91565b6101c66103fe366004611fd7565b611af8565b33600090815260056020526040902054806104595760405162461bcd60e51b8152602060048201526011602482015270139bc81a59195b9d1a5d1e48199bdd5b99607a1b60448201526064015b60405180910390fd5b60008181526003602052604080822060068101805461ff001916905590519091339184917fc163c32465c1d70a17a90ffdffb2f6686b9049a4f2d89883fe6bebeed6b460a291a35050565b60008181526004602081905260408220805460018201546005830154600784015460088501546002860180548998606098899889988c988a988a9889988998969795966001600160a01b03909516959094600389019491890193919260068a019260ff80821693610100909204169190889061051f9061229b565b80601f016020809104026020016040519081016040528092919081815260200182805461054b9061229b565b80156105985780601f1061056d57610100808354040283529160200191610598565b820191906000526020600020905b81548152906001019060200180831161057b57829003601f168201915b505050505097508680546105ab9061229b565b80601f01602080910402602001604051908101604052809291908181526020018280546105d79061229b565b80156106245780601f106105f957610100808354040283529160200191610624565b820191906000526020600020905b81548152906001019060200180831161060757829003601f168201915b505050505096508580546106379061229b565b80601f01602080910402602001604051908101604052809291908181526020018280546106639061229b565b80156106b05780601f10610685576101008083540402835291602001916106b0565b820191906000526020600020905b81548152906001019060200180831161069357829003601f168201915b505050505095508380546106c39061229b565b80601f01602080910402602001604051908101604052809291908181526020018280546106ef9061229b565b801561073c5780601f106107115761010080835404028352916020019161073c565b820191906000526020600020905b81548152906001019060200180831161071f57829003601f168201915b505050505093509a509a509a509a509a509a509a509a509a509a50509193959799509193959799565b6006602052816000526040600020818154811061078157600080fd5b90600052602060002001600091509150505481565b60006008826040516107a891906122d5565b9081526040519081900360200190205460ff1692915050565b60046020526000908152604090208054600182015460028301805492936001600160a01b03909216926107f39061229b565b80601f016020809104026020016040519081016040528092919081815260200182805461081f9061229b565b801561086c5780601f106108415761010080835404028352916020019161086c565b820191906000526020600020905b81548152906001019060200180831161084f57829003601f168201915b5050505050908060030180546108819061229b565b80601f01602080910402602001604051908101604052809291908181526020018280546108ad9061229b565b80156108fa5780601f106108cf576101008083540402835291602001916108fa565b820191906000526020600020905b8154815290600101906020018083116108dd57829003601f168201915b50505050509080600401805461090f9061229b565b80601f016020809104026020016040519081016040528092919081815260200182805461093b9061229b565b80156109885780601f1061095d57610100808354040283529160200191610988565b820191906000526020600020905b81548152906001019060200180831161096b57829003601f168201915b5050505050908060050154908060060180546109a39061229b565b80601f01602080910402602001604051908101604052809291908181526020018280546109cf9061229b565b8015610a1c5780601f106109f157610100808354040283529160200191610a1c565b820191906000526020600020905b8154815290600101906020018083116109ff57829003601f168201915b505050506007830154600890930154919260ff808216936101009092041691508a565b600080865111610a875760405162461bcd60e51b815260206004820152601360248201527214dd1d59195b9d081251081c995c5d5a5c9959606a1b6044820152606401610450565b6000855111610ace5760405162461bcd60e51b8152602060048201526013602482015272155b9a5d995c9cda5d1e481c995c5d5a5c9959606a1b6044820152606401610450565b60008311610b195760405162461bcd60e51b815260206004820152601860248201527711dc98591d585d1a5bdb881e59585c881c995c5d5a5c995960421b6044820152606401610450565b3360009081526005602052604090205415610b765760405162461bcd60e51b815260206004820152601760248201527f4964656e7469747920616c7265616479206578697374730000000000000000006044820152606401610450565b60018054906000610b86836122f1565b909155505060018054600081815260036020526040902081815591820180546001600160a01b031916331790559060028101610bc28982612367565b5060038101610bd18882612367565b5060048101610be08782612367565b506005810185905560088101610bf68582612367565b5060068101805461ff00191661010017905542600782015533600081815260056020526040908190208490555183907f6287fd2c231a0416a5582f9950b602c0e5d29bc108ee85fb5133b680f6c636b790610c52908c90612427565b60405180910390a3509695505050505050565b3360009081526007602052604090205460ff1680610c8d57506000546001600160a01b031633145b610ca95760405162461bcd60e51b81526004016104509061243a565b3360009081526005602052604090205480610cfa5760405162461bcd60e51b8152602060048201526011602482015270139bc81a59195b9d1a5d1e48199bdd5b99607a1b6044820152606401610450565b6000908152600360205260409020600601805461ff001916610100179055565b3360009081526007602052604090205460ff1680610d4257506000546001600160a01b031633145b610d5e5760405162461bcd60e51b81526004016104509061243a565b600082815260046020526040902060018101546001600160a01b0316610dbf5760405162461bcd60e51b815260206004820152601660248201527514995c5d595cdd08191bd95cc81b9bdd08195e1a5cdd60521b6044820152606401610450565b600781015460ff16158015610dde57506007810154610100900460ff16155b610e265760405162461bcd60e51b815260206004820152601960248201527814995c5d595cdd08185b1c9958591e481c1c9bd8d95cdcd959603a1b6044820152606401610450565b60078101805461ff00191661010017905560018101546040516001600160a01b039091169084907f88dd5bfcd1480d8239680a502b1605b86fc91d0b0751a8793e970bd485c364cb90610e7a908690612427565b60405180910390a3505050565b610e8f611d1e565b610e996000611d4b565b565b60008181526003602081905260408220805460018201546005830154600684015460078501546002860180548998606098899889988c988998899889988d98969795966001600160a01b03909516959094908801936004890193909260ff80831693610100909304169160088b01908890610f159061229b565b80601f0160208091040260200160405190810160405280929190818152602001828054610f419061229b565b8015610f8e5780601f10610f6357610100808354040283529160200191610f8e565b820191906000526020600020905b815481529060010190602001808311610f7157829003601f168201915b50505050509750868054610fa19061229b565b80601f0160208091040260200160405190810160405280929190818152602001828054610fcd9061229b565b801561101a5780601f10610fef5761010080835404028352916020019161101a565b820191906000526020600020905b815481529060010190602001808311610ffd57829003601f168201915b5050505050965085805461102d9061229b565b80601f01602080910402602001604051908101604052809291908181526020018280546110599061229b565b80156110a65780601f1061107b576101008083540402835291602001916110a6565b820191906000526020600020905b81548152906001019060200180831161108957829003601f168201915b505050505095508080546110b99061229b565b80601f01602080910402602001604051908101604052809291908181526020018280546110e59061229b565b80156111325780601f1061110757610100808354040283529160200191611132565b820191906000526020600020905b81548152906001019060200180831161111557829003601f168201915b505050505090509a509a509a509a509a509a509a509a509a509a50509193959799509193959799565b611163611d1e565b6001600160a01b0381166111ab5760405162461bcd60e51b815260206004820152600f60248201526e496e76616c6964206164647265737360881b6044820152606401610450565b6001600160a01b03811660009081526007602052604090205460ff16156112095760405162461bcd60e51b815260206004820152601260248201527120b63932b0b23c9030903b32b934b334b2b960711b6044820152606401610450565b6001600160a01b038116600081815260076020526040808220805460ff19166001179055517f6d05492139c5ea989514a5d2150c028041e5c087e2a39967f67dc7d2655adb819190a250565b3360009081526007602052604090205460ff168061127d57506000546001600160a01b031633145b6112995760405162461bcd60e51b81526004016104509061243a565b6001600160a01b038716600090815260056020526040812054908190036112f057600180549060006112ca836122f1565b90915550506001546001600160a01b038916600090815260056020526040902081905590505b60008181526003602052604090208181556001810180546001600160a01b0319166001600160a01b038b161790556002810161132c8982612367565b506003810161133b8882612367565b506004810161134a8782612367565b5060058101859055600881016113608582612367565b5060068101805461ffff191661010117905542600782015560405160019060089061138c908b906122d5565b908152604051908190036020018120805492151560ff19909316929092179091556001600160a01b038a169083907fe96275f0447bef5005468923dc9eada51c5de314636b3a1bfde205e8fae3fe5c90600090a3505050505050505050565b6001600160a01b03811660009081526006602090815260409182902080548351818402810184019094528084526060939283018282801561144b57602002820191906000526020600020905b815481526020019060010190808311611437575b50505050509050919050565b61145f611d1e565b6001600160a01b03811660009081526007602052604090205460ff166114b85760405162461bcd60e51b815260206004820152600e60248201526d2737ba1030903b32b934b334b2b960911b6044820152606401610450565b6001600160a01b038116600081815260076020526040808220805460ff19169055517f44a3cd4eb5cc5748f6169df057b1cb2ae4c383e87cd94663c430e095d4cba4249190a250565b3360009081526007602052604090205460ff168061152957506000546001600160a01b031633145b6115455760405162461bcd60e51b81526004016104509061243a565b600081815260046020526040902060018101546001600160a01b03166115a65760405162461bcd60e51b815260206004820152601660248201527514995c5d595cdd08191bd95cc81b9bdd08195e1a5cdd60521b6044820152606401610450565b600781015460ff161580156115c557506007810154610100900460ff16155b61160d5760405162461bcd60e51b815260206004820152601960248201527814995c5d595cdd08185b1c9958591e481c1c9bd8d95cdcd959603a1b6044820152606401610450565b60078101805460ff191660019081179091558101546001600160a01b03166000908152600560205260408120549081900361167c5760018054906000611652836122f1565b909155505060018054908301546001600160a01b0316600090815260056020526040902081905590505b600081815260036020526040902081815560018084015490820180546001600160a01b0319166001600160a01b039092169190911790556002808201906116c590850182612471565b506003818101906116d890850182612471565b506004818101906116eb90850182612471565b5060058084015490820155600881016117076006850182612471565b5060068101805461ffff191661010117905542600782015560405160019060089061173690600287019061254c565b908152604051908190036020018120805492151560ff199093169290921790915560018401546001600160a01b03169085907fb0362fc6491538fb6678490452845f8ad657e21a73e47a0ee8d96382b743c16490600090a360018301546040516001600160a01b039091169083907fe96275f0447bef5005468923dc9eada51c5de314636b3a1bfde205e8fae3fe5c90600090a350505050565b60036020526000908152604090208054600182015460028301805492936001600160a01b03909216926118029061229b565b80601f016020809104026020016040519081016040528092919081815260200182805461182e9061229b565b801561187b5780601f106118505761010080835404028352916020019161187b565b820191906000526020600020905b81548152906001019060200180831161185e57829003601f168201915b5050505050908060030180546118909061229b565b80601f01602080910402602001604051908101604052809291908181526020018280546118bc9061229b565b80156119095780601f106118de57610100808354040283529160200191611909565b820191906000526020600020905b8154815290600101906020018083116118ec57829003601f168201915b50505050509080600401805461191e9061229b565b80601f016020809104026020016040519081016040528092919081815260200182805461194a9061229b565b80156119975780601f1061196c57610100808354040283529160200191611997565b820191906000526020600020905b81548152906001019060200180831161197a57829003601f168201915b505050506005830154600684015460078501546008860180549596939560ff80851696506101009094049093169391926119d09061229b565b80601f01602080910402602001604051908101604052809291908181526020018280546119fc9061229b565b8015611a495780601f10611a1e57610100808354040283529160200191611a49565b820191906000526020600020905b815481529060010190602001808311611a2c57829003601f168201915b505050505090508a565b611a5b611d1e565b6001600160a01b038116611a8557604051631e4fbdf760e01b815260006004820152602401610450565b611a8e81611d4b565b50565b6001600160a01b038116600090815260056020526040812054808203611aba5750600092915050565b60008181526003602052604090206006015460ff168015611af15750600081815260036020526040902060060154610100900460ff165b9392505050565b600080865111611b405760405162461bcd60e51b815260206004820152601360248201527214dd1d59195b9d081251081c995c5d5a5c9959606a1b6044820152606401610450565b6000855111611b875760405162461bcd60e51b8152602060048201526013602482015272155b9a5d995c9cda5d1e481c995c5d5a5c9959606a1b6044820152606401610450565b60008311611bd25760405162461bcd60e51b815260206004820152601860248201527711dc98591d585d1a5bdb881e59585c881c995c5d5a5c995960421b6044820152606401610450565b600886604051611be291906122d5565b9081526040519081900360200190205460ff1615611c425760405162461bcd60e51b815260206004820152601b60248201527f53747564656e7420494420616c726561647920766572696669656400000000006044820152606401610450565b60028054906000611c52836122f1565b90915550506002805460008181526004602052604090208181556001810180546001600160a01b0319163317905590918101611c8e8982612367565b5060038101611c9d8882612367565b5060048101611cac8782612367565b506005810185905560068101611cc28582612367565b50426008820155336000818152600660209081526040808320805460018101825590845291909220018490555183907fa34e1dd2e50439a3590264f0b2c8d97c220efc7ef0fbe5a3552280b9b128c84490610c52908c90612427565b6000546001600160a01b03163314610e995760405163118cdaa760e01b8152336004820152602401610450565b600080546001600160a01b038381166001600160a01b0319831681178455604051919092169283917f8be0079c531659141344cd1fd0a4f28419497f9722a3daafe3b4186f6b6457e09190a35050565b80356001600160a01b0381168114611db257600080fd5b919050565b600060208284031215611dc957600080fd5b611af182611d9b565b600060208284031215611de457600080fd5b5035919050565b60005b83811015611e06578181015183820152602001611dee565b50506000910152565b60008151808452611e27816020860160208601611deb565b601f01601f19169290920160200192915050565b8a81526001600160a01b038a16602082015261014060408201819052600090611e668382018c611e0f565b90508281036060840152611e7a818b611e0f565b90508281036080840152611e8e818a611e0f565b90508760a084015282810360c0840152611ea88188611e0f565b95151560e0840152505091151561010083015261012090910152979650505050505050565b60008060408385031215611ee057600080fd5b611ee983611d9b565b946020939093013593505050565b634e487b7160e01b600052604160045260246000fd5b600082601f830112611f1e57600080fd5b813567ffffffffffffffff80821115611f3957611f39611ef7565b604051601f8301601f19908116603f01168101908282118183101715611f6157611f61611ef7565b81604052838152866020858801011115611f7a57600080fd5b836020870160208301376000602085830101528094505050505092915050565b600060208284031215611fac57600080fd5b813567ffffffffffffffff811115611fc357600080fd5b611fcf84828501611f0d565b949350505050565b600080600080600060a08688031215611fef57600080fd5b853567ffffffffffffffff8082111561200757600080fd5b61201389838a01611f0d565b9650602088013591508082111561202957600080fd5b61203589838a01611f0d565b9550604088013591508082111561204b57600080fd5b61205789838a01611f0d565b945060608801359350608088013591508082111561207457600080fd5b5061208188828901611f0d565b9150509295509295909350565b600080604083850312156120a157600080fd5b82359150602083013567ffffffffffffffff8111156120bf57600080fd5b6120cb85828601611f0d565b9150509250929050565b8a81526001600160a01b038a166020820152610140604082018190526000906121008382018c611e0f565b90508281036060840152612114818b611e0f565b90508281036080840152612128818a611e0f565b90508760a084015286151560c084015285151560e08401528461010084015282810361012084015261215a8185611e0f565b9d9c50505050505050505050505050565b600080600080600080600060e0888a03121561218657600080fd5b61218f88611d9b565b9650602088013567ffffffffffffffff808211156121ac57600080fd5b6121b88b838c01611f0d565b975060408a01359150808211156121ce57600080fd5b6121da8b838c01611f0d565b965060608a01359150808211156121f057600080fd5b6121fc8b838c01611f0d565b955060808a0135945060a08a013591508082111561221957600080fd5b6122258b838c01611f0d565b935060c08a013591508082111561223b57600080fd5b506122488a828b01611f0d565b91505092959891949750929550565b6020808252825182820181905260009190848201906040850190845b8181101561228f57835183529284019291840191600101612273565b50909695505050505050565b600181811c908216806122af57607f821691505b6020821081036122cf57634e487b7160e01b600052602260045260246000fd5b50919050565b600082516122e7818460208701611deb565b9190910192915050565b60006001820161231157634e487b7160e01b600052601160045260246000fd5b5060010190565b601f82111561236257600081815260208120601f850160051c8101602086101561233f5750805b601f850160051c820191505b8181101561235e5782815560010161234b565b5050505b505050565b815167ffffffffffffffff81111561238157612381611ef7565b6123958161238f845461229b565b84612318565b602080601f8311600181146123ca57600084156123b25750858301515b600019600386901b1c1916600185901b17855561235e565b600085815260208120601f198616915b828110156123f9578886015182559484019460019091019084016123da565b50858210156124175787850151600019600388901b60f8161c191681555b5050505050600190811b01905550565b602081526000611af16020830184611e0f565b60208082526017908201527f4e6f7420617574686f72697a6564207665726966696572000000000000000000604082015260600190565b81810361247c575050565b612486825461229b565b67ffffffffffffffff81111561249e5761249e611ef7565b6124ac8161238f845461229b565b6000601f8211600181146124e057600083156124c85750848201545b600019600385901b1c1916600184901b178455612545565b600085815260209020601f19841690600086815260209020845b8381101561251a57828601548255600195860195909101906020016124fa565b50858310156125385781850154600019600388901b60f8161c191681555b50505060018360011b0184555b5050505050565b600080835461255a8161229b565b600182811680156125725760018114612587576125b6565b60ff19841687528215158302870194506125b6565b8760005260208060002060005b858110156125ad5781548a820152908401908201612594565b50505082870194505b5092969550505050505056fea264697066735822122038700d4454bb97ecd1e27561055518765c26494736ce2d083fdd1dc5912f051f64736f6c63430008140033",
  "linkReferences": {},
  "deployedLinkReferences": {}
}