{
  "_format": "hh-sol-artifact-1",
  "contractName": "ScholarshipDAO",
  "sourceName": "contracts/ScholarshipDAO.sol",
  "abi": [
    {
      "inputs": [
        {
          "internalType": "address",
          "name": "_unifiCore",
          "type": "address"
        }
      ],
      "stateMutability": "nonpayable",
      "type": "constructor"
    },
    {
      "inputs": [
        {
          "internalType": "address",
          "name": "owner",
          "type": "address"
        }
      ],
      "name": "OwnableInvalidOwner",
      "type": "error"
    },
    {
      "inputs": [
        {
          "internalType": "address",
          "name": "account",
          "type": "address"
        }
      ],
      "name": "OwnableUnauthorizedAccount",
      "type": "error"
    },
    {
      "inputs": [],
      "name": "ReentrancyGuardReentrantCall",
      "type": "error"
    },
    {
      "inputs": [
        {
          "internalType": "address",
          "name": "token",
          "type": "address"
        }
      ],
      "name": "SafeERC20FailedOperation",
      "type": "error"
    },
    {
      "anonymous": false,
      "inputs": [
        {
          "indexed": true,
          "internalType": "address",
          "name": "member",
          "type": "address"
        }
      ],
      "name": "MemberAdded",
      "type": "event"
    },
    {
      "anonymous": false,
      "inputs": [
        {
          "indexed": true,
          "internalType": "address",
          "name": "member",
          "type": "address"
        }
      ],
      "name": "MemberRemoved",
      "type": "event"
    },
    {
      "anonymous": false,
      "inputs": [
        {
          "indexed": true,
          "internalType": "address",
          "name": "previousOwner",
          "type": "address"
        },
        {
          "indexed": true,
          "internalType": "address",
          "name": "newOwner",
          "type": "address"
        }
      ],
      "name": "OwnershipTransferred",
      "type": "event"
    },
    {
      "anonymous": false,
      "inputs": [
        {
          "indexed": true,
          "internalType": "uint256",
          "name": "proposalId",
          "type": "uint256"
        },
        {
          "indexed": false,
          "internalType": "string",
          "name": "title",
          "type": "string"
        },
        {
          "indexed": false,
          "internalType": "uint256",
          "name": "amount",
          "type": "uint256"
        }
      ],
      "name": "ProposalCreated",
      "type": "event"
    },
    {
      "anonymous": false,
      "inputs": [
        {
          "indexed": true,
          "internalType": "uint256",
          "name": "proposalId",
          "type": "uint256"
        }
      ],
      "name": "ProposalExecuted",
      "type": "event"
    },
    {
      "anonymous": false,
      "inputs": [
        {
          "indexed": true,
          "internalType": "uint256",
          "name": "scholarshipId",
          "type": "uint256"
        },
        {
          "indexed": false,
          "internalType": "string",
          "name": "title",
          "type": "string"
        },
        {
          "indexed": false,
          "internalType": "uint256",
          "name": "amount",
          "type": "uint256"
        }
      ],
      "name": "ScholarshipCreated",
      "type": "event"
    },
    {
      "anonymous": false,
      "inputs": [
        {
          "indexed": true,
          "internalType": "uint256",
          "name": "scholarshipId",
          "type": "uint256"
        },
        {
          "indexed": false,
          "internalType": "address",
          "name": "recipient",
          "type": "address"
        }
      ],
      "name": "ScholarshipDistributed",
      "type": "event"
    },
    {
      "anonymous": false,
      "inputs": [
        {
          "indexed": true,
          "internalType": "uint256",
          "name": "scholarshipId",
          "type": "uint256"
        },
        {
          "indexed": false,
          "internalType": "uint256",
          "name": "amount",
          "type": "uint256"
        }
      ],
      "name": "ScholarshipFunded",
      "type": "event"
    },
    {
      "anonymous": false,
      "inputs": [
        {
          "indexed": true,
          "internalType": "uint256",
          "name": "id",
          "type": "uint256"
        },
        {
          "indexed": false,
          "internalType": "address",
          "name": "voter",
          "type": "address"
        },
        {
          "indexed": false,
          "internalType": "bool",
          "name": "support",
          "type": "bool"
        }
      ],
      "name": "VoteCast",
      "type": "event"
    },
    {
      "inputs": [],
      "name": "MAX_SCHOLARSHIP_AMOUNT",
      "outputs": [
        {
          "internalType": "uint256",
          "name": "",
          "type": "uint256"
        }
      ],
      "stateMutability": "view",
      "type": "function"
    },
    {
      "inputs": [],
      "name": "MIN_SCHOLARSHIP_AMOUNT",
      "outputs": [
        {
          "internalType": "uint256",
          "name": "",
          "type": "uint256"
        }
      ],
      "stateMutability": "view",
      "type": "function"
    },
    {
      "inputs": [],
      "name": "MIN_VOTES_REQUIRED",
      "outputs": [
        {
          "internalType": "uint256",
          "name": "",
          "type": "uint256"
        }
      ],
      "stateMutability": "view",
      "type": "function"
    },
    {
      "inputs": [],
      "name": "VOTING_PERIOD",
      "outputs": [
        {
          "internalType": "uint256",
          "name": "",
          "type": "uint256"
        }
      ],
      "stateMutability": "view",
      "type": "function"
    },
    {
      "inputs": [
        {
          "internalType": "address",
          "name": "_member",
          "type": "address"
        },
        {
          "internalType": "uint256",
          "name": "_votingPower",
          "type": "uint256"
        }
      ],
      "name": "addMember",
      "outputs": [],
      "stateMutability": "nonpayable",
      "type": "function"
    },
    {
      "inputs": [
        {
          "internalType": "string",
          "name": "_title",
          "type": "string"
        },
        {
          "internalType": "string",
          "name": "_description",
          "type": "string"
        },
        {
          "internalType": "uint256",
          "name": "_amount",
          "type": "uint256"
        }
      ],
      "name": "createProposal",
      "outputs": [
        {
          "internalType": "uint256",
          "name": "",
          "type": "uint256"
        }
      ],
      "stateMutability": "nonpayable",
      "type": "function"
    },
    {
      "inputs": [
        {
          "internalType": "string",
          "name": "_title",
          "type": "string"
        },
        {
          "internalType": "string",
          "name": "_description",
          "type": "string"
        },
        {
          "internalType": "uint256",
          "name": "_amount",
          "type": "uint256"
        },
        {
          "internalType": "address",
          "name": "_recipient",
          "type": "address"
        }
      ],
      "name": "createScholarship",
      "outputs": [
        {
          "internalType": "uint256",
          "name": "",
          "type": "uint256"
        }
      ],
      "stateMutability": "nonpayable",
      "type": "function"
    },
    {
      "inputs": [
        {
          "internalType": "uint256",
          "name": "_scholarshipId",
          "type": "uint256"
        }
      ],
      "name": "distributeScholarship",
      "outputs": [],
      "stateMutability": "nonpayable",
      "type": "function"
    },
    {
      "inputs": [],
      "name": "emergencyWithdraw",
      "outputs": [],
      "stateMutability": "nonpayable",
      "type": "function"
    },
    {
      "inputs": [
        {
          "internalType": "uint256",
          "name": "_proposalId",
          "type": "uint256"
        }
      ],
      "name": "executeProposal",
      "outputs": [],
      "stateMutability": "nonpayable",
      "type": "function"
    },
    {
      "inputs": [
        {
          "internalType": "uint256",
          "name": "_scholarshipId",
          "type": "uint256"
        }
      ],
      "name": "fundScholarship",
      "outputs": [],
      "stateMutability": "nonpayable",
      "type": "function"
    },
    {
      "inputs": [
        {
          "internalType": "uint256",
          "name": "_proposalId",
          "type": "uint256"
        }
      ],
      "name": "getProposal",
      "outputs": [
        {
          "internalType": "uint256",
          "name": "proposalId",
          "type": "uint256"
        },
        {
          "internalType": "string",
          "name": "title",
          "type": "string"
        },
        {
          "internalType": "string",
          "name": "description",
          "type": "string"
        },
        {
          "internalType": "uint256",
          "name": "amount",
          "type": "uint256"
        },
        {
          "internalType": "uint256",
          "name": "deadline",
          "type": "uint256"
        },
        {
          "internalType": "bool",
          "name": "isExecuted",
          "type": "bool"
        },
        {
          "internalType": "uint256",
          "name": "votesFor",
          "type": "uint256"
        },
        {
          "internalType": "uint256",
          "name": "votesAgainst",
          "type": "uint256"
        }
      ],
      "stateMutability": "view",
      "type": "function"
    },
    {
      "inputs": [
        {
          "internalType": "uint256",
          "name": "_scholarshipId",
          "type": "uint256"
        }
      ],
      "name": "getScholarship",
      "outputs": [
        {
          "internalType": "uint256",
          "name": "scholarshipId",
          "type": "uint256"
        },
        {
          "internalType": "string",
          "name": "title",
          "type": "string"
        },
        {
          "internalType": "string",
          "name": "description",
          "type": "string"
        },
        {
          "internalType": "uint256",
          "name": "amount",
          "type": "uint256"
        },
        {
          "internalType": "uint256",
          "name": "deadline",
          "type": "uint256"
        },
        {
          "internalType": "address",
          "name": "recipient",
          "type": "address"
        },
        {
          "internalType": "bool",
          "name": "isFunded",
          "type": "bool"
        },
        {
          "internalType": "bool",
          "name": "isDistributed",
          "type": "bool"
        },
        {
          "internalType": "uint256",
          "name": "votesFor",
          "type": "uint256"
        },
        {
          "internalType": "uint256",
          "name": "votesAgainst",
          "type": "uint256"
        }
      ],
      "stateMutability": "view",
      "type": "function"
    },
    {
      "inputs": [
        {
          "internalType": "uint256",
          "name": "_proposalId",
          "type": "uint256"
        },
        {
          "internalType": "address",
          "name": "_voter",
          "type": "address"
        }
      ],
      "name": "hasVotedOnProposal",
      "outputs": [
        {
          "internalType": "bool",
          "name": "",
          "type": "bool"
        }
      ],
      "stateMutability": "view",
      "type": "function"
    },
    {
      "inputs": [
        {
          "internalType": "uint256",
          "name": "_scholarshipId",
          "type": "uint256"
        },
        {
          "internalType": "address",
          "name": "_voter",
          "type": "address"
        }
      ],
      "name": "hasVotedOnScholarship",
      "outputs": [
        {
          "internalType": "bool",
          "name": "",
          "type": "bool"
        }
      ],
      "stateMutability": "view",
      "type": "function"
    },
    {
      "inputs": [
        {
          "internalType": "address",
          "name": "",
          "type": "address"
        }
      ],
      "name": "memberVotingPower",
      "outputs": [
        {
          "internalType": "uint256",
          "name": "",
          "type": "uint256"
        }
      ],
      "stateMutability": "view",
      "type": "function"
    },
    {
      "inputs": [
        {
          "internalType": "address",
          "name": "",
          "type": "address"
        }
      ],
      "name": "members",
      "outputs": [
        {
          "internalType": "bool",
          "name": "",
          "type": "bool"
        }
      ],
      "stateMutability": "view",
      "type": "function"
    },
    {
      "inputs": [],
      "name": "owner",
      "outputs": [
        {
          "internalType": "address",
          "name": "",
          "type": "address"
        }
      ],
      "stateMutability": "view",
      "type": "function"
    },
    {
      "inputs": [
        {
          "internalType": "uint256",
          "name": "",
          "type": "uint256"
        }
      ],
      "name": "proposals",
      "outputs": [
        {
          "internalType": "uint256",
          "name": "proposalId",
          "type": "uint256"
        },
        {
          "internalType": "string",
          "name": "title",
          "type": "string"
        },
        {
          "internalType": "string",
          "name": "description",
          "type": "string"
        },
        {
          "internalType": "uint256",
          "name": "amount",
          "type": "uint256"
        },
        {
          "internalType": "uint256",
          "name": "deadline",
          "type": "uint256"
        },
        {
          "internalType": "bool",
          "name": "isExecuted",
          "type": "bool"
        },
        {
          "internalType": "uint256",
          "name": "votesFor",
          "type": "uint256"
        },
        {
          "internalType": "uint256",
          "name": "votesAgainst",
          "type": "uint256"
        }
      ],
      "stateMutability": "view",
      "type": "function"
    },
    {
      "inputs": [
        {
          "internalType": "address",
          "name": "_member",
          "type": "address"
        }
      ],
      "name": "removeMember",
      "outputs": [],
      "stateMutability": "nonpayable",
      "type": "function"
    },
    {
      "inputs": [],
      "name": "renounceOwnership",
      "outputs": [],
      "stateMutability": "nonpayable",
      "type": "function"
    },
    {
      "inputs": [
        {
          "internalType": "uint256",
          "name": "",
          "type": "uint256"
        }
      ],
      "name": "scholarships",
      "outputs": [
        {
          "internalType": "uint256",
          "name": "scholarshipId",
          "type": "uint256"
        },
        {
          "internalType": "string",
          "name": "title",
          "type": "string"
        },
        {
          "internalType": "string",
          "name": "description",
          "type": "string"
        },
        {
          "internalType": "uint256",
          "name": "amount",
          "type": "uint256"
        },
        {
          "internalType": "uint256",
          "name": "deadline",
          "type": "uint256"
        },
        {
          "internalType": "address",
          "name": "recipient",
          "type": "address"
        },
        {
          "internalType": "bool",
          "name": "isFunded",
          "type": "bool"
        },
        {
          "internalType": "bool",
          "name": "isDistributed",
          "type": "bool"
        },
        {
          "internalType": "uint256",
          "name": "votesFor",
          "type": "uint256"
        },
        {
          "internalType": "uint256",
          "name": "votesAgainst",
          "type": "uint256"
        }
      ],
      "stateMutability": "view",
      "type": "function"
    },
    {
      "inputs": [
        {
          "internalType": "address",
          "name": "newOwner",
          "type": "address"
        }
      ],
      "name": "transferOwnership",
      "outputs": [],
      "stateMutability": "nonpayable",
      "type": "function"
    },
    {
      "inputs": [],
      "name": "unifiCore",
      "outputs": [
        {
          "internalType": "address",
          "name": "",
          "type": "address"
        }
      ],
      "stateMutability": "view",
      "type": "function"
    },
    {
      "inputs": [
        {
          "internalType": "address",
          "name": "_member",
          "type": "address"
        },
        {
          "internalType": "uint256",
          "name": "_newPower",
          "type": "uint256"
        }
      ],
      "name": "updateVotingPower",
      "outputs": [],
      "stateMutability": "nonpayable",
      "type": "function"
    },
    {
      "inputs": [],
      "name": "usdtToken",
      "outputs": [
        {
          "internalType": "contract IERC20",
          "name": "",
          "type": "address"
        }
      ],
      "stateMutability": "view",
      "type": "function"
    },
    {
      "inputs": [
        {
          "internalType": "uint256",
          "name": "_proposalId",
          "type": "uint256"
        },
        {
          "internalType": "bool",
          "name": "_support",
          "type": "bool"
        }
      ],
      "name": "voteOnProposal",
      "outputs": [],
      "stateMutability": "nonpayable",
      "type": "function"
    },
    {
      "inputs": [
        {
          "internalType": "uint256",
          "name": "_scholarshipId",
          "type": "uint256"
        },
        {
          "internalType": "bool",
          "name": "_support",
          "type": "bool"
        }
      ],
      "name": "voteOnScholarship",
      "outputs": [],
      "stateMutability": "nonpayable",
      "type": "function"
    }
  ],
  "bytecode": "0x60806040523480156200001157600080fd5b506040516200200438038062002004833981016040819052620000349162000101565b600160005533806200006057604051631e4fbdf760e01b81526000600482015260240160405180910390fd5b6200006b81620000af565b50600980546001600160a01b039092166001600160a01b03199283161790556008805490911673a0b86a33e6441b8c4c8c0c8c0c8c0c8c0c8c0c8c17905562000133565b600180546001600160a01b038381166001600160a01b0319831681179093556040519116919082907f8be0079c531659141344cd1fd0a4f28419497f9722a3daafe3b4186f6b6457e090600090a35050565b6000602082840312156200011457600080fd5b81516001600160a01b03811681146200012c57600080fd5b9392505050565b611ec180620001436000396000f3fe608060405234801561001057600080fd5b50600436106101c45760003560e01c8063715018a6116100f9578063c58b512911610097578063db2e21bc11610071578063db2e21bc14610413578063eadc29c71461041b578063f2fde38b1461042e578063fdb7a3cc1461044157600080fd5b8063c58b5129146103e5578063c7f758a8146103ed578063d9ca04941461040057600080fd5b806398041ea3116100d357806398041ea3146103a2578063a3bf4f4c146103b5578063a98ad46c146103c8578063b1610d7e146103db57600080fd5b8063715018a61461034c5780638da5cb5b146103545780638ef42a231461036557600080fd5b80632094fd901161016657806339dc58c61161014057806339dc58c6146102d257806341d2312c146102fb57806351c2c24c1461030e578063600303d81461033957600080fd5b80632094fd90146102a857806331512b71146102b45780633552f709146102c757600080fd5b80630ce0ebf4116101a25780630ce0ebf4146102415780630d61b5191461026257806313ea2a83146102755780631614665c1461029557600080fd5b8063013cf08b146101c957806308ae4b0c146101f95780630b1ca49a1461022c575b600080fd5b6101dc6101d736600461191c565b610454565b6040516101f098979695949392919061197b565b60405180910390f35b61021c6102073660046119f1565b60066020526000908152604090205460ff1681565b60405190151581526020016101f0565b61023f61023a3660046119f1565b6105a9565b005b61025461024f366004611ab6565b610648565b6040519081526020016101f0565b61023f61027036600461191c565b61076c565b6102546102833660046119f1565b60076020526000908152604090205481565b61023f6102a3366004611b23565b610923565b6102546402540be40081565b6102546102c2366004611b58565b610ae0565b6102546305f5e10081565b6102e56102e036600461191c565b610ca8565b6040516101f09a99989796959493929190611bd6565b61023f61030936600461191c565b610e1a565b600954610321906001600160a01b031681565b6040516001600160a01b0390911681526020016101f0565b61021c610347366004611c4a565b610f54565b61023f610f84565b6001546001600160a01b0316610321565b61021c610373366004611c4a565b60008281526004602090815260408083206001600160a01b038516845260080190915290205460ff1692915050565b61023f6103b0366004611c76565b610f98565b6102e56103c336600461191c565b61109e565b600854610321906001600160a01b031681565b61025462093a8081565b610254600381565b6101dc6103fb36600461191c565b61124a565b61023f61040e36600461191c565b6113d4565b61023f61159b565b61023f610429366004611c76565b611640565b61023f61043c3660046119f1565b61169c565b61023f61044f366004611b23565b6116d7565b6005602052600090815260409020805460018201805491929161047690611ca0565b80601f01602080910402602001604051908101604052809291908181526020018280546104a290611ca0565b80156104ef5780601f106104c4576101008083540402835291602001916104ef565b820191906000526020600020905b8154815290600101906020018083116104d257829003601f168201915b50505050509080600201805461050490611ca0565b80601f016020809104026020016040519081016040528092919081815260200182805461053090611ca0565b801561057d5780601f106105525761010080835404028352916020019161057d565b820191906000526020600020905b81548152906001019060200180831161056057829003601f168201915b50505060038401546004850154600586015460068701546007909701549596929591945060ff16925088565b6105b161175f565b6001600160a01b03811660009081526006602052604090205460ff166105f25760405162461bcd60e51b81526004016105e990611cda565b60405180910390fd5b6001600160a01b0381166000818152600660209081526040808320805460ff191690556007909152808220829055517f6e76fb4c77256006d9c38ec7d82b45a8c8f3c27b1d6766fffc42dfb8de6844929190a250565b3360009081526006602052604081205460ff166106775760405162461bcd60e51b81526004016105e990611cda565b600082116106c75760405162461bcd60e51b815260206004820152601d60248201527f416d6f756e74206d7573742062652067726561746572207468616e203000000060448201526064016105e9565b600380549060006106d783611d16565b90915550506003546000818152600560205260409020818155600181016106fe8782611d7d565b506002810161070d8682611d7d565b506003810184905561072262093a8042611e3d565b600482015560405182907ff5dc0da9afa6d080780a49fd8c680f03d2ddf3c067cd6d0c85360c096644d2d39061075b9089908890611e50565b60405180910390a250949350505050565b3360009081526006602052604090205460ff1661079b5760405162461bcd60e51b81526004016105e990611cda565b600081815260056020526040902060048101544210156107f75760405162461bcd60e51b8152602060048201526017602482015276159bdd1a5b99c81c195c9a5bd9081b9bdd08195b991959604a1b60448201526064016105e9565b600581015460ff161561083f5760405162461bcd60e51b815260206004820152601060248201526f105b1c9958591e48195e1958dd5d195960821b60448201526064016105e9565b806007015481600601541161088e5760405162461bcd60e51b8152602060048201526015602482015274141c9bdc1bdcd85b081b9bdd08185c1c1c9bdd9959605a1b60448201526064016105e9565b6003816007015482600601546108a49190611e3d565b10156108e55760405162461bcd60e51b815260206004820152601060248201526f4e6f7420656e6f75676820766f74657360801b60448201526064016105e9565b60058101805460ff1916600117905560405182907f712ae1383f79ac853f8d882153778e0260ef8f03b504e2866e0593e04d2b291f90600090a25050565b3360009081526006602052604090205460ff166109525760405162461bcd60e51b81526004016105e990611cda565b6000828152600560205260409020600481015442106109a95760405162461bcd60e51b8152602060048201526013602482015272159bdd1a5b99c81c195c9a5bd908195b991959606a1b60448201526064016105e9565b33600090815260088201602052604090205460ff16156109fb5760405162461bcd60e51b815260206004820152600d60248201526c105b1c9958591e481d9bdd1959609a1b60448201526064016105e9565b33600081815260088301602090815260408220805460ff191660019081179091556009850180549182018155835291200180546001600160a01b03191690911790558115610a73573360009081526007602052604081205460068301805491929091610a68908490611e3d565b90915550610a9f9050565b336000908152600760208190526040822054908301805491929091610a99908490611e3d565b90915550505b60408051338152831515602082015284917fe71fcdac32df1877c1700e7bda2a03157e20993363a28fc35ac495cefc76e4d4910160405180910390a2505050565b3360009081526006602052604081205460ff16610b0f5760405162461bcd60e51b81526004016105e990611cda565b6305f5e100831015610b545760405162461bcd60e51b815260206004820152600e60248201526d416d6f756e7420746f6f206c6f7760901b60448201526064016105e9565b6402540be400831115610b9b5760405162461bcd60e51b815260206004820152600f60248201526e082dadeeadce840e8dede40d0d2ced608b1b60448201526064016105e9565b6001600160a01b038216610be55760405162461bcd60e51b8152602060048201526011602482015270125b9d985b1a59081c9958da5c1a595b9d607a1b60448201526064016105e9565b60028054906000610bf583611d16565b9091555050600254600081815260046020526040902081815560018101610c1c8882611d7d565b5060028101610c2b8782611d7d565b5060038101859055610c4062093a8042611e3d565b60048201556005810180546001600160a01b0319166001600160a01b03861617905560405182907fcd613ed337e0507220dae4ee9a4abc53280c43016d259a8ea66bf5e8bfe57b8790610c96908a908990611e50565b60405180910390a25095945050505050565b60046020526000908152604090208054600182018054919291610cca90611ca0565b80601f0160208091040260200160405190810160405280929190818152602001828054610cf690611ca0565b8015610d435780601f10610d1857610100808354040283529160200191610d43565b820191906000526020600020905b815481529060010190602001808311610d2657829003601f168201915b505050505090806002018054610d5890611ca0565b80601f0160208091040260200160405190810160405280929190818152602001828054610d8490611ca0565b8015610dd15780601f10610da657610100808354040283529160200191610dd1565b820191906000526020600020905b815481529060010190602001808311610db457829003601f168201915b5050506003840154600485015460058601546006870154600790970154959692959194506001600160a01b038116935060ff600160a01b8204811693600160a81b90920416918a565b610e2261178c565b60008181526004602052604090206005810154600160a01b900460ff16610e785760405162461bcd60e51b815260206004820152600a602482015269139bdd08199d5b99195960b21b60448201526064016105e9565b6005810154600160a81b900460ff1615610eca5760405162461bcd60e51b8152602060048201526013602482015272105b1c9958591e48191a5cdd1c9a589d5d1959606a1b60448201526064016105e9565b60058101805460ff60a81b198116600160a81b179091556003820154600854610f01926001600160a01b03918216929116906117b6565b60058101546040516001600160a01b03909116815282907f02da572296529c18aa087d416db3e1bbb77ba4cee5a14b9723ded55083039051906020015b60405180910390a250610f516001600055565b50565b60008281526005602090815260408083206001600160a01b038516845260080190915290205460ff165b92915050565b610f8c61175f565b610f96600061181a565b565b610fa061175f565b6001600160a01b038216610fe85760405162461bcd60e51b815260206004820152600f60248201526e496e76616c6964206164647265737360881b60448201526064016105e9565b6001600160a01b03821660009081526006602052604090205460ff16156110445760405162461bcd60e51b815260206004820152601060248201526f20b63932b0b23c90309036b2b6b132b960811b60448201526064016105e9565b6001600160a01b0382166000818152600660209081526040808320805460ff191660011790556007909152808220849055517fb251eb052afc73ffd02ffe85ad79990a8b3fed60d76dbc2fa2fdd7123dffd9149190a25050565b60008181526004602081905260408220805460038201549282015460058301546006840154600785015460018601805460609889988b988998899889988998899889989697959690956002890195909490936001600160a01b0382169360ff600160a01b8404811694600160a81b9094041692899061111c90611ca0565b80601f016020809104026020016040519081016040528092919081815260200182805461114890611ca0565b80156111955780601f1061116a57610100808354040283529160200191611195565b820191906000526020600020905b81548152906001019060200180831161117857829003601f168201915b505050505098508780546111a890611ca0565b80601f01602080910402602001604051908101604052809291908181526020018280546111d490611ca0565b80156112215780601f106111f657610100808354040283529160200191611221565b820191906000526020600020905b81548152906001019060200180831161120457829003601f168201915b505050505097509a509a509a509a509a509a509a509a509a509a50509193959799509193959799565b6000606080600080600080600080600560008b8152602001908152602001600020905080600001548160010182600201836003015484600401548560050160009054906101000a900460ff16866006015487600701548680546112ac90611ca0565b80601f01602080910402602001604051908101604052809291908181526020018280546112d890611ca0565b80156113255780601f106112fa57610100808354040283529160200191611325565b820191906000526020600020905b81548152906001019060200180831161130857829003601f168201915b5050505050965085805461133890611ca0565b80601f016020809104026020016040519081016040528092919081815260200182805461136490611ca0565b80156113b15780601f10611386576101008083540402835291602001916113b1565b820191906000526020600020905b81548152906001019060200180831161139457829003601f168201915b505050505095509850985098509850985098509850985050919395975091939597565b6113dc61178c565b60008181526004602081905260409091209081015442101561143a5760405162461bcd60e51b8152602060048201526017602482015276159bdd1a5b99c81c195c9a5bd9081b9bdd08195b991959604a1b60448201526064016105e9565b6005810154600160a01b900460ff16156114875760405162461bcd60e51b815260206004820152600e60248201526d105b1c9958591e48199d5b99195960921b60448201526064016105e9565b80600701548160060154116114d65760405162461bcd60e51b8152602060048201526015602482015274141c9bdc1bdcd85b081b9bdd08185c1c1c9bdd9959605a1b60448201526064016105e9565b6003816007015482600601546114ec9190611e3d565b101561152d5760405162461bcd60e51b815260206004820152601060248201526f4e6f7420656e6f75676820766f74657360801b60448201526064016105e9565b600381015460085461154e916001600160a01b03909116903390309061186c565b60058101805460ff60a01b1916600160a01b179055600381015460405183917f914bdc92612e9a006db373c38328c24e796e097980bd223e9dec5536d8d3828791610f3e91815260200190565b6115a361175f565b6008546040516370a0823160e01b81523060048201526000916001600160a01b0316906370a0823190602401602060405180830381865afa1580156115ec573d6000803e3d6000fd5b505050506040513d601f19601f820116820180604052508101906116109190611e72565b90508015610f5157610f5161162d6001546001600160a01b031690565b6008546001600160a01b031690836117b6565b61164861175f565b6001600160a01b03821660009081526006602052604090205460ff166116805760405162461bcd60e51b81526004016105e990611cda565b6001600160a01b03909116600090815260076020526040902055565b6116a461175f565b6001600160a01b0381166116ce57604051631e4fbdf760e01b8152600060048201526024016105e9565b610f518161181a565b3360009081526006602052604090205460ff166117065760405162461bcd60e51b81526004016105e990611cda565b60008281526004602081905260409091209081015442106109a95760405162461bcd60e51b8152602060048201526013602482015272159bdd1a5b99c81c195c9a5bd908195b991959606a1b60448201526064016105e9565b6001546001600160a01b03163314610f965760405163118cdaa760e01b81523360048201526024016105e9565b6002600054036117af57604051633ee5aeb560e01b815260040160405180910390fd5b6002600055565b6040516001600160a01b0383811660248301526044820183905261181591859182169063a9059cbb906064015b604051602081830303815290604052915060e01b6020820180516001600160e01b0383818316178352505050506118ab565b505050565b600180546001600160a01b038381166001600160a01b0319831681179093556040519116919082907f8be0079c531659141344cd1fd0a4f28419497f9722a3daafe3b4186f6b6457e090600090a35050565b6040516001600160a01b0384811660248301528381166044830152606482018390526118a59186918216906323b872dd906084016117e3565b50505050565b600080602060008451602086016000885af1806118ce576040513d6000823e3d81fd5b50506000513d915081156118e65780600114156118f3565b6001600160a01b0384163b155b156118a557604051635274afe760e01b81526001600160a01b03851660048201526024016105e9565b60006020828403121561192e57600080fd5b5035919050565b6000815180845260005b8181101561195b5760208185018101518683018201520161193f565b506000602082860101526020601f19601f83011685010191505092915050565b60006101008a83528060208401526119958184018b611935565b905082810360408401526119a9818a611935565b60608401989098525050608081019490945291151560a084015260c083015260e0909101529392505050565b80356001600160a01b03811681146119ec57600080fd5b919050565b600060208284031215611a0357600080fd5b611a0c826119d5565b9392505050565b634e487b7160e01b600052604160045260246000fd5b600082601f830112611a3a57600080fd5b813567ffffffffffffffff80821115611a5557611a55611a13565b604051601f8301601f19908116603f01168101908282118183101715611a7d57611a7d611a13565b81604052838152866020858801011115611a9657600080fd5b836020870160208301376000602085830101528094505050505092915050565b600080600060608486031215611acb57600080fd5b833567ffffffffffffffff80821115611ae357600080fd5b611aef87838801611a29565b94506020860135915080821115611b0557600080fd5b50611b1286828701611a29565b925050604084013590509250925092565b60008060408385031215611b3657600080fd5b8235915060208301358015158114611b4d57600080fd5b809150509250929050565b60008060008060808587031215611b6e57600080fd5b843567ffffffffffffffff80821115611b8657600080fd5b611b9288838901611a29565b95506020870135915080821115611ba857600080fd5b50611bb587828801611a29565b93505060408501359150611bcb606086016119d5565b905092959194509250565b60006101408c8352806020840152611bf08184018d611935565b90508281036040840152611c04818c611935565b606084019a909a52505060808101969096526001600160a01b039490941660a086015291151560c0850152151560e0840152610100830152610120909101529392505050565b60008060408385031215611c5d57600080fd5b82359150611c6d602084016119d5565b90509250929050565b60008060408385031215611c8957600080fd5b611c92836119d5565b946020939093013593505050565b600181811c90821680611cb457607f821691505b602082108103611cd457634e487b7160e01b600052602260045260246000fd5b50919050565b6020808252600c908201526b2737ba10309036b2b6b132b960a11b604082015260600190565b634e487b7160e01b600052601160045260246000fd5b600060018201611d2857611d28611d00565b5060010190565b601f82111561181557600081815260208120601f850160051c81016020861015611d565750805b601f850160051c820191505b81811015611d7557828155600101611d62565b505050505050565b815167ffffffffffffffff811115611d9757611d97611a13565b611dab81611da58454611ca0565b84611d2f565b602080601f831160018114611de05760008415611dc85750858301515b600019600386901b1c1916600185901b178555611d75565b600085815260208120601f198616915b82811015611e0f57888601518255948401946001909101908401611df0565b5085821015611e2d5787850151600019600388901b60f8161c191681555b5050505050600190811b01905550565b80820180821115610f7e57610f7e611d00565b604081526000611e636040830185611935565b90508260208301529392505050565b600060208284031215611e8457600080fd5b505191905056fea2646970667358221220428fef0d6e3aedef20a948bebfab173ad0a53315ac43eb07586e85a5c00b5af964736f6c63430008140033",
  "linkReferences": {},
  "deployedLinkReferences": {}
}