{
  "_format": "hh-sol-artifact-1",
  "contractName": "MockPriceFeed",
  "sourceName": "contracts/MockPriceFeed.sol",
  "abi": [
    {
      "inputs": [],
      "stateMutability": "nonpayable",
      "type": "constructor"
    },
    {
      "inputs": [],
      "name": "decimals",
      "outputs": [
        {
          "internalType": "uint8",
          "name": "",
          "type": "uint8"
        }
      ],
      "stateMutability": "view",
      "type": "function"
    },
    {
      "inputs": [],
      "name": "description",
      "outputs": [
        {
          "internalType": "string",
          "name": "",
          "type": "string"
        }
      ],
      "stateMutability": "view",
      "type": "function"
    },
    {
      "inputs": [
        {
          "internalType": "uint80",
          "name": "_roundId",
          "type": "uint80"
        }
      ],
      "name": "getRoundData",
      "outputs": [
        {
          "internalType": "uint80",
          "name": "roundId",
          "type": "uint80"
        },
        {
          "internalType": "int256",
          "name": "answer",
          "type": "int256"
        },
        {
          "internalType": "uint256",
          "name": "startedAt",
          "type": "uint256"
        },
        {
          "internalType": "uint256",
          "name": "updatedAt",
          "type": "uint256"
        },
        {
          "internalType": "uint80",
          "name": "answeredInRound",
          "type": "uint80"
        }
      ],
      "stateMutability": "view",
      "type": "function"
    },
    {
      "inputs": [],
      "name": "latestRoundData",
      "outputs": [
        {
          "internalType": "uint80",
          "name": "roundId",
          "type": "uint80"
        },
        {
          "internalType": "int256",
          "name": "answer",
          "type": "int256"
        },
        {
          "internalType": "uint256",
          "name": "startedAt",
          "type": "uint256"
        },
        {
          "internalType": "uint256",
          "name": "updatedAt",
          "type": "uint256"
        },
        {
          "internalType": "uint80",
          "name": "answeredInRound",
          "type": "uint80"
        }
      ],
      "stateMutability": "view",
      "type": "function"
    },
    {
      "inputs": [
        {
          "internalType": "int256",
          "name": "newPrice",
          "type": "int256"
        }
      ],
      "name": "setPrice",
      "outputs": [],
      "stateMutability": "nonpayable",
      "type": "function"
    },
    {
      "inputs": [],
      "name": "version",
      "outputs": [
        {
          "internalType": "uint256",
          "name": "",
          "type": "uint256"
        }
      ],
      "stateMutability": "view",
      "type": "function"
    }
  ],
  "bytecode": "0x6001805460ff1916600817905560c0604052600f60809081526e135bd8dac8141c9a58d94811995959608a1b60a05260029061003b90826100fa565b50600160035534801561004d57600080fd5b50630bebc2006000556101b9565b634e487b7160e01b600052604160045260246000fd5b600181811c9082168061008557607f821691505b6020821081036100a557634e487b7160e01b600052602260045260246000fd5b50919050565b601f8211156100f557600081815260208120601f850160051c810160208610156100d25750805b601f850160051c820191505b818110156100f1578281556001016100de565b5050505b505050565b81516001600160401b038111156101135761011361005b565b610127816101218454610071565b846100ab565b602080601f83116001811461015c57600084156101445750858301515b600019600386901b1c1916600185901b1785556100f1565b600085815260208120601f198616915b8281101561018b5788860151825594840194600190910190840161016c565b50858210156101a95787850151600019600388901b60f8161c191681555b5050505050600190811b01905550565b6102b8806101c86000396000f3fe608060405234801561001057600080fd5b50600436106100625760003560e01c8063313ce5671461006757806354fd4d50146100815780637284e416146100925780639a6fc8f5146100a7578063f7a30806146100f9578063feaf968c1461010e575b600080fd5b60015460405160ff90911681526020015b60405180910390f35b600354604051908152602001610078565b61009a61011c565b60405161007891906101ae565b6100c26100b53660046101fc565b6000549091429081908490565b6040805169ffffffffffffffffffff968716815260208101959095528401929092526060830152909116608082015260a001610078565b61010c61010736600461022f565b600055565b005b6000546001904280836100c2565b60606002805461012b90610248565b80601f016020809104026020016040519081016040528092919081815260200182805461015790610248565b80156101a45780601f10610179576101008083540402835291602001916101a4565b820191906000526020600020905b81548152906001019060200180831161018757829003601f168201915b5050505050905090565b600060208083528351808285015260005b818110156101db578581018301518582016040015282016101bf565b506000604082860101526040601f19601f8301168501019250505092915050565b60006020828403121561020e57600080fd5b813569ffffffffffffffffffff8116811461022857600080fd5b9392505050565b60006020828403121561024157600080fd5b5035919050565b600181811c9082168061025c57607f821691505b60208210810361027c57634e487b7160e01b600052602260045260246000fd5b5091905056fea2646970667358221220dc3573ed70bc078feb3a7b970be86582c037a432297ccbeff9861610c528b8e464736f6c63430008140033",
  "linkReferences": {},
  "deployedLinkReferences": {}
}